{
  "_format": "hh-sol-artifact-1",
  "contractName": "BatchAuctionSettlement",
  "sourceName": "contracts/BatchAuctionSettlement.sol",
  "abi": [
    {
      "inputs": [
        {
          "internalType": "address",
          "name": "_intentRegistry",
          "type": "address"
        }
      ],
      "stateMutability": "nonpayable",
      "type": "constructor"
    },
    {
      "anonymous": false,
      "inputs": [
        {
          "indexed": false,
          "internalType": "uint256",
          "name": "oldDuration",
          "type": "uint256"
        },
        {
          "indexed": false,
          "internalType": "uint256",
          "name": "newDuration",
          "type": "uint256"
        }
      ],
      "name": "AuctionDurationUpdated",
      "type": "event"
    },
    {
      "anonymous": false,
      "inputs": [
        {
          "indexed": true,
          "internalType": "bytes32",
          "name": "batchId",
          "type": "bytes32"
        }
      ],
      "name": "BatchCancelled",
      "type": "event"
    },
    {
      "anonymous": false,
      "inputs": [
        {
          "indexed": true,
          "internalType": "bytes32",
          "name": "batchId",
          "type": "bytes32"
        },
        {
          "indexed": false,
          "internalType": "bytes32[]",
          "name": "intentIds",
          "type": "bytes32[]"
        },
        {
          "indexed": false,
          "internalType": "uint256",
          "name": "auctionEndTime",
          "type": "uint256"
        }
      ],
      "name": "BatchCreated",
      "type": "event"
    },
    {
      "anonymous": false,
      "inputs": [
        {
          "indexed": true,
          "internalType": "bytes32",
          "name": "batchId",
          "type": "bytes32"
        },
        {
          "indexed": true,
          "internalType": "address",
          "name": "winningSolver",
          "type": "address"
        },
        {
          "indexed": false,
          "internalType": "uint256",
          "name": "winningBid",
          "type": "uint256"
        }
      ],
      "name": "BatchSettled",
      "type": "event"
    },
    {
      "anonymous": false,
      "inputs": [
        {
          "indexed": true,
          "internalType": "bytes32",
          "name": "batchId",
          "type": "bytes32"
        },
        {
          "indexed": true,
          "internalType": "address",
          "name": "solver",
          "type": "address"
        },
        {
          "indexed": false,
          "internalType": "uint256",
          "name": "priceImprovementBps",
          "type": "uint256"
        }
      ],
      "name": "BidSubmitted",
      "type": "event"
    },
    {
      "anonymous": false,
      "inputs": [
        {
          "indexed": false,
          "internalType": "uint256",
          "name": "oldSize",
          "type": "uint256"
        },
        {
          "indexed": false,
          "internalType": "uint256",
          "name": "newSize",
          "type": "uint256"
        }
      ],
      "name": "MaxBatchSizeUpdated",
      "type": "event"
    },
    {
      "anonymous": false,
      "inputs": [
        {
          "indexed": false,
          "internalType": "uint256",
          "name": "oldMin",
          "type": "uint256"
        },
        {
          "indexed": false,
          "internalType": "uint256",
          "name": "newMin",
          "type": "uint256"
        }
      ],
      "name": "MinPriceImprovementUpdated",
      "type": "event"
    },
    {
      "anonymous": false,
      "inputs": [
        {
          "indexed": true,
          "internalType": "address",
          "name": "previousOwner",
          "type": "address"
        },
        {
          "indexed": true,
          "internalType": "address",
          "name": "newOwner",
          "type": "address"
        }
      ],
      "name": "OwnershipTransferred",
      "type": "event"
    },
    {
      "anonymous": false,
      "inputs": [
        {
          "indexed": false,
          "internalType": "address",
          "name": "account",
          "type": "address"
        }
      ],
      "name": "Paused",
      "type": "event"
    },
    {
      "anonymous": false,
      "inputs": [
        {
          "indexed": false,
          "internalType": "address",
          "name": "account",
          "type": "address"
        }
      ],
      "name": "Unpaused",
      "type": "event"
    },
    {
      "inputs": [],
      "name": "auctionDuration",
      "outputs": [
        {
          "internalType": "uint256",
          "name": "",
          "type": "uint256"
        }
      ],
      "stateMutability": "view",
      "type": "function"
    },
    {
      "inputs": [
        {
          "internalType": "bytes32",
          "name": "",
          "type": "bytes32"
        },
        {
          "internalType": "uint256",
          "name": "",
          "type": "uint256"
        }
      ],
      "name": "batchBids",
      "outputs": [
        {
          "internalType": "address",
          "name": "solver",
          "type": "address"
        },
        {
          "internalType": "uint256",
          "name": "priceImprovementBps",
          "type": "uint256"
        },
        {
          "internalType": "bytes",
          "name": "bidProof",
          "type": "bytes"
        }
      ],
      "stateMutability": "view",
      "type": "function"
    },
    {
      "inputs": [
        {
          "internalType": "bytes32",
          "name": "",
          "type": "bytes32"
        }
      ],
      "name": "batches",
      "outputs": [
        {
          "internalType": "bytes32",
          "name": "batchId",
          "type": "bytes32"
        },
        {
          "internalType": "address",
          "name": "winningSolver",
          "type": "address"
        },
        {
          "internalType": "uint256",
          "name": "winningBid",
          "type": "uint256"
        },
        {
          "internalType": "uint256",
          "name": "createdAt",
          "type": "uint256"
        },
        {
          "internalType": "uint256",
          "name": "auctionEndTime",
          "type": "uint256"
        },
        {
          "internalType": "enum BatchAuctionSettlement.BatchStatus",
          "name": "status",
          "type": "uint8"
        }
      ],
      "stateMutability": "view",
      "type": "function"
    },
    {
      "inputs": [
        {
          "internalType": "bytes32",
          "name": "batchId",
          "type": "bytes32"
        }
      ],
      "name": "cancelBatch",
      "outputs": [],
      "stateMutability": "nonpayable",
      "type": "function"
    },
    {
      "inputs": [
        {
          "internalType": "bytes32",
          "name": "batchId",
          "type": "bytes32"
        },
        {
          "internalType": "bytes32[]",
          "name": "intentIds",
          "type": "bytes32[]"
        }
      ],
      "name": "createBatch",
      "outputs": [],
      "stateMutability": "nonpayable",
      "type": "function"
    },
    {
      "inputs": [
        {
          "internalType": "bytes32",
          "name": "batchId",
          "type": "bytes32"
        }
      ],
      "name": "getBatchBids",
      "outputs": [
        {
          "components": [
            {
              "internalType": "address",
              "name": "solver",
              "type": "address"
            },
            {
              "internalType": "uint256",
              "name": "priceImprovementBps",
              "type": "uint256"
            },
            {
              "internalType": "bytes",
              "name": "bidProof",
              "type": "bytes"
            }
          ],
          "internalType": "struct BatchAuctionSettlement.Bid[]",
          "name": "",
          "type": "tuple[]"
        }
      ],
      "stateMutability": "view",
      "type": "function"
    },
    {
      "inputs": [
        {
          "internalType": "bytes32",
          "name": "batchId",
          "type": "bytes32"
        }
      ],
      "name": "getBatchDetails",
      "outputs": [
        {
          "internalType": "bytes32[]",
          "name": "intentIds",
          "type": "bytes32[]"
        },
        {
          "internalType": "address[]",
          "name": "tokens",
          "type": "address[]"
        },
        {
          "internalType": "uint256[]",
          "name": "amounts",
          "type": "uint256[]"
        },
        {
          "internalType": "uint256",
          "name": "auctionEndTime",
          "type": "uint256"
        },
        {
          "internalType": "enum BatchAuctionSettlement.BatchStatus",
          "name": "status",
          "type": "uint8"
        }
      ],
      "stateMutability": "view",
      "type": "function"
    },
    {
      "inputs": [
        {
          "internalType": "bytes32",
          "name": "batchId",
          "type": "bytes32"
        }
      ],
      "name": "getBatchIntentCount",
      "outputs": [
        {
          "internalType": "uint256",
          "name": "",
          "type": "uint256"
        }
      ],
      "stateMutability": "view",
      "type": "function"
    },
    {
      "inputs": [
        {
          "internalType": "bytes32",
          "name": "batchId",
          "type": "bytes32"
        }
      ],
      "name": "getBatchStatus",
      "outputs": [
        {
          "internalType": "enum BatchAuctionSettlement.BatchStatus",
          "name": "",
          "type": "uint8"
        }
      ],
      "stateMutability": "view",
      "type": "function"
    },
    {
      "inputs": [
        {
          "internalType": "bytes32",
          "name": "",
          "type": "bytes32"
        },
        {
          "internalType": "address",
          "name": "",
          "type": "address"
        }
      ],
      "name": "hasBid",
      "outputs": [
        {
          "internalType": "bool",
          "name": "",
          "type": "bool"
        }
      ],
      "stateMutability": "view",
      "type": "function"
    },
    {
      "inputs": [],
      "name": "intentRegistry",
      "outputs": [
        {
          "internalType": "contract IntentRegistry",
          "name": "",
          "type": "address"
        }
      ],
      "stateMutability": "view",
      "type": "function"
    },
    {
      "inputs": [],
      "name": "maxBatchSize",
      "outputs": [
        {
          "internalType": "uint256",
          "name": "",
          "type": "uint256"
        }
      ],
      "stateMutability": "view",
      "type": "function"
    },
    {
      "inputs": [],
      "name": "minPriceImprovementBps",
      "outputs": [
        {
          "internalType": "uint256",
          "name": "",
          "type": "uint256"
        }
      ],
      "stateMutability": "view",
      "type": "function"
    },
    {
      "inputs": [],
      "name": "owner",
      "outputs": [
        {
          "internalType": "address",
          "name": "",
          "type": "address"
        }
      ],
      "stateMutability": "view",
      "type": "function"
    },
    {
      "inputs": [],
      "name": "paused",
      "outputs": [
        {
          "internalType": "bool",
          "name": "",
          "type": "bool"
        }
      ],
      "stateMutability": "view",
      "type": "function"
    },
    {
      "inputs": [],
      "name": "renounceOwnership",
      "outputs": [],
      "stateMutability": "nonpayable",
      "type": "function"
    },
    {
      "inputs": [
        {
          "internalType": "uint256",
          "name": "_duration",
          "type": "uint256"
        }
      ],
      "name": "setAuctionDuration",
      "outputs": [],
      "stateMutability": "nonpayable",
      "type": "function"
    },
    {
      "inputs": [
        {
          "internalType": "address",
          "name": "_registry",
          "type": "address"
        }
      ],
      "name": "setIntentRegistry",
      "outputs": [],
      "stateMutability": "nonpayable",
      "type": "function"
    },
    {
      "inputs": [
        {
          "internalType": "uint256",
          "name": "_size",
          "type": "uint256"
        }
      ],
      "name": "setMaxBatchSize",
      "outputs": [],
      "stateMutability": "nonpayable",
      "type": "function"
    },
    {
      "inputs": [
        {
          "internalType": "uint256",
          "name": "_minBps",
          "type": "uint256"
        }
      ],
      "name": "setMinPriceImprovement",
      "outputs": [],
      "stateMutability": "nonpayable",
      "type": "function"
    },
    {
      "inputs": [
        {
          "internalType": "bytes32",
          "name": "batchId",
          "type": "bytes32"
        }
      ],
      "name": "settleBatch",
      "outputs": [],
      "stateMutability": "nonpayable",
      "type": "function"
    },
    {
      "inputs": [
        {
          "internalType": "bytes32",
          "name": "batchId",
          "type": "bytes32"
        },
        {
          "internalType": "uint256",
          "name": "priceImprovementBps",
          "type": "uint256"
        },
        {
          "internalType": "bytes",
          "name": "bidProof",
          "type": "bytes"
        }
      ],
      "name": "submitBid",
      "outputs": [],
      "stateMutability": "nonpayable",
      "type": "function"
    },
    {
      "inputs": [],
      "name": "totalBatches",
      "outputs": [
        {
          "internalType": "uint256",
          "name": "",
          "type": "uint256"
        }
      ],
      "stateMutability": "view",
      "type": "function"
    },
    {
      "inputs": [
        {
          "internalType": "address",
          "name": "newOwner",
          "type": "address"
        }
      ],
      "name": "transferOwnership",
      "outputs": [],
      "stateMutability": "nonpayable",
      "type": "function"
    }
  ],
  "bytecode": "0x60803461011857601f611d3638819003918201601f19168301916001600160401b0383118484101761011d5780849260209460405283398101031261011857516001600160a01b03808216918290036101185760005460405191339082167f8be0079c531659141344cd1fd0a4f28419497f9722a3daafe3b4186f6b6457e0600080a36001600160a81b0319163360ff60a01b1916176000556001805561012c600755600a600855603260095581156100d65750600280546001600160a01b031916919091179055604051611c0290816101348239f35b62461bcd60e51b815260206004820152601b60248201527f426174636841756374696f6e3a207a65726f20726567697374727900000000006044820152606490fd5b600080fd5b634e487b7160e01b600052604160045260246000fdfe608080604052600436101561001357600080fd5b60003560e01c9081630cbf54c8146117915750806322ecb9a51461171d5780632913daa0146116ff57806329a0f5dc146116d05780632b26a6bf14611630578063346c2b9d146115de578063421526d2146115b5578063507245da146114d257806356ebc9ab146113d65780635c975abb146113b05780636754c31514610d1057806369ff6abb14610cf2578063715018a614610c995780638da5cb5b14610c705780639a80bb2f14610c39578063a497e67414610b99578063a670485b14610b45578063b21a7b3e1461096c578063b926550214610562578063c81e25ab146104ec578063eeb8f2b51461029b578063ef5120f31461020e578063f2fde38b1461014a5763f6ef10401461012757600080fd5b34610145576000366003190112610145576020600854604051908152f35b600080fd5b346101455760203660031901126101455761016361193c565b61016b61195f565b6001600160a01b039081169081156101ba57600054826001600160601b0360a01b821617600055167f8be0079c531659141344cd1fd0a4f28419497f9722a3daafe3b4186f6b6457e0600080a3005b60405162461bcd60e51b815260206004820152602660248201527f4f776e61626c653a206e6577206f776e657220697320746865207a65726f206160448201526564647265737360d01b6064820152608490fd5b346101455760203660031901126101455761022761193c565b61022f61195f565b6001600160a01b03168015610256576001600160601b0360a01b6002541617600255600080f35b60405162461bcd60e51b815260206004820152601b60248201527f426174636841756374696f6e3a207a65726f20726567697374727900000000006044820152606490fd5b346101455760208060031936011261014557600435906102b9611b3b565b6102c1611a63565b81600052600381526102dc6006604060002001541515611aaa565b8160005260038152604060002091600883019182549260ff841660048110156104d6576103099015611af6565b60078501544211156104915782600052600482526040600020948554958615610454576000908060005260019788866000200154895b82811061041a5750505061035c91610356916117ac565b50611b91565b80516004830180546001600160a01b0319166001600160a01b039283161790558482018051600585015560ff199097166002179093559086015460005b8181106103d5575050907f5f1e6f19944096372d388dd55303797bd73606e96e75109fb4db3a6129ba19f6929151169351604051908152a38055005b6040519085820182811067ffffffffffffffff821117610404576103ff92600091604052526119cf565b610399565b634e487b7160e01b600052604160045260246000fd5b818b61042683876117ac565b5001541161043d575b610438906119cf565b61033f565b9350508861044b84846117ac565b5001548361042f565b60405162461bcd60e51b8152600481018590526015602482015274426174636841756374696f6e3a206e6f206269647360581b6044820152606490fd5b60405162461bcd60e51b815260048101839052601f60248201527f426174636841756374696f6e3a2061756374696f6e206e6f7420656e646564006044820152606490fd5b634e487b7160e01b600052602160045260246000fd5b3461014557602036600319011261014557600435600052600360205260c0604060002061056081549160018060a01b0360048201541690600581015460068201549060ff600860078501549401541693604051968752602087015260408601526060850152608084015260a0830190611952565bf35b346101455760603660031901126101455760443560248035906004359067ffffffffffffffff80851161014557366023860112156101455784600401358181116101455736838288010111610145576105b9611b3b565b6105c1611a63565b83600052602091600383526105df6006604060002001541515611aaa565b846000526003835260ff600860406000200154166004811015610957576106069015611af6565b846000526003835260076040600020015442116109135760085486106108cf578460005260058352604060002033600052835260ff6040600020541661088b57846000526004835260406000209660405161066081611818565b33815284810188815260008660405196808a601f1997610687858a601f860116018c611834565b828b5201838a013787010152604082019485528954600160401b811015610876576106b99060019b8c820181556117ac565b929092610861575182546001600160a01b0319166001600160a01b03919091161782555189820155925180519095600294909401939092831161084d575061070183546117de565b601f8111610812575b508390601f8311600114610793575081907f50fe806ad7090c0b4c89850edc7f5f0619df0b894aa98735d1d54c60548bf28695600092610788575b5050600019600383901b1c191690871b1790555b8260005260058152604060002033600052815260406000208560ff198254161790556040519384523393a38055005b015190508880610745565b6000848152858120918416968a9493915b8881106107fb5750837f50fe806ad7090c0b4c89850edc7f5f0619df0b894aa98735d1d54c60548bf28698106107e2575b505050811b019055610759565b015160001960f88460031b161c191690558880806107d5565b8282015184558b95909301929187019187016107a4565b61083d908460005285600020601f850160051c810191878610610843575b601f0160051c0190611a29565b8861070a565b9091508190610830565b634e487b7160e01b60009081526041600452fd5b87634e487b7160e01b60005260006004526000fd5b87634e487b7160e01b60005260416004526000fd5b60405162461bcd60e51b8152600481018490526019818601527f426174636841756374696f6e3a20616c726561647920626964000000000000006044820152606490fd5b60405162461bcd60e51b8152600481018490526019818601527f426174636841756374696f6e3a2062696420746f6f206c6f77000000000000006044820152606490fd5b60405162461bcd60e51b815260048101849052601b818601527f426174636841756374696f6e3a2061756374696f6e20656e64656400000000006044820152606490fd5b84634e487b7160e01b60005260216004526000fd5b346101455760208060031936011261014557600435600052600381526040600020600191828201926002830192600381019260ff60086007840154930154169260405195868389549182815201908199600052846000209060005b818110610b3257505050876109dd910388611834565b60405197888483549182815201908193600052856000209060005b818110610b165750505089610a0e91038a611834565b60405190818589549182815201908199600052866000209060005b818110610b035750505082610a3f910383611834565b604051998a9960a08b019060a08c525180915260c08b01929060005b818110610aed575050508982038a87015251808252908501929060005b818110610ace57505050878203604089015251808252908301959260005b828110610ab857888089610ab48a8a60608501526080840190611952565b0390f35b8451885289985096810196938101938301610a96565b82516001600160a01b031685528b9a5093860193918601918501610a78565b825185528d9c5093880193918801918701610a5b565b8254845292880192918701918701610a29565b82546001600160a01b03168452928701929186019186016109f8565b82548452928601929185019185016109c7565b34610145576020366003190112610145577f0fa21c30e8d849e16a5fb9b1d203a3a8b1db8db3e63c5ac85c06728b88a82a016040600435610b8461195f565b600854908060085582519182526020820152a1005b3461014557602036600319011261014557600435610bb561195f565b8015610bf45760407f9702db1e67fa6b64b8288101859f3b327a978f15d66e12ad769e5bbf30814d2891600754908060075582519182526020820152a1005b60405162461bcd60e51b815260206004820152601b60248201527f426174636841756374696f6e3a207a65726f206475726174696f6e00000000006044820152606490fd5b34610145576020366003190112610145576004356000526003602052602060ff600860406000200154166105606040518092611952565b34610145576000366003190112610145576000546040516001600160a01b039091168152602090f35b3461014557600036600319011261014557610cb261195f565b600080546001600160a01b0319811682556001600160a01b03167f8be0079c531659141344cd1fd0a4f28419497f9722a3daafe3b4186f6b6457e08280a3005b34610145576000366003190112610145576020600654604051908152f35b346101455760403660031901126101455767ffffffffffffffff60243511610145573660236024350112156101455767ffffffffffffffff60243560040135116101455736602480356004013560051b813501011161014557610d7161195f565b610d79611a63565b6004351561136b5760243560040135156113265760095460243560040135116112e157600435600052600360205260066040600020015461129c57610dc3602435600401356119b7565b610dd06040519182611834565b60046024350135808252601f19908190610de9906119b7565b01366020840137610dff602435600401356119b7565b90610e0d6040519283611834565b60046024350135808352610e20906119b7565b013660208301376002546001600160a01b031660005b602435600401358110611166575050610e5160075442611a1c565b604051918261012081011067ffffffffffffffff610120850111176104045761012083016040526004358352610e8c602435600401356119b7565b93610e9a6040519586611834565b6024803560048101358752019485602082015b602480356004013560051b81350101821061115657505060208501526040840152606083015260006080830152600060a08301524260c083015260e082015260006101008201526004356000526003602052604060002081518155602082015180519067ffffffffffffffff821161040457600160401b8211610404576001830154826001850155808310611129575b5060200160018301600052602060002060005b8381106111155750505050604082015180519067ffffffffffffffff821161040457600160401b82116104045760206002840191610f9384845481865585611a40565b0190600052602060002060005b8381106110f85750505050606082015180519067ffffffffffffffff821161040457600160401b82116104045760206003840191610fe384845481865585611a40565b0190600052602060002060005b8381106110e45786866101006008886004810160018060a01b036080860151166001600160601b0360a01b82541617905560a0840151600582015560c0840151600682015560e084015160078201550191015160048110156104d65760ff801983541691161790556110636006546119cf565b60065561107260075442611a1c565b604080518181526004602435013591810182905292906001600160fb1b0310610145576024356004013560051b90606084013760208201527fd2270145d952425007fc2b264c7479809e47fe61eac4a1d3690ddf664e1f42a2600435916060816024356004013560051b8101030190a2005b600190602084519401938184015501610ff0565b82516001600160a01b031681830155602090920191600101610fa0565b600190602084519401938184015501610f50565b600184016000526020600020908382015b818301811061114a575050610f3d565b6000815560010161113a565b8135815260209182019101610ead565b60405190634810abc560e11b825260248160051b813501013560048301526101608083602481875afa801561129057600093600092600092611220575b505042116111db576111d6926111b98388611a08565b6001600160a01b0390911690526111d08286611a08565b526119cf565b610e36565b60405162461bcd60e51b815260206004820152601c60248201527f426174636841756374696f6e3a20696e74656e742065787069726564000000006044820152606490fd5b925093505082813d8311611289575b6112398183611834565b810103126101455761124d602083016119f4565b5061125a604083016119f4565b50611267606083016119f4565b91608081015192600460e060c0840151930151101561014557929087806111a3565b503d61122f565b6040513d6000823e3d90fd5b60405162461bcd60e51b815260206004820152601a60248201527f426174636841756374696f6e3a206261746368206578697374730000000000006044820152606490fd5b60405162461bcd60e51b815260206004820152601d60248201527f426174636841756374696f6e3a20626174636820746f6f206c617267650000006044820152606490fd5b60405162461bcd60e51b815260206004820152601960248201527f426174636841756374696f6e3a20656d707479206261746368000000000000006044820152606490fd5b60405162461bcd60e51b815260206004820152601b60248201527f426174636841756374696f6e3a207a65726f20626174636820696400000000006044820152606490fd5b3461014557600036600319011261014557602060ff60005460a01c166040519015158152f35b34610145576020806003193601126101455760043560005260048152604060002090815491611404836119b7565b926114126040519485611834565b8084528284018092600052836000206000915b8383106114af5750505050604051918083019381845251809452604083019360408160051b85010192916000955b8287106114605785850386f35b90919293828061149f600193603f198a820301865260408951868060a01b038151168352848101518584015201519060609081604082015201906118fc565b9601920196019592919092611453565b6003866001926114c1859a999a611b91565b815201920192019190959495611425565b34610145576020366003190112610145576004356114ee61195f565b80600052600360205261150a6006604060002001541515611aaa565b8060005260036020526008604060002001805460ff811660048110156104d6576115349015611af6565b8260005260046020526040600020546115775760ff191660031790557fac01c50ce693d1fe783ba60ec0f82ab99f65e62446fffb028e3bd639cd5684d4600080a2005b60405162461bcd60e51b8152602060048201526016602482015275426174636841756374696f6e3a20686173206269647360501b6044820152606490fd5b34610145576000366003190112610145576002546040516001600160a01b039091168152602090f35b34610145576040366003190112610145576024356001600160a01b03811690819003610145576004356000526005602052604060002090600052602052602060ff604060002054166040519015158152f35b346101455760203660031901126101455760043561164c61195f565b801561168b5760407f6b141d34195f1cbfa2080571bebbe19ad6d201cc0d1d53c70550795d14a4be8391600954908060095582519182526020820152a1005b60405162461bcd60e51b815260206004820152601760248201527f426174636841756374696f6e3a207a65726f2073697a650000000000000000006044820152606490fd5b346101455760203660031901126101455760043560005260036020526020600160406000200154604051908152f35b34610145576000366003190112610145576020600954604051908152f35b34610145576040366003190112610145576024356004356000526004602052604060002090815481101561014557611754916117ac565b5060018060a01b03815416610ab4611773600260018501549401611856565b604051938493845260208401526060604084015260608301906118fc565b34610145576000366003190112610145576020906007548152f35b80548210156117c8576000526003602060002091020190600090565b634e487b7160e01b600052603260045260246000fd5b90600182811c9216801561180e575b60208310146117f857565b634e487b7160e01b600052602260045260246000fd5b91607f16916117ed565b6060810190811067ffffffffffffffff82111761040457604052565b90601f8019910116810190811067ffffffffffffffff82111761040457604052565b906040519182600082549261186a846117de565b9081845260019485811690816000146118d95750600114611896575b505061189492500383611834565b565b9093915060005260209081600020936000915b8183106118c157505061189493508201013880611886565b855488840185015294850194879450918301916118a9565b91505061189494506020925060ff191682840152151560051b8201013880611886565b919082519283825260005b848110611928575050826000602080949584010152601f8019910116010190565b602081830181015184830182015201611907565b600435906001600160a01b038216820361014557565b9060048210156104d65752565b6000546001600160a01b0316330361197357565b606460405162461bcd60e51b815260206004820152602060248201527f4f776e61626c653a2063616c6c6572206973206e6f7420746865206f776e65726044820152fd5b67ffffffffffffffff81116104045760051b60200190565b60001981146119de5760010190565b634e487b7160e01b600052601160045260246000fd5b51906001600160a01b038216820361014557565b80518210156117c85760209160051b010190565b919082018092116119de57565b818110611a34575050565b60008155600101611a29565b91818110611a4d57505050565b6118949260005260206000209182019101611a29565b60ff60005460a01c16611a7257565b60405162461bcd60e51b815260206004820152601060248201526f14185d5cd8589b194e881c185d5cd95960821b6044820152606490fd5b15611ab157565b60405162461bcd60e51b815260206004820152601d60248201527f426174636841756374696f6e3a206261746368206e6f7420666f756e640000006044820152606490fd5b15611afd57565b60405162461bcd60e51b81526020600482015260166024820152752130ba31b420bab1ba34b7b71d103737ba1037b832b760511b6044820152606490fd5b600260015414611b4c576002600155565b60405162461bcd60e51b815260206004820152601f60248201527f5265656e7472616e637947756172643a207265656e7472616e742063616c6c006044820152606490fd5b90604051611b9e81611818565b82546001600160a01b0316815260018301546020820152918290604090611bc790600201611856565b91015256fea264697066735822122042a76e978d76d45a71b765e11bbb1dfa7e88014711494cd97310e083d7bedf2a64736f6c63430008130033",
  "linkReferences": {},
  "deployedLinkReferences": {}
}