{
  "_format": "hh-sol-artifact-1",
  "contractName": "Escrow",
  "sourceName": "contracts/Escrow.sol",
  "abi": [
    {
      "inputs": [
        {
          "internalType": "address",
          "name": "_treasury",
          "type": "address"
        },
        {
          "internalType": "uint256",
          "name": "_protocolFeeBps",
          "type": "uint256"
        },
        {
          "internalType": "address",
          "name": "_emergencyRecipient",
          "type": "address"
        }
      ],
      "stateMutability": "nonpayable",
      "type": "constructor"
    },
    {
      "anonymous": false,
      "inputs": [],
      "name": "EmergencyWithdrawalCancelled",
      "type": "event"
    },
    {
      "anonymous": false,
      "inputs": [
        {
          "indexed": true,
          "internalType": "address",
          "name": "token",
          "type": "address"
        },
        {
          "indexed": false,
          "internalType": "uint256",
          "name": "amount",
          "type": "uint256"
        },
        {
          "indexed": false,
          "internalType": "address",
          "name": "recipient",
          "type": "address"
        }
      ],
      "name": "EmergencyWithdrawalExecuted",
      "type": "event"
    },
    {
      "anonymous": false,
      "inputs": [
        {
          "indexed": true,
          "internalType": "address",
          "name": "token",
          "type": "address"
        },
        {
          "indexed": false,
          "internalType": "uint256",
          "name": "amount",
          "type": "uint256"
        },
        {
          "indexed": false,
          "internalType": "address",
          "name": "recipient",
          "type": "address"
        },
        {
          "indexed": false,
          "internalType": "uint256",
          "name": "executeAfter",
          "type": "uint256"
        }
      ],
      "name": "EmergencyWithdrawalProposed",
      "type": "event"
    },
    {
      "anonymous": false,
      "inputs": [
        {
          "indexed": true,
          "internalType": "address",
          "name": "previousOwner",
          "type": "address"
        },
        {
          "indexed": true,
          "internalType": "address",
          "name": "newOwner",
          "type": "address"
        }
      ],
      "name": "OwnershipTransferred",
      "type": "event"
    },
    {
      "anonymous": false,
      "inputs": [
        {
          "indexed": false,
          "internalType": "address",
          "name": "account",
          "type": "address"
        }
      ],
      "name": "Paused",
      "type": "event"
    },
    {
      "anonymous": false,
      "inputs": [
        {
          "indexed": false,
          "internalType": "uint256",
          "name": "oldFee",
          "type": "uint256"
        },
        {
          "indexed": false,
          "internalType": "uint256",
          "name": "newFee",
          "type": "uint256"
        }
      ],
      "name": "ProtocolFeeUpdated",
      "type": "event"
    },
    {
      "anonymous": false,
      "inputs": [
        {
          "indexed": true,
          "internalType": "address",
          "name": "oldRegistry",
          "type": "address"
        },
        {
          "indexed": true,
          "internalType": "address",
          "name": "newRegistry",
          "type": "address"
        }
      ],
      "name": "RegistryUpdated",
      "type": "event"
    },
    {
      "anonymous": false,
      "inputs": [
        {
          "indexed": true,
          "internalType": "address",
          "name": "token",
          "type": "address"
        }
      ],
      "name": "SupportedTokenAdded",
      "type": "event"
    },
    {
      "anonymous": false,
      "inputs": [
        {
          "indexed": true,
          "internalType": "address",
          "name": "token",
          "type": "address"
        }
      ],
      "name": "SupportedTokenRemoved",
      "type": "event"
    },
    {
      "anonymous": false,
      "inputs": [
        {
          "indexed": true,
          "internalType": "address",
          "name": "token",
          "type": "address"
        },
        {
          "indexed": true,
          "internalType": "address",
          "name": "user",
          "type": "address"
        },
        {
          "indexed": true,
          "internalType": "bytes32",
          "name": "intentId",
          "type": "bytes32"
        },
        {
          "indexed": false,
          "internalType": "uint256",
          "name": "amount",
          "type": "uint256"
        }
      ],
      "name": "TokensLocked",
      "type": "event"
    },
    {
      "anonymous": false,
      "inputs": [
        {
          "indexed": true,
          "internalType": "address",
          "name": "token",
          "type": "address"
        },
        {
          "indexed": true,
          "internalType": "address",
          "name": "user",
          "type": "address"
        },
        {
          "indexed": true,
          "internalType": "bytes32",
          "name": "intentId",
          "type": "bytes32"
        },
        {
          "indexed": false,
          "internalType": "uint256",
          "name": "amount",
          "type": "uint256"
        }
      ],
      "name": "TokensRefunded",
      "type": "event"
    },
    {
      "anonymous": false,
      "inputs": [
        {
          "indexed": true,
          "internalType": "address",
          "name": "token",
          "type": "address"
        },
        {
          "indexed": true,
          "internalType": "address",
          "name": "recipient",
          "type": "address"
        },
        {
          "indexed": true,
          "internalType": "bytes32",
          "name": "intentId",
          "type": "bytes32"
        },
        {
          "indexed": false,
          "internalType": "uint256",
          "name": "amount",
          "type": "uint256"
        },
        {
          "indexed": false,
          "internalType": "uint256",
          "name": "protocolFee",
          "type": "uint256"
        }
      ],
      "name": "TokensReleased",
      "type": "event"
    },
    {
      "anonymous": false,
      "inputs": [
        {
          "indexed": true,
          "internalType": "address",
          "name": "oldTreasury",
          "type": "address"
        },
        {
          "indexed": true,
          "internalType": "address",
          "name": "newTreasury",
          "type": "address"
        }
      ],
      "name": "TreasuryUpdated",
      "type": "event"
    },
    {
      "anonymous": false,
      "inputs": [
        {
          "indexed": false,
          "internalType": "address",
          "name": "account",
          "type": "address"
        }
      ],
      "name": "Unpaused",
      "type": "event"
    },
    {
      "inputs": [],
      "name": "EMERGENCY_TIMELOCK",
      "outputs": [
        {
          "internalType": "uint256",
          "name": "",
          "type": "uint256"
        }
      ],
      "stateMutability": "view",
      "type": "function"
    },
    {
      "inputs": [
        {
          "internalType": "address",
          "name": "token",
          "type": "address"
        }
      ],
      "name": "addSupportedToken",
      "outputs": [],
      "stateMutability": "nonpayable",
      "type": "function"
    },
    {
      "inputs": [
        {
          "internalType": "address",
          "name": "",
          "type": "address"
        },
        {
          "internalType": "address",
          "name": "",
          "type": "address"
        },
        {
          "internalType": "bytes32",
          "name": "",
          "type": "bytes32"
        }
      ],
      "name": "balances",
      "outputs": [
        {
          "internalType": "uint256",
          "name": "",
          "type": "uint256"
        }
      ],
      "stateMutability": "view",
      "type": "function"
    },
    {
      "inputs": [
        {
          "internalType": "uint256",
          "name": "amount",
          "type": "uint256"
        }
      ],
      "name": "calculateProtocolFee",
      "outputs": [
        {
          "internalType": "uint256",
          "name": "",
          "type": "uint256"
        }
      ],
      "stateMutability": "view",
      "type": "function"
    },
    {
      "inputs": [],
      "name": "cancelEmergencyWithdrawal",
      "outputs": [],
      "stateMutability": "nonpayable",
      "type": "function"
    },
    {
      "inputs": [],
      "name": "emergencyRecipient",
      "outputs": [
        {
          "internalType": "address",
          "name": "",
          "type": "address"
        }
      ],
      "stateMutability": "view",
      "type": "function"
    },
    {
      "inputs": [],
      "name": "executeEmergencyWithdrawal",
      "outputs": [],
      "stateMutability": "nonpayable",
      "type": "function"
    },
    {
      "inputs": [
        {
          "internalType": "address",
          "name": "token",
          "type": "address"
        },
        {
          "internalType": "address",
          "name": "user",
          "type": "address"
        },
        {
          "internalType": "bytes32",
          "name": "intentId",
          "type": "bytes32"
        }
      ],
      "name": "getBalance",
      "outputs": [
        {
          "internalType": "uint256",
          "name": "",
          "type": "uint256"
        }
      ],
      "stateMutability": "view",
      "type": "function"
    },
    {
      "inputs": [
        {
          "internalType": "address",
          "name": "token",
          "type": "address"
        }
      ],
      "name": "getTotalBalance",
      "outputs": [
        {
          "internalType": "uint256",
          "name": "",
          "type": "uint256"
        }
      ],
      "stateMutability": "view",
      "type": "function"
    },
    {
      "inputs": [
        {
          "internalType": "bytes32",
          "name": "",
          "type": "bytes32"
        }
      ],
      "name": "intentToUser",
      "outputs": [
        {
          "internalType": "address",
          "name": "",
          "type": "address"
        }
      ],
      "stateMutability": "view",
      "type": "function"
    },
    {
      "inputs": [
        {
          "internalType": "address",
          "name": "token",
          "type": "address"
        }
      ],
      "name": "isTokenSupported",
      "outputs": [
        {
          "internalType": "bool",
          "name": "",
          "type": "bool"
        }
      ],
      "stateMutability": "view",
      "type": "function"
    },
    {
      "inputs": [
        {
          "internalType": "address",
          "name": "token",
          "type": "address"
        },
        {
          "internalType": "address",
          "name": "user",
          "type": "address"
        },
        {
          "internalType": "uint256",
          "name": "amount",
          "type": "uint256"
        },
        {
          "internalType": "bytes32",
          "name": "intentId",
          "type": "bytes32"
        }
      ],
      "name": "lockTokens",
      "outputs": [],
      "stateMutability": "nonpayable",
      "type": "function"
    },
    {
      "inputs": [],
      "name": "owner",
      "outputs": [
        {
          "internalType": "address",
          "name": "",
          "type": "address"
        }
      ],
      "stateMutability": "view",
      "type": "function"
    },
    {
      "inputs": [],
      "name": "pause",
      "outputs": [],
      "stateMutability": "nonpayable",
      "type": "function"
    },
    {
      "inputs": [],
      "name": "paused",
      "outputs": [
        {
          "internalType": "bool",
          "name": "",
          "type": "bool"
        }
      ],
      "stateMutability": "view",
      "type": "function"
    },
    {
      "inputs": [],
      "name": "pendingEmergencyWithdrawal",
      "outputs": [
        {
          "internalType": "address",
          "name": "token",
          "type": "address"
        },
        {
          "internalType": "uint256",
          "name": "amount",
          "type": "uint256"
        },
        {
          "internalType": "address",
          "name": "recipient",
          "type": "address"
        },
        {
          "internalType": "uint256",
          "name": "timestamp",
          "type": "uint256"
        },
        {
          "internalType": "bool",
          "name": "executed",
          "type": "bool"
        }
      ],
      "stateMutability": "view",
      "type": "function"
    },
    {
      "inputs": [
        {
          "internalType": "address",
          "name": "token",
          "type": "address"
        },
        {
          "internalType": "uint256",
          "name": "amount",
          "type": "uint256"
        }
      ],
      "name": "proposeEmergencyWithdrawal",
      "outputs": [],
      "stateMutability": "nonpayable",
      "type": "function"
    },
    {
      "inputs": [],
      "name": "protocolFeeBps",
      "outputs": [
        {
          "internalType": "uint256",
          "name": "",
          "type": "uint256"
        }
      ],
      "stateMutability": "view",
      "type": "function"
    },
    {
      "inputs": [
        {
          "internalType": "address",
          "name": "token",
          "type": "address"
        },
        {
          "internalType": "address",
          "name": "user",
          "type": "address"
        },
        {
          "internalType": "uint256",
          "name": "amount",
          "type": "uint256"
        },
        {
          "internalType": "bytes32",
          "name": "intentId",
          "type": "bytes32"
        }
      ],
      "name": "refundTokens",
      "outputs": [],
      "stateMutability": "nonpayable",
      "type": "function"
    },
    {
      "inputs": [],
      "name": "registry",
      "outputs": [
        {
          "internalType": "address",
          "name": "",
          "type": "address"
        }
      ],
      "stateMutability": "view",
      "type": "function"
    },
    {
      "inputs": [
        {
          "internalType": "address",
          "name": "token",
          "type": "address"
        },
        {
          "internalType": "address",
          "name": "recipient",
          "type": "address"
        },
        {
          "internalType": "uint256",
          "name": "amount",
          "type": "uint256"
        },
        {
          "internalType": "bytes32",
          "name": "intentId",
          "type": "bytes32"
        }
      ],
      "name": "releaseTokens",
      "outputs": [],
      "stateMutability": "nonpayable",
      "type": "function"
    },
    {
      "inputs": [
        {
          "internalType": "address",
          "name": "token",
          "type": "address"
        }
      ],
      "name": "removeSupportedToken",
      "outputs": [],
      "stateMutability": "nonpayable",
      "type": "function"
    },
    {
      "inputs": [],
      "name": "renounceOwnership",
      "outputs": [],
      "stateMutability": "nonpayable",
      "type": "function"
    },
    {
      "inputs": [
        {
          "internalType": "uint256",
          "name": "_protocolFeeBps",
          "type": "uint256"
        }
      ],
      "name": "setProtocolFee",
      "outputs": [],
      "stateMutability": "nonpayable",
      "type": "function"
    },
    {
      "inputs": [
        {
          "internalType": "address",
          "name": "_registry",
          "type": "address"
        }
      ],
      "name": "setRegistry",
      "outputs": [],
      "stateMutability": "nonpayable",
      "type": "function"
    },
    {
      "inputs": [
        {
          "internalType": "address",
          "name": "_treasury",
          "type": "address"
        }
      ],
      "name": "setTreasury",
      "outputs": [],
      "stateMutability": "nonpayable",
      "type": "function"
    },
    {
      "inputs": [
        {
          "internalType": "address",
          "name": "",
          "type": "address"
        }
      ],
      "name": "supportedTokens",
      "outputs": [
        {
          "internalType": "bool",
          "name": "",
          "type": "bool"
        }
      ],
      "stateMutability": "view",
      "type": "function"
    },
    {
      "inputs": [
        {
          "internalType": "address",
          "name": "",
          "type": "address"
        }
      ],
      "name": "totalTokenBalance",
      "outputs": [
        {
          "internalType": "uint256",
          "name": "",
          "type": "uint256"
        }
      ],
      "stateMutability": "view",
      "type": "function"
    },
    {
      "inputs": [
        {
          "internalType": "address",
          "name": "newOwner",
          "type": "address"
        }
      ],
      "name": "transferOwnership",
      "outputs": [],
      "stateMutability": "nonpayable",
      "type": "function"
    },
    {
      "inputs": [],
      "name": "treasury",
      "outputs": [
        {
          "internalType": "address",
          "name": "",
          "type": "address"
        }
      ],
      "stateMutability": "view",
      "type": "function"
    },
    {
      "inputs": [],
      "name": "unpause",
      "outputs": [],
      "stateMutability": "nonpayable",
      "type": "function"
    }
  ],
  "bytecode": "0x6080346200014c57601f620018c538819003918201601f19168301916001600160401b0383118484101762000151578084926060946040528339810103126200014c576200004d8162000167565b6200006060406020840151930162000167565b90600160005560015460018060a01b03918291338382167f8be0079c531659141344cd1fd0a4f28419497f9722a3daafe3b4186f6b6457e0600080a36001600160a81b0319163360ff60a01b1916176001551691620000c18315156200017c565b1691620000d08315156200017c565b6103e88111620001075760018060a01b03199182600354161760035560045560095416176009556040516116fb9081620001ca8239f35b60405162461bcd60e51b815260206004820152601460248201527f457363726f773a2066656520746f6f20686967680000000000000000000000006044820152606490fd5b600080fd5b634e487b7160e01b600052604160045260246000fd5b51906001600160a01b03821682036200014c57565b156200018457565b60405162461bcd60e51b815260206004820152601460248201527f457363726f773a207a65726f20616464726573730000000000000000000000006044820152606490fdfe608060408181526004918236101561001657600080fd5b600092833560e01c9182630cc24dcf1461108d575081630d26a90a14610eed578163176fbebe14610d1e57816335659fb814610d005781633f4ba83a14610c645781635c975abb14610c3d57816360a517e714610b1857816360d7442b14610afa57816361d027b314610ad157816368c4ac261461091c57816368e5aa4314610a825781636d69fcaf146109b7578163715018a61461095a57816375151b631461091c578163763191901461089c578163787dce3d146108065781637b103999146107dd57816380ec49f4146106635781638456cb59146106025781638da5cb5b146105d95781639c7c270c146105ab578163a91ee0dc14610535578163be9ee11f1461050c578163d33a10cc146104a9578163d3d3819314610481578163dd3c4a4514610440578163ea4c237c1461040d578163f0f4426014610394578163f2fde38b146102cd578163f4993bbd146101b4575063f54659921461017a57600080fd5b346101b05760203660031901126101b05760209181906001600160a01b036101a06110cb565b1681526008845220549051908152f35b5080fd5b919050346102c957826003193601126102c9576101cf611154565b600e54916101e060ff841615611679565b600d54421061028757507f0ba9f45e9291388211e3bdb9807c3559bfebe2973e09bd042c034f662fef42b290600b5460018060a01b0393600185600a541691828852600860205261023685892054851115611366565b60ff191617600e55855260086020526102538286209182546113db565b905561026b83600a541684600c5416600b54916113e8565b82600a541692600b5490600c541682519182526020820152a280f35b6020606492519162461bcd60e51b8352820152601c60248201527f457363726f773a2074696d656c6f636b206e6f742065787069726564000000006044820152fd5b8280fd5b9050346102c95760203660031901126102c9576102e86110cb565b906102f1611154565b6001600160a01b03918216928315610342575050600154826001600160601b0360a01b821617600155167f8be0079c531659141344cd1fd0a4f28419497f9722a3daafe3b4186f6b6457e08380a380f35b906020608492519162461bcd60e51b8352820152602660248201527f4f776e61626c653a206e6577206f776e657220697320746865207a65726f206160448201526564647265737360d01b6064820152fd5b833461040a57602036600319011261040a576103ae6110cb565b6103b6611154565b6001600160a01b03908116906103cd821515611244565b600354826001600160601b0360a01b821617600355167f4ab5be82436d353e61ca18726e984e561f5c1cc7c6d38b29d2553c790434705a8380a380f35b80fd5b9050346102c95760203660031901126102c95735825260066020908152918190205490516001600160a01b039091168152f35b5050346101b05780602092610454366110e6565b6001600160a01b039283168452600587528484209190921683528552828220908252845220549051908152f35b5050346101b05760203660031901126101b05760209181906001600160a01b036101a06110cb565b833461040a578060031936011261040a576104c2611154565b6104d160ff600e541615611679565b80600a5580600b5580600c5580600d5580600e557f6d8d62e658363f590d87e1dbd97ce1966352550a477bcfedecd7f3bca69ec5e78180a180f35b5050346101b057816003193601126101b05760095490516001600160a01b039091168152602090f35b833461040a57602036600319011261040a5761054f6110cb565b610557611154565b6001600160a01b039081169061056e821515611244565b600254826001600160601b0360a01b821617600255167f482b97c53e48ffa324a976e2738053e9aff6eee04d8aac63b10e19411d869b828380a380f35b82843461040a57602036600319011261040a57506127106105d1836020945490356113b2565b049051908152f35b5050346101b057816003193601126101b05760015490516001600160a01b039091168152602090f35b5050346101b057816003193601126101b05760207f62e78cea01bee320cd4e420270b5ea74000d11b0c9f74754ebdbfc544b05a25891610640611154565b6106486112c9565b6001805460ff60a01b1916600160a01b17905551338152a180f35b919050346102c957806003193601126102c95761067e6110cb565b916024359161068b611154565b600a546001600160a01b03948582166107905785169485875260086020526106b883882054861115611366565b60095416906202a30042019384421161077d5783519060a082019082821067ffffffffffffffff83111761076a57509284928960808394606099977f94b7ff42b9399c7ed52a25cb3b02b39e26812a31f5ca9bcfaff4686275fbfa9a9b99528b81528860208201528487820152878a8201520152886001600160601b0360a01b80921617600a5585600b55600c541617600c5582600d5560ff19600e5416600e5581519384526020840152820152a280f35b634e487b7160e01b8a5260419052602489fd5b634e487b7160e01b885260119052602487fd5b825162461bcd60e51b8152602081860152602160248201527f457363726f773a2070656e64696e67207769746864726177616c2065786973746044820152607360f81b6064820152608490fd5b5050346101b057816003193601126101b05760025490516001600160a01b039091168152602090f35b8383346101b05760203660031901126101b057823592610824611154565b6103e8841161086357837fb404cac19fb1cbeff98d325795b08886e3cd8fe8cb1a2f193aac66f13fb239c393948254925582519182526020820152a180f35b6020606492519162461bcd60e51b8352820152601460248201527308ae6c6e4deee7440cccaca40e8dede40d0d2ced60631b6044820152fd5b5050346101b05760203660031901126101b0576108b76110cb565b6108bf611154565b6001600160a01b03168083526007602052818320549091906108e39060ff166111f8565b81835260076020528220805460ff191690557fbea12876694c4055c71f74308f752b9027cf3d554194000a366abddfc239a3068280a280f35b5050346101b05760203660031901126101b05760209160ff9082906001600160a01b036109476110cb565b1681526007855220541690519015158152f35b833461040a578060031936011261040a57610973611154565b600180546001600160a01b0319811690915581906001600160a01b03167f8be0079c531659141344cd1fd0a4f28419497f9722a3daafe3b4186f6b6457e08280a380f35b919050346102c95760203660031901126102c9576109d36110cb565b6109db611154565b6001600160a01b0316916109f0831515611244565b828452600760205260ff8285205416610a40575081835260076020528220805460ff191660011790557fd1be2e90bd3d24839d9dd94ad871068e1f9688b02fa43f2a62c9975dfa9de2d78280a280f35b6020606492519162461bcd60e51b8352820152601f60248201527f457363726f773a20746f6b656e20616c726561647920737570706f72746564006044820152fd5b5050346101b057816003193601126101b05760a090600180831b0380600a541691600b5491600c5416600d549160ff600e54169381519586526020860152840152606083015215156080820152f35b5050346101b057816003193601126101b05760035490516001600160a01b039091168152602090f35b5050346101b057816003193601126101b057602090516202a3008152f35b5050346101b0577f6d3e2d5e747b8f5b2f20096d3aafd75aac660963f46d4a939c738fc6caf88460610b493661111b565b94929060018060a09694961b038092610b67826002541633146111ac565b610b6f611310565b610b776112c9565b1693848852610c318260209460078652610b9660ff858d2054166111f8565b881697610ba4891515611244565b610baf821515611287565b878b5260058652838b20898c528652838b208a8c528652610bd582858d20541015611366565b878b5260058652838b20898c528652838b208a8c528652838b20610bfa8382546113db565b9055878b5260088652838b20610c118382546113db565b9055898b5260068652838b2080546001600160a01b0319169055876113e8565b51908152a46001815580f35b5050346101b057816003193601126101b05760209060ff60015460a01c1690519015158152f35b9050346102c957826003193601126102c957610c7e611154565b6001549060ff8260a01c1615610cc6575060ff60a01b1916600155513381527f5db9ee0a495bf2e6ff9c91a7834c1ba4fdd244a5e8aa4e537bd38aeae4b073aa90602090a180f35b606490602084519162461bcd60e51b8352820152601460248201527314185d5cd8589b194e881b9bdd081c185d5cd95960621b6044820152fd5b9050346102c957826003193601126102c95760209250549051908152f35b9050346102c957610d2e3661111b565b94919260018060a09693961b038091610d4c826002541633146111ac565b610d54611310565b610d5c6112c9565b169384885260209160078352610d7760ff868b2054166111f8565b80821696610d86881515611244565b610d91811515611287565b888a526006845281868b20541615610ea95786899387969593610e8493610e5b7fafb76f8d28832d69fb433b3cccb5b8ba0c06045b6fa48afbb08de51d19d2b9929a8f89815260068952612710610e168684842054169c89845260058c528d8585209085528c528484208d85528c52610e0f87868620541015611366565b54866113b2565b0499610e228b866113db565b9b8c98835260058b528383209083528a528282209082528952818120610e498582546113db565b90558d815260088952209182546113db565b90558b8d5260068552878d2080546001600160a01b03191690558580610e94575b5050886113e8565b8351928352820152a46001815580f35b610ea291600354168b6113e8565b3885610e7c565b5050925162461bcd60e51b815291820152601860248201527f457363726f773a20696e74656e74206e6f7420666f756e640000000000000000604482015260649150fd5b8383346101b057610efd3661111b565b9392919060018060a01b038093610f19826002541633146111ac565b610f21611310565b610f296112c9565b169283875260209260078452610f4460ff878a2054166111f8565b1693610f51851515611244565b610f5c821515611287565b851561105357838752600583528087208588528352808720868852835280872054611011578387526005835280872085885283528087208688528352818188205583875260088352808720805490838201809211610ffe57558587526006835280872080546001600160a01b03191686179055519081527fdd6d72ed4a0442a66409b7578c6937951e2a605bd5daedbfb86b8299974799fb9190a46001815580f35b634e487b7160e01b895260118a52602489fd5b5162461bcd60e51b8152808801839052601d60248201527f457363726f773a20696e74656e7420616c7265616479206578697374730000006044820152606490fd5b5162461bcd60e51b81528088018390526015602482015274115cd8dc9bddce881e995c9bc81a5b9d195b9d1259605a1b6044820152606490fd5b849084346102c9576020926110a1366110e6565b6001600160a01b039283168452600587528484209190921683528552828220908252845220548152f35b600435906001600160a01b03821682036110e157565b600080fd5b60609060031901126110e1576001600160a01b039060043582811681036110e1579160243590811681036110e1579060443590565b60809060031901126110e1576001600160a01b039060043582811681036110e1579160243590811681036110e157906044359060643590565b6001546001600160a01b0316330361116857565b606460405162461bcd60e51b815260206004820152602060248201527f4f776e61626c653a2063616c6c6572206973206e6f7420746865206f776e65726044820152fd5b156111b357565b60405162461bcd60e51b815260206004820152601e60248201527f457363726f773a2063616c6c6572206973206e6f7420726567697374727900006044820152606490fd5b156111ff57565b60405162461bcd60e51b815260206004820152601b60248201527f457363726f773a20746f6b656e206e6f7420737570706f7274656400000000006044820152606490fd5b1561124b57565b60405162461bcd60e51b8152602060048201526014602482015273457363726f773a207a65726f206164647265737360601b6044820152606490fd5b1561128e57565b60405162461bcd60e51b8152602060048201526013602482015272115cd8dc9bddce881e995c9bc8185b5bdd5b9d606a1b6044820152606490fd5b60ff60015460a01c166112d857565b60405162461bcd60e51b815260206004820152601060248201526f14185d5cd8589b194e881c185d5cd95960821b6044820152606490fd5b600260005414611321576002600055565b60405162461bcd60e51b815260206004820152601f60248201527f5265656e7472616e637947756172643a207265656e7472616e742063616c6c006044820152606490fd5b1561136d57565b60405162461bcd60e51b815260206004820152601c60248201527f457363726f773a20696e73756666696369656e742062616c616e6365000000006044820152606490fd5b818102929181159184041417156113c557565b634e487b7160e01b600052601160045260246000fd5b919082039182116113c557565b9291906040516020928382019163a9059cbb60e01b835260018060a01b0391826024951685830152604482015260448152608081019167ffffffffffffffff978284108985111761159057169060c0810183811089821117611590576040528583527f5361666545524332303a206c6f772d6c6576656c2063616c6c206661696c656460a0820152600080948192519082855af13d1561157f573d9188831161156c5760405192601f19603f81601f8401160116840199848b10908b1117611559576114c3959697989960405283528286893d92013e6115a5565b805191821591858315611535575b5050509050156114df575050565b90602a6084926040519262461bcd60e51b845260048401528201527f5361666545524332303a204552433230206f7065726174696f6e20646964206e6044820152691bdd081cdd58d8d9595960b21b6064820152fd5b9193818094500103126101b05783015190811515820361040a5750803880856114d1565b634e487b7160e01b865260416004528686fd5b634e487b7160e01b855260416004528585fd5b6114c39394959697506060916115a5565b85634e487b7160e01b60005260416004526000fd5b9192901561160757508151156115b9575090565b3b156115c25790565b60405162461bcd60e51b815260206004820152601d60248201527f416464726573733a2063616c6c20746f206e6f6e2d636f6e74726163740000006044820152606490fd5b82519091501561161a5750805190602001fd5b6040519062461bcd60e51b82528160208060048301528251908160248401526000935b828510611660575050604492506000838284010152601f80199101168101030190fd5b848101820151868601604401529381019385935061163d565b1561168057565b60405162461bcd60e51b815260206004820152601860248201527f457363726f773a20616c726561647920657865637574656400000000000000006044820152606490fdfea26469706673582212202a291b6d72f195394a805b77ab09824a527f2b30f1220214f5762d00aa32b16e64736f6c63430008130033",
  "linkReferences": {},
  "deployedLinkReferences": {}
}