{
  "_format": "hh-sol-artifact-1",
  "contractName": "Escrow",
  "sourceName": "contracts/Escrow.sol",
  "abi": [
    {
      "inputs": [],
      "stateMutability": "nonpayable",
      "type": "constructor"
    },
    {
      "anonymous": false,
      "inputs": [
        {
          "indexed": true,
          "internalType": "address",
          "name": "previousOwner",
          "type": "address"
        },
        {
          "indexed": true,
          "internalType": "address",
          "name": "newOwner",
          "type": "address"
        }
      ],
      "name": "OwnershipTransferred",
      "type": "event"
    },
    {
      "anonymous": false,
      "inputs": [
        {
          "indexed": false,
          "internalType": "address",
          "name": "account",
          "type": "address"
        }
      ],
      "name": "Paused",
      "type": "event"
    },
    {
      "anonymous": false,
      "inputs": [
        {
          "indexed": true,
          "internalType": "address",
          "name": "registry",
          "type": "address"
        }
      ],
      "name": "RegistrySet",
      "type": "event"
    },
    {
      "anonymous": false,
      "inputs": [
        {
          "indexed": true,
          "internalType": "bytes32",
          "name": "intentId",
          "type": "bytes32"
        },
        {
          "indexed": false,
          "internalType": "address",
          "name": "token",
          "type": "address"
        },
        {
          "indexed": false,
          "internalType": "uint256",
          "name": "amount",
          "type": "uint256"
        },
        {
          "indexed": false,
          "internalType": "address",
          "name": "user",
          "type": "address"
        }
      ],
      "name": "TokensLocked",
      "type": "event"
    },
    {
      "anonymous": false,
      "inputs": [
        {
          "indexed": true,
          "internalType": "bytes32",
          "name": "intentId",
          "type": "bytes32"
        },
        {
          "indexed": false,
          "internalType": "address",
          "name": "token",
          "type": "address"
        },
        {
          "indexed": false,
          "internalType": "uint256",
          "name": "amount",
          "type": "uint256"
        },
        {
          "indexed": false,
          "internalType": "address",
          "name": "user",
          "type": "address"
        }
      ],
      "name": "TokensRefunded",
      "type": "event"
    },
    {
      "anonymous": false,
      "inputs": [
        {
          "indexed": true,
          "internalType": "bytes32",
          "name": "intentId",
          "type": "bytes32"
        },
        {
          "indexed": false,
          "internalType": "address",
          "name": "token",
          "type": "address"
        },
        {
          "indexed": false,
          "internalType": "uint256",
          "name": "amount",
          "type": "uint256"
        },
        {
          "indexed": false,
          "internalType": "address",
          "name": "recipient",
          "type": "address"
        }
      ],
      "name": "TokensReleased",
      "type": "event"
    },
    {
      "anonymous": false,
      "inputs": [
        {
          "indexed": false,
          "internalType": "address",
          "name": "account",
          "type": "address"
        }
      ],
      "name": "Unpaused",
      "type": "event"
    },
    {
      "inputs": [
        {
          "internalType": "address",
          "name": "token",
          "type": "address"
        }
      ],
      "name": "addAllowedToken",
      "outputs": [],
      "stateMutability": "nonpayable",
      "type": "function"
    },
    {
      "inputs": [
        {
          "internalType": "bytes32",
          "name": "",
          "type": "bytes32"
        }
      ],
      "name": "intentAmount",
      "outputs": [
        {
          "internalType": "uint256",
          "name": "",
          "type": "uint256"
        }
      ],
      "stateMutability": "view",
      "type": "function"
    },
    {
      "inputs": [
        {
          "internalType": "bytes32",
          "name": "",
          "type": "bytes32"
        }
      ],
      "name": "intentToken",
      "outputs": [
        {
          "internalType": "address",
          "name": "",
          "type": "address"
        }
      ],
      "stateMutability": "view",
      "type": "function"
    },
    {
      "inputs": [
        {
          "internalType": "bytes32",
          "name": "",
          "type": "bytes32"
        }
      ],
      "name": "intentUser",
      "outputs": [
        {
          "internalType": "address",
          "name": "",
          "type": "address"
        }
      ],
      "stateMutability": "view",
      "type": "function"
    },
    {
      "inputs": [
        {
          "internalType": "address",
          "name": "",
          "type": "address"
        }
      ],
      "name": "isTokenAllowed",
      "outputs": [
        {
          "internalType": "bool",
          "name": "",
          "type": "bool"
        }
      ],
      "stateMutability": "view",
      "type": "function"
    },
    {
      "inputs": [
        {
          "internalType": "address",
          "name": "token",
          "type": "address"
        },
        {
          "internalType": "uint256",
          "name": "amount",
          "type": "uint256"
        },
        {
          "internalType": "bytes32",
          "name": "intentId",
          "type": "bytes32"
        },
        {
          "internalType": "address",
          "name": "user",
          "type": "address"
        }
      ],
      "name": "lockTokens",
      "outputs": [],
      "stateMutability": "nonpayable",
      "type": "function"
    },
    {
      "inputs": [],
      "name": "owner",
      "outputs": [
        {
          "internalType": "address",
          "name": "",
          "type": "address"
        }
      ],
      "stateMutability": "view",
      "type": "function"
    },
    {
      "inputs": [],
      "name": "pause",
      "outputs": [],
      "stateMutability": "nonpayable",
      "type": "function"
    },
    {
      "inputs": [],
      "name": "paused",
      "outputs": [
        {
          "internalType": "bool",
          "name": "",
          "type": "bool"
        }
      ],
      "stateMutability": "view",
      "type": "function"
    },
    {
      "inputs": [
        {
          "internalType": "bytes32",
          "name": "intentId",
          "type": "bytes32"
        }
      ],
      "name": "refundTokens",
      "outputs": [],
      "stateMutability": "nonpayable",
      "type": "function"
    },
    {
      "inputs": [],
      "name": "registry",
      "outputs": [
        {
          "internalType": "address",
          "name": "",
          "type": "address"
        }
      ],
      "stateMutability": "view",
      "type": "function"
    },
    {
      "inputs": [
        {
          "internalType": "address",
          "name": "token",
          "type": "address"
        },
        {
          "internalType": "uint256",
          "name": "amount",
          "type": "uint256"
        },
        {
          "internalType": "address",
          "name": "recipient",
          "type": "address"
        },
        {
          "internalType": "bytes32",
          "name": "intentId",
          "type": "bytes32"
        }
      ],
      "name": "releaseTokens",
      "outputs": [],
      "stateMutability": "nonpayable",
      "type": "function"
    },
    {
      "inputs": [
        {
          "internalType": "address",
          "name": "token",
          "type": "address"
        }
      ],
      "name": "removeAllowedToken",
      "outputs": [],
      "stateMutability": "nonpayable",
      "type": "function"
    },
    {
      "inputs": [],
      "name": "renounceOwnership",
      "outputs": [],
      "stateMutability": "nonpayable",
      "type": "function"
    },
    {
      "inputs": [
        {
          "internalType": "address",
          "name": "_registry",
          "type": "address"
        }
      ],
      "name": "setRegistry",
      "outputs": [],
      "stateMutability": "nonpayable",
      "type": "function"
    },
    {
      "inputs": [
        {
          "internalType": "address",
          "name": "newOwner",
          "type": "address"
        }
      ],
      "name": "transferOwnership",
      "outputs": [],
      "stateMutability": "nonpayable",
      "type": "function"
    },
    {
      "inputs": [],
      "name": "unpause",
      "outputs": [],
      "stateMutability": "nonpayable",
      "type": "function"
    }
  ],
  "bytecode": "0x60808060405234610070576001600081815581546001600160a81b0319811633600881811b610100600160a81b0316929092179094551c6001600160a01b0316907f8be0079c531659141344cd1fd0a4f28419497f9722a3daafe3b4186f6b6457e09080a3610f7890816100768239f35b600080fdfe6040608081526004908136101561001557600080fd5b600091823560e01c9081633f4ba83a14610a5c5781634178617f146109d95781634397ca80146108d25781634d6b222b1461089f5781634e47902e146106ed5781635c975abb146106c9578163715018a6146106655781637b1039991461063c5781638456cb59146105e257816386961f241461036a5781638da5cb5b1461033d57816390469a9d146102fd578163a91ee0dc14610255578163b9e700ee14610223578163ca68c5e1146101fb578163f2fde38b1461011e575063f9eaee0d146100de57600080fd5b3461011a57602036600319011261011a5760209160ff9082906001600160a01b03610107610af2565b1681526003855220541690519015158152f35b5080fd5b9050346101f75760203660031901126101f757610139610af2565b610141610b9b565b6001600160a01b038181169390929084156101a557505060018054610100600160a81b03198116600893841b610100600160a81b031617909155901c167f8be0079c531659141344cd1fd0a4f28419497f9722a3daafe3b4186f6b6457e08380a380f35b906020608492519162461bcd60e51b8352820152602660248201527f4f776e61626c653a206e6577206f776e657220697320746865207a65726f206160448201526564647265737360d01b6064820152fd5b8280fd5b9050346101f75760203660031901126101f75760209282913581526005845220549051908152f35b9050346101f75760203660031901126101f757803583526020908152918190205490516001600160a01b039091168152f35b9050346101f75760203660031901126101f757610270610af2565b610278610b9b565b6001600160a01b03169182156102c3575050600280546001600160a01b031916821790557f27fe5f0c1c3b1ed427cc63d0f05759ffdecf9aec9e18d31ef366fc8a6cb5dc3b8280a280f35b906020606492519162461bcd60e51b83528201526014602482015273457363726f773a207a65726f206164647265737360601b6044820152fd5b50503461011a57602036600319011261011a57610318610af2565b610320610b9b565b6001600160a01b0316825260036020528120805460ff1916905580f35b50503461011a578160031936011261011a57600154905160089190911c6001600160a01b03168152602090f35b8391503461011a57608036600319011261011a57610386610af2565b606480359460448035946024803595946001600160a01b03808b169493929190858c036105de576103bc81600254163314610b0d565b6103c4610bf6565b6103cc610c4c565b871693848b526020956003875260ff888d2054161561059f576103f08a1515610b59565b8a15610568578015610535578a8c5260058752878c20546104f6578a8c528487528b8189808320926bffffffffffffffffffffffff60a01b938a8582541617905560058b528d8282205560068b5220918254161790558751966323b872dd60e01b908801528387015230908601528781860152845260a084019184831067ffffffffffffffff8411176104e55750507f8dfab5ce42d3cc8bbdf831abfc6a0c0c9e06f2bd93314add8b89f129178d92e19697989284926104b4926104db9652610cf8565b516001600160a01b0393841681526020810194909452909116604083015281906060820190565b0390a26001815580f35b634e487b7160e01b8a526041905288fd5b50601d7f457363726f773a20696e74656e7420616c7265616479206c6f636b65640000009294938789519562461bcd60e51b8752860152840152820152fd5b5060117022b9b1b937bb9d103d32b937903ab9b2b960791b9294938789519562461bcd60e51b8752860152840152820152fd5b50601574115cd8dc9bddce881e995c9bc81a5b9d195b9d1259605a1b9294938789519562461bcd60e51b8752860152840152820152fd5b5060197f457363726f773a20746f6b656e206e6f7420616c6c6f776564000000000000009294938789519562461bcd60e51b8752860152840152820152fd5b8a80fd5b50503461011a578160031936011261011a5760207f62e78cea01bee320cd4e420270b5ea74000d11b0c9f74754ebdbfc544b05a25891610620610b9b565b610628610c4c565b600160ff198154161760015551338152a180f35b50503461011a578160031936011261011a5760025490516001600160a01b039091168152602090f35b83346106c657806003193601126106c65761067e610b9b565b60018054610100600160a81b03198116909155819060081c6001600160a01b03167f8be0079c531659141344cd1fd0a4f28419497f9722a3daafe3b4186f6b6457e08280a380f35b80fd5b50503461011a578160031936011261011a5760209060ff6001541690519015158152f35b83833461011a57608036600319011261011a57610708610af2565b6001600160a01b0360443581811693602435939285830361089b576064359561073682600254163314610b0d565b61073e610bf6565b610746610c4c565b1561085f57610756851515610b59565b858752600560205284828820541061081c57858752876020528082882054169084168091036107e05785875260056020528187208054908682039182116107cd5786857f12248207523acd4741dab635521253c98011456708358e562b25b8ae233cdbab989796946104db96946104b49455610c90565b634e487b7160e01b895260118a52602489fd5b815162461bcd60e51b81526020818a0152601660248201527508ae6c6e4deee7440e8ded6cadc40dad2e6dac2e8c6d60531b6044820152606490fd5b815162461bcd60e51b81526020818a0152601c60248201527f457363726f773a20696e73756666696369656e742062616c616e6365000000006044820152606490fd5b815162461bcd60e51b81526020818a01526016602482015275115cd8dc9bddce881e995c9bc81c9958da5c1a595b9d60521b6044820152606490fd5b8680fd5b9050346101f75760203660031901126101f75735825260066020908152918190205490516001600160a01b039091168152f35b8391503461011a576020806003193601126101f7576002548235926001600160a01b03916109039083163314610b0d565b61090b610bf6565b610913610c4c565b83855260058352858520549283156109a2579085966104db92867f22f4a3f8eccda593ecab37fadf6ecfd775ecae8732caeaf553465128634a246997985282815284828a2054169460068252828a2054169281526006828a20916bffffffffffffffffffffffff60a01b92838154169055600581528a84812055528189209081541690556104b4858386610c90565b865162461bcd60e51b8152918201526012602482015271457363726f773a206e6f2062616c616e636560701b604482015260649150fd5b9050346101f75760203660031901126101f7576109f4610af2565b6109fc610b9b565b6001600160a01b0316908115610a245750825260036020528120805460ff1916600117905580f35b606490602084519162461bcd60e51b8352820152601260248201527122b9b1b937bb9d103d32b937903a37b5b2b760711b6044820152fd5b9050346101f757826003193601126101f757610a76610b9b565b6001549060ff821615610ab8575060ff1916600155513381527f5db9ee0a495bf2e6ff9c91a7834c1ba4fdd244a5e8aa4e537bd38aeae4b073aa90602090a180f35b606490602084519162461bcd60e51b8352820152601460248201527314185d5cd8589b194e881b9bdd081c185d5cd95960621b6044820152fd5b600435906001600160a01b0382168203610b0857565b600080fd5b15610b1457565b60405162461bcd60e51b815260206004820152601e60248201527f457363726f773a2063616c6c6572206973206e6f7420726567697374727900006044820152606490fd5b15610b6057565b60405162461bcd60e51b8152602060048201526013602482015272115cd8dc9bddce881e995c9bc8185b5bdd5b9d606a1b6044820152606490fd5b60015460081c6001600160a01b03163303610bb257565b606460405162461bcd60e51b815260206004820152602060248201527f4f776e61626c653a2063616c6c6572206973206e6f7420746865206f776e65726044820152fd5b600260005414610c07576002600055565b60405162461bcd60e51b815260206004820152601f60248201527f5265656e7472616e637947756172643a207265656e7472616e742063616c6c006044820152606490fd5b60ff60015416610c5857565b60405162461bcd60e51b815260206004820152601060248201526f14185d5cd8589b194e881c185d5cd95960821b6044820152606490fd5b60405163a9059cbb60e01b60208201526001600160a01b039092166024830152604480830193909352918152608081019167ffffffffffffffff831182841017610ce257610ce092604052610cf8565b565b634e487b7160e01b600052604160045260246000fd5b6040805167ffffffffffffffff94936001600160a01b03909316929080830186811182821017610ce25783526020938482527f5361666545524332303a206c6f772d6c6576656c2063616c6c206661696c6564858301526000808487829651910182855af13d15610e61573d91888311610e4d57601f1992865193603f81601f8401160116840199848b10908b1117610e395786979899610da396975283528286893d92013e610e6e565b805191821591858315610e15575b505050905015610dbf575050565b60849250519062461bcd60e51b82526004820152602a60248201527f5361666545524332303a204552433230206f7065726174696f6e20646964206e6044820152691bdd081cdd58d8d9595960b21b6064820152fd5b91938180945001031261011a578301519081151582036106c6575080388085610db1565b634e487b7160e01b86526041600452602486fd5b634e487b7160e01b85526041600452602485fd5b610da39394959697506060915b91929015610ed05750815115610e82575090565b3b15610e8b5790565b60405162461bcd60e51b815260206004820152601d60248201527f416464726573733a2063616c6c20746f206e6f6e2d636f6e74726163740000006044820152606490fd5b825190915015610ee35750805190602001fd5b6040519062461bcd60e51b82528160208060048301528251908160248401526000935b828510610f29575050604492506000838284010152601f80199101168101030190fd5b8481018201518686016044015293810193859350610f0656fea26469706673582212205ec6f0a2c91567993d6b1ed3792f204a0f4eb4ace4901c8912b2ca56a8ecb30164736f6c63430008180033",
  "linkReferences": {},
  "deployedLinkReferences": {}
}