{
  "_format": "hh-sol-artifact-1",
  "contractName": "IntentRegistry",
  "sourceName": "contracts/IntentRegistry.sol",
  "abi": [
    {
      "inputs": [
        {
          "internalType": "address",
          "name": "_escrow",
          "type": "address"
        },
        {
          "internalType": "address",
          "name": "_paymentVerifier",
          "type": "address"
        },
        {
          "internalType": "address",
          "name": "_solverRegistry",
          "type": "address"
        }
      ],
      "stateMutability": "nonpayable",
      "type": "constructor"
    },
    {
      "inputs": [],
      "name": "InvalidShortString",
      "type": "error"
    },
    {
      "inputs": [
        {
          "internalType": "string",
          "name": "str",
          "type": "string"
        }
      ],
      "name": "StringTooLong",
      "type": "error"
    },
    {
      "anonymous": false,
      "inputs": [],
      "name": "EIP712DomainChanged",
      "type": "event"
    },
    {
      "anonymous": false,
      "inputs": [
        {
          "indexed": true,
          "internalType": "bytes32",
          "name": "intentId",
          "type": "bytes32"
        },
        {
          "indexed": true,
          "internalType": "address",
          "name": "user",
          "type": "address"
        },
        {
          "indexed": false,
          "internalType": "uint256",
          "name": "refundAmount",
          "type": "uint256"
        }
      ],
      "name": "IntentCancelled",
      "type": "event"
    },
    {
      "anonymous": false,
      "inputs": [
        {
          "indexed": true,
          "internalType": "bytes32",
          "name": "intentId",
          "type": "bytes32"
        },
        {
          "indexed": true,
          "internalType": "address",
          "name": "solver",
          "type": "address"
        },
        {
          "indexed": false,
          "internalType": "uint256",
          "name": "destAmount",
          "type": "uint256"
        },
        {
          "indexed": false,
          "internalType": "bytes32",
          "name": "paymentTxHash",
          "type": "bytes32"
        }
      ],
      "name": "IntentFulfilled",
      "type": "event"
    },
    {
      "anonymous": false,
      "inputs": [
        {
          "indexed": true,
          "internalType": "bytes32",
          "name": "intentId",
          "type": "bytes32"
        },
        {
          "indexed": true,
          "internalType": "address",
          "name": "user",
          "type": "address"
        },
        {
          "indexed": false,
          "internalType": "address",
          "name": "sourceToken",
          "type": "address"
        },
        {
          "indexed": false,
          "internalType": "uint256",
          "name": "sourceAmount",
          "type": "uint256"
        },
        {
          "indexed": false,
          "internalType": "address",
          "name": "destToken",
          "type": "address"
        },
        {
          "indexed": false,
          "internalType": "uint256",
          "name": "minDestAmount",
          "type": "uint256"
        },
        {
          "indexed": false,
          "internalType": "uint256",
          "name": "expiry",
          "type": "uint256"
        }
      ],
      "name": "IntentSubmitted",
      "type": "event"
    },
    {
      "anonymous": false,
      "inputs": [
        {
          "indexed": true,
          "internalType": "address",
          "name": "previousOwner",
          "type": "address"
        },
        {
          "indexed": true,
          "internalType": "address",
          "name": "newOwner",
          "type": "address"
        }
      ],
      "name": "OwnershipTransferred",
      "type": "event"
    },
    {
      "anonymous": false,
      "inputs": [
        {
          "indexed": false,
          "internalType": "address",
          "name": "account",
          "type": "address"
        }
      ],
      "name": "Paused",
      "type": "event"
    },
    {
      "anonymous": false,
      "inputs": [
        {
          "indexed": false,
          "internalType": "address",
          "name": "account",
          "type": "address"
        }
      ],
      "name": "Unpaused",
      "type": "event"
    },
    {
      "inputs": [
        {
          "internalType": "bytes32[]",
          "name": "intentIds",
          "type": "bytes32[]"
        }
      ],
      "name": "cancelExpiredIntents",
      "outputs": [],
      "stateMutability": "nonpayable",
      "type": "function"
    },
    {
      "inputs": [
        {
          "internalType": "bytes32",
          "name": "intentId",
          "type": "bytes32"
        }
      ],
      "name": "cancelIntent",
      "outputs": [],
      "stateMutability": "nonpayable",
      "type": "function"
    },
    {
      "inputs": [],
      "name": "domainSeparator",
      "outputs": [
        {
          "internalType": "bytes32",
          "name": "",
          "type": "bytes32"
        }
      ],
      "stateMutability": "view",
      "type": "function"
    },
    {
      "inputs": [],
      "name": "eip712Domain",
      "outputs": [
        {
          "internalType": "bytes1",
          "name": "fields",
          "type": "bytes1"
        },
        {
          "internalType": "string",
          "name": "name",
          "type": "string"
        },
        {
          "internalType": "string",
          "name": "version",
          "type": "string"
        },
        {
          "internalType": "uint256",
          "name": "chainId",
          "type": "uint256"
        },
        {
          "internalType": "address",
          "name": "verifyingContract",
          "type": "address"
        },
        {
          "internalType": "bytes32",
          "name": "salt",
          "type": "bytes32"
        },
        {
          "internalType": "uint256[]",
          "name": "extensions",
          "type": "uint256[]"
        }
      ],
      "stateMutability": "view",
      "type": "function"
    },
    {
      "inputs": [],
      "name": "escrow",
      "outputs": [
        {
          "internalType": "contract IEscrow",
          "name": "",
          "type": "address"
        }
      ],
      "stateMutability": "view",
      "type": "function"
    },
    {
      "inputs": [
        {
          "internalType": "bytes32",
          "name": "intentId",
          "type": "bytes32"
        },
        {
          "internalType": "uint256",
          "name": "destAmount",
          "type": "uint256"
        },
        {
          "internalType": "bytes32",
          "name": "paymentTxHash",
          "type": "bytes32"
        }
      ],
      "name": "fulfillIntent",
      "outputs": [
        {
          "internalType": "bool",
          "name": "success",
          "type": "bool"
        }
      ],
      "stateMutability": "nonpayable",
      "type": "function"
    },
    {
      "inputs": [
        {
          "internalType": "bytes32",
          "name": "intentId",
          "type": "bytes32"
        }
      ],
      "name": "getIntent",
      "outputs": [
        {
          "components": [
            {
              "internalType": "bytes32",
              "name": "intentId",
              "type": "bytes32"
            },
            {
              "internalType": "address",
              "name": "user",
              "type": "address"
            },
            {
              "internalType": "uint256",
              "name": "sourceChainId",
              "type": "uint256"
            },
            {
              "internalType": "address",
              "name": "sourceToken",
              "type": "address"
            },
            {
              "internalType": "uint256",
              "name": "sourceAmount",
              "type": "uint256"
            },
            {
              "internalType": "uint256",
              "name": "destChainId",
              "type": "uint256"
            },
            {
              "internalType": "address",
              "name": "destToken",
              "type": "address"
            },
            {
              "internalType": "uint256",
              "name": "minDestAmount",
              "type": "uint256"
            },
            {
              "internalType": "uint256",
              "name": "maxSolverFee",
              "type": "uint256"
            },
            {
              "internalType": "uint256",
              "name": "expiry",
              "type": "uint256"
            },
            {
              "internalType": "uint256",
              "name": "nonce",
              "type": "uint256"
            },
            {
              "internalType": "bytes",
              "name": "signature",
              "type": "bytes"
            },
            {
              "internalType": "address[]",
              "name": "allowedSolvers",
              "type": "address[]"
            },
            {
              "internalType": "enum IIntentRegistry.IntentStatus",
              "name": "status",
              "type": "uint8"
            },
            {
              "internalType": "address",
              "name": "solver",
              "type": "address"
            },
            {
              "internalType": "uint256",
              "name": "fulfilledAmount",
              "type": "uint256"
            },
            {
              "internalType": "bytes32",
              "name": "paymentTxHash",
              "type": "bytes32"
            }
          ],
          "internalType": "struct IIntentRegistry.Intent",
          "name": "",
          "type": "tuple"
        }
      ],
      "stateMutability": "view",
      "type": "function"
    },
    {
      "inputs": [],
      "name": "getTotalIntents",
      "outputs": [
        {
          "internalType": "uint256",
          "name": "",
          "type": "uint256"
        }
      ],
      "stateMutability": "view",
      "type": "function"
    },
    {
      "inputs": [
        {
          "internalType": "address",
          "name": "user",
          "type": "address"
        }
      ],
      "name": "getUserIntents",
      "outputs": [
        {
          "internalType": "bytes32[]",
          "name": "",
          "type": "bytes32[]"
        }
      ],
      "stateMutability": "view",
      "type": "function"
    },
    {
      "inputs": [
        {
          "internalType": "address",
          "name": "user",
          "type": "address"
        }
      ],
      "name": "getUserNonce",
      "outputs": [
        {
          "internalType": "uint256",
          "name": "",
          "type": "uint256"
        }
      ],
      "stateMutability": "view",
      "type": "function"
    },
    {
      "inputs": [
        {
          "internalType": "bytes32",
          "name": "",
          "type": "bytes32"
        }
      ],
      "name": "intents",
      "outputs": [
        {
          "internalType": "bytes32",
          "name": "intentId",
          "type": "bytes32"
        },
        {
          "internalType": "address",
          "name": "user",
          "type": "address"
        },
        {
          "internalType": "uint256",
          "name": "sourceChainId",
          "type": "uint256"
        },
        {
          "internalType": "address",
          "name": "sourceToken",
          "type": "address"
        },
        {
          "internalType": "uint256",
          "name": "sourceAmount",
          "type": "uint256"
        },
        {
          "internalType": "uint256",
          "name": "destChainId",
          "type": "uint256"
        },
        {
          "internalType": "address",
          "name": "destToken",
          "type": "address"
        },
        {
          "internalType": "uint256",
          "name": "minDestAmount",
          "type": "uint256"
        },
        {
          "internalType": "uint256",
          "name": "maxSolverFee",
          "type": "uint256"
        },
        {
          "internalType": "uint256",
          "name": "expiry",
          "type": "uint256"
        },
        {
          "internalType": "uint256",
          "name": "nonce",
          "type": "uint256"
        },
        {
          "internalType": "bytes",
          "name": "signature",
          "type": "bytes"
        },
        {
          "internalType": "enum IIntentRegistry.IntentStatus",
          "name": "status",
          "type": "uint8"
        },
        {
          "internalType": "address",
          "name": "solver",
          "type": "address"
        },
        {
          "internalType": "uint256",
          "name": "fulfilledAmount",
          "type": "uint256"
        },
        {
          "internalType": "bytes32",
          "name": "paymentTxHash",
          "type": "bytes32"
        }
      ],
      "stateMutability": "view",
      "type": "function"
    },
    {
      "inputs": [],
      "name": "owner",
      "outputs": [
        {
          "internalType": "address",
          "name": "",
          "type": "address"
        }
      ],
      "stateMutability": "view",
      "type": "function"
    },
    {
      "inputs": [],
      "name": "pause",
      "outputs": [],
      "stateMutability": "nonpayable",
      "type": "function"
    },
    {
      "inputs": [],
      "name": "paused",
      "outputs": [
        {
          "internalType": "bool",
          "name": "",
          "type": "bool"
        }
      ],
      "stateMutability": "view",
      "type": "function"
    },
    {
      "inputs": [],
      "name": "paymentVerifier",
      "outputs": [
        {
          "internalType": "contract IPaymentVerifier",
          "name": "",
          "type": "address"
        }
      ],
      "stateMutability": "view",
      "type": "function"
    },
    {
      "inputs": [],
      "name": "renounceOwnership",
      "outputs": [],
      "stateMutability": "nonpayable",
      "type": "function"
    },
    {
      "inputs": [
        {
          "internalType": "address",
          "name": "escrow_",
          "type": "address"
        }
      ],
      "name": "setEscrow",
      "outputs": [],
      "stateMutability": "nonpayable",
      "type": "function"
    },
    {
      "inputs": [
        {
          "internalType": "address",
          "name": "verifier",
          "type": "address"
        }
      ],
      "name": "setPaymentVerifier",
      "outputs": [],
      "stateMutability": "nonpayable",
      "type": "function"
    },
    {
      "inputs": [
        {
          "internalType": "address",
          "name": "registry_",
          "type": "address"
        }
      ],
      "name": "setSolverRegistry",
      "outputs": [],
      "stateMutability": "nonpayable",
      "type": "function"
    },
    {
      "inputs": [],
      "name": "solverRegistry",
      "outputs": [
        {
          "internalType": "contract ISolverRegistry",
          "name": "",
          "type": "address"
        }
      ],
      "stateMutability": "view",
      "type": "function"
    },
    {
      "inputs": [
        {
          "components": [
            {
              "internalType": "uint256",
              "name": "sourceChainId",
              "type": "uint256"
            },
            {
              "internalType": "address",
              "name": "sourceToken",
              "type": "address"
            },
            {
              "internalType": "uint256",
              "name": "sourceAmount",
              "type": "uint256"
            },
            {
              "internalType": "uint256",
              "name": "destChainId",
              "type": "uint256"
            },
            {
              "internalType": "address",
              "name": "destToken",
              "type": "address"
            },
            {
              "internalType": "uint256",
              "name": "minDestAmount",
              "type": "uint256"
            },
            {
              "internalType": "uint256",
              "name": "maxSolverFee",
              "type": "uint256"
            },
            {
              "internalType": "uint256",
              "name": "expiry",
              "type": "uint256"
            },
            {
              "internalType": "uint256",
              "name": "nonce",
              "type": "uint256"
            },
            {
              "internalType": "address[]",
              "name": "allowedSolvers",
              "type": "address[]"
            }
          ],
          "internalType": "struct IIntentRegistry.IntentParams",
          "name": "intent",
          "type": "tuple"
        },
        {
          "internalType": "bytes",
          "name": "signature",
          "type": "bytes"
        }
      ],
      "name": "submitIntent",
      "outputs": [
        {
          "internalType": "bytes32",
          "name": "intentId",
          "type": "bytes32"
        }
      ],
      "stateMutability": "nonpayable",
      "type": "function"
    },
    {
      "inputs": [],
      "name": "totalIntents",
      "outputs": [
        {
          "internalType": "uint256",
          "name": "",
          "type": "uint256"
        }
      ],
      "stateMutability": "view",
      "type": "function"
    },
    {
      "inputs": [],
      "name": "totalIntentsFulfilled",
      "outputs": [
        {
          "internalType": "uint256",
          "name": "",
          "type": "uint256"
        }
      ],
      "stateMutability": "view",
      "type": "function"
    },
    {
      "inputs": [
        {
          "internalType": "address",
          "name": "newOwner",
          "type": "address"
        }
      ],
      "name": "transferOwnership",
      "outputs": [],
      "stateMutability": "nonpayable",
      "type": "function"
    },
    {
      "inputs": [],
      "name": "unpause",
      "outputs": [],
      "stateMutability": "nonpayable",
      "type": "function"
    },
    {
      "inputs": [
        {
          "internalType": "address",
          "name": "",
          "type": "address"
        }
      ],
      "name": "userNonces",
      "outputs": [
        {
          "internalType": "uint256",
          "name": "",
          "type": "uint256"
        }
      ],
      "stateMutability": "view",
      "type": "function"
    }
  ],
  "bytecode": "0x610160346200031a57601f62002fde38819003918201601f19168301926001600160401b03929091838511838610176200031f5781606092849260409788528339810103126200031a57620000548162000351565b92602062000071826200006983860162000351565b940162000351565b92825193620000808562000335565b600a85528285019569584443496e74656e747360b01b8752845192620000a68462000335565b60018452603160f81b85850190815260008054909a6001600160a01b0394929091338682167f8be0079c531659141344cd1fd0a4f28419497f9722a3daafe3b4186f6b6457e08f80a36001600160a81b0319163360ff60a01b1916178c5560018055620001138a62000366565b9a6101209b8c52620001258862000543565b9a6101409b8c52519020968760e052519020956101009b878d524660a052895197898901927f8b73c3c69bb8fe3d512ecc4cf759cc79239f7b179b0ffacaa9a75d522b39400f84528b8a015260608901524660808901523060a089015260a0885260c088019388851090851117620003065750828952865190206080523060c0528316948515620002c4575050811691821562000280571692831562000231575060018060a01b031991826004541617600455816005541617600555600654161760065551916128e59384620006f98539608051846125f3015260a051846126be015260c051846125bd015260e051846126420152518361266801525182611997015251816119c00152f35b60849085519062461bcd60e51b825260048201526024808201527f496e74656e7452656769737472793a207a65726f20736f6c76657220726567696044820152637374727960e01b6064820152fd5b855162461bcd60e51b815260048101869052601d60248201527f496e74656e7452656769737472793a207a65726f2076657269666965720000006044820152606490fd5b907f496e74656e7452656769737472793a207a65726f20657363726f7700000000006101046064938962461bcd60e51b855260c4820152601b60e48201520152fd5b634e487b7160e01b81526041600452602490fd5b600080fd5b634e487b7160e01b600052604160045260246000fd5b604081019081106001600160401b038211176200031f57604052565b51906001600160a01b03821682036200031a57565b805160209081811015620004035750601f825111620003a257808251920151908083106200039357501790565b82600019910360031b1b161790565b90604051809263305a27a960e01b82528060048301528251908160248401526000935b828510620003e9575050604492506000838284010152601f80199101168101030190fd5b8481018201518686016044015293810193859350620003c5565b906001600160401b0382116200031f57600254926001938481811c9116801562000538575b838210146200052257601f8111620004e8575b5081601f84116001146200047c575092829391839260009462000470575b50501b916000199060031b1c19161760025560ff90565b01519250388062000459565b919083601f198116600260005284600020946000905b88838310620004cd5750505010620004b3575b505050811b0160025560ff90565b015160001960f88460031b161c19169055388080620004a5565b85870151885590960195948501948793509081019062000492565b600260005284601f84600020920160051c820191601f860160051c015b828110620005155750506200043b565b6000815501859062000505565b634e487b7160e01b600052602260045260246000fd5b90607f169062000428565b80516020919082811015620005d3575090601f8251116200057257808251920151908083106200039357501790565b90604051809263305a27a960e01b82528060048301528251908160248401526000935b828510620005b9575050604492506000838284010152601f80199101168101030190fd5b848101820151868601604401529381019385935062000595565b6001600160401b0381116200031f576003928354926001938481811c91168015620006ed575b838210146200052257601f8111620006b4575b5081601f84116001146200064b57509282939183926000946200063f575b50501b9160001990841b1c191617905560ff90565b0151925038806200062a565b919083601f1981168760005284600020946000905b8883831062000699575050501062000680575b505050811b01905560ff90565b015160001983861b60f8161c1916905538808062000673565b85870151885590960195948501948793509081019062000660565b8560005284601f84600020920160051c820191601f860160051c015b828110620006e05750506200060c565b60008155018590620006d0565b90607f1690620005f956fe608080604052600436101561001357600080fd5b60003560e01c90816316dbac5b14611e615750806328ff879f14611e385780632c37b52514611deb5780632f7801f414611cef5780633f4ba83a14611d4f5780635c975abb14611d295780636834e3a814611cef5780636c77347614611b6f5780636f4c58e214611b46578063715018a614611aed5780638456cb5914611a8b57806384b0196e146119815780638da5cb5b146119585780639021578a14611825578063c10c3546146117d8578063cade18ba14611334578063d06a54f414611316578063d55f960d146111bf578063d6abb2d7146111a1578063d95f275914611154578063e2fdcc171461112b578063f13c46aa14610e4f578063f14c1258146102dd578063f2fde38b14610219578063f698da25146101f65763fa3209b21461013d57600080fd5b346101f1576020806003193601126101f1576001600160a01b0361015f611e7c565b1660005260098152604060002060405190818382549182815201908192600052846000209060005b868282106101dd57868661019d82880383612000565b604051928392818401908285525180915260408401929160005b8281106101c657505050500390f35b8351855286955093810193928101926001016101b7565b835485529093019260019283019201610187565b600080fd5b346101f15760003660031901126101f15760206102116125ba565b604051908152f35b346101f15760203660031901126101f157610232611e7c565b61023a6122c0565b6001600160a01b0390811690811561028957600054826001600160601b0360a01b821617600055167f8be0079c531659141344cd1fd0a4f28419497f9722a3daafe3b4186f6b6457e0600080a3005b60405162461bcd60e51b815260206004820152602660248201527f4f776e61626c653a206e6577206f776e657220697320746865207a65726f206160448201526564647265737360d01b6064820152608490fd5b346101f1576003196040368201126101f1576001600160401b03600435116101f15761014090600435360301126101f1576001600160401b03602435116101f1573660236024350112156101f1576001600160401b0360243560040135116101f15736602480356004013581350101116101f157610359612318565b61036161236e565b6001600160a01b03610377600435602401612159565b1615610e00576001600160a01b03610393600435608401612159565b1615610dbb576044600435013515610d76574260e460043501351115610d315762278d004201804211610d1b5760e4600435013511610cd6574660043560040135148015610cc7575b15610c82576103f03660043560040161216d565b80519060208101519060408101519160608201519060808301519060a08401519160c08501519361010060e087015196015196604051983360601b60208b015260348a01526001600160601b0319809460601b1660548a01526068890152608888015260601b1660a886015260bc85015260dc84015260fc83015261011c90818301528152806101408101106001600160401b036101408301111761096f576101408101604052805160208201209081600052600760205260ff600d60406000200154166003811015610c6c571580610c4a575b15610bff57506104d93660043560040161216d565b80519060018060a01b03602082015116906040810151606082015160018060a01b0360808401511660a08401519160c08501519361010060e087015196015196604051987fd82cbbc50f817a57738f0e04ce8a8c744087b6b9ec296869db4630779c4ae08760208b015260408a01526060890152608088015260a087015260c086015260e08501526101008401526101208301526101408201526101408152806101608101106001600160401b036101608301111761096f5761060f6042826101606106179401604052602081519101206105b26125ba565b906040519161190160f01b83526002830152602282015220604051906105e86020601f19601f6024356004013501160183612000565b602480356004810135808552910160208401376000602060243560040135840101526126e4565b91909161271c565b336001600160a01b0390911603610bb05761063d61012460043501600435600401612274565b9050610aec575b33600052600860205260406000205461010460043501351115610aa7573360005260086020526101046004350135604060002055806000526007602052604060002090808255600182016001600160601b0360a01b9033828254161790556004356004013560028401556106bc602460043501612159565b600384019060018060a01b0316828254161790556044600435013560048401556064600435013560058401556106f6608460043501612159565b6006840180549092166001600160a01b0390911617905560043560a4810135600784015560c4810135600884015560e481013560098401556101040135600a830155600b82015461074690611ee6565b601f8111610a5b575b506000601f60243560040135116001146109d057600090602435600401356109c1575b506024356004013560011b906000196024356004013560031b1c191617600b8301555b6107aa61012460043501600435600401612274565b92906001600160401b03841161096f57600160401b841161096f57600c82015484600c8401558085106109a0575b5092600c8201600052602060002060005b8281106109855784600d850160ff19815416905533600052600960205260406000208054600160401b81101561096f57600181018083558110156109595782916000526020600020015561083e600a5461214a565b600a55600480546001600160a01b0316919061085d9035602401612159565b823b156101f1576000926084849260405195869384926321a587c960e21b845260018060a01b031660048401526044600435013560248401528660448401523360648401525af191821561094d5760209261093e575b506108c2602460043501612159565b6108d0608460043501612159565b604080516001600160a01b039384168152600435604481013587830152929093169083015260a4810135606083015260e401356080820152339082907fccf7adc7a7bb1e39d5abf0dee0a72398d16894afad6ed7cb958a44cd66bb126d9060a090a360018055604051908152f35b61094790611fb6565b826108b3565b6040513d6000823e3d90fd5b634e487b7160e01b600052603260045260246000fd5b634e487b7160e01b600052604160045260246000fd5b600190602061099388612159565b97019681840155016107e9565b6109bb90600c840160005285602060002091820191016122a9565b846107d8565b60248092503501013583610772565b600b830160005260206000209060005b60046024350135601f19168110610a3f575060046024350135601f19811610610a1c575b5050600160243560040135811b01600b830155610795565b602460001960f882356004013560031b161c199181350101351690558280610a04565b90916020600181926024868135010135815501930191016109e0565b610a9790600b84016000526020600020601f602435600401350160051c81019160206024356004013510610a9d575b601f0160051c01906122a9565b8261074f565b9091508190610a8a565b60405162461bcd60e51b815260206004820152601d60248201527f496e74656e7452656769737472793a206e6f6e636520746f6f206c6f770000006044820152606490fd5b6000805b610b0561012460043501600435600401612274565b9050811015610baa5780610b3e610b39610b2a61012460043501600435600401612274565b6001600160a01b03949161207a565b612159565b1615610ba257505060015b6106445760405162461bcd60e51b815260206004820152602760248201527f496e74656e7452656769737472793a206e6f2076616c696420616c6c6f7765646044820152661039b7b63b32b960c91b6064820152608490fd5b600101610af0565b50610b49565b60405162461bcd60e51b815260206004820152602160248201527f496e74656e7452656769737472793a20696e76616c6964207369676e617475726044820152606560f81b6064820152608490fd5b61014060649162461bcd60e51b828201526020610144820152601d6101648201527f496e74656e7452656769737472793a20696e74656e742065786973747300000061018482015201fd5b506000828152600760205260409020600101546001600160a01b0316156104c4565b634e487b7160e01b600052602160045260246000fd5b60405162461bcd60e51b815260206004820152601e60248201527f496e74656e7452656769737472793a20636861696e206d69736d6174636800006044820152606490fd5b504660646004350135146103dc565b60405162461bcd60e51b815260206004820152601e60248201527f496e74656e7452656769737472793a2065787069727920746f6f2066617200006044820152606490fd5b634e487b7160e01b600052601160045260246000fd5b60405162461bcd60e51b815260206004820152601e60248201527f496e74656e7452656769737472793a2065787069727920696e207061737400006044820152606490fd5b60405162461bcd60e51b815260206004820152601b60248201527f496e74656e7452656769737472793a207a65726f20616d6f756e7400000000006044820152606490fd5b60405162461bcd60e51b815260206004820152601f60248201527f496e74656e7452656769737472793a207a65726f206465737420746f6b656e006044820152606490fd5b60405162461bcd60e51b815260206004820152602160248201527f496e74656e7452656769737472793a207a65726f20736f7572636520746f6b656044820152603760f91b6064820152608490fd5b346101f15760203660031901126101f1576000610200604051610e7181611fc9565b8281528260208201528260408201528260608201528260808201528260a08201528260c08201528260e082015282610100820152826101208201528261014082015260606101608201526060610180820152826101a0820152826101c0820152826101e082015201526004356000526007602052604060002060405190610ef782611fc9565b8054825260018101546001600160a01b039081166020840152600282015460408085019190915260038301548216606085015260048301546080850152600583015460a0850152600683015490911660c0840152600782015460e084015260088201546101008401526009820154610120840152600a82015461014084015251610f8f81610f8881600b8601611f20565b0382612000565b610160830152610fa1600c82016120d6565b610180830152600d81015490600360ff83161015610c6c578160ff600f93166101a085015260018060a01b039060081c166101c0840152600e8101546101e08401520154610200820152604051602081528151602082015260018060a01b0360208301511660408201526040820151606082015260018060a01b036060830151166080820152608082015160a082015260a082015160c082015260018060a01b0360c08301511660e082015260e0820151610100820152610100820151610120820152610120820151610140820152610140820151610160820152611099610160830151610220610180840152610240830190611ea6565b61018083015190601f19838203016101a08401526020808351928381520192019060005b81811061110c57505050610200836110e06101a0859601516101c0860190612021565b6101c08101516001600160a01b03166101e0858101919091528101518285015201516102208301520390f35b82516001600160a01b03168452602093840193909201916001016110bd565b346101f15760003660031901126101f1576004546040516001600160a01b039091168152602090f35b346101f15760203660031901126101f15761116d611e7c565b6111756122c0565b6001600160a01b031661118981151561202e565b6001600160601b0360a01b6005541617600555600080f35b346101f15760003660031901126101f1576020600b54604051908152f35b346101f15760203660031901126101f1576004356111db612318565b6111e361236e565b806000526007602052604060002090600d8201805460ff81166003811015610c6c5761120f901561208a565b600184019160018060a01b03918284541633148015611309575b156112b85760ff19166002179055600454811690813b156101f1576000809260246040518095819362872f9560e71b83528960048401525af190811561094d577fcbf61d8d419107de8b179cae045fc16da88896c5cdc3cba69fde869c26931f73936020936004936112a9575b505416940154604051908152a360018055005b6112b290611fb6565b87611296565b60405162461bcd60e51b8152602060048201526024808201527f496e74656e7452656769737472793a206e6f74206f776e6572206f72206578706044820152631a5c995960e21b6064820152608490fd5b5060098601544211611229565b346101f15760003660031901126101f1576020600a54604051908152f35b346101f15760603660031901126101f157604460248035906004359083359061135b612318565b61136361236e565b8260005260209460078652604060002091600d830180549060ff821660038110156117c357611392901561208a565b60098501544211611780576007850154881061173d57600c8501805415908115611723575b50156116d55760065460405163c3c5a54760e01b81523360048201526001600160a01b0393918416908b818781855afa90811561094d576000916116b8575b5015611667578a6005880154876040518094819363bdaa4e3b60e01b83523360048401528a8301525afa90811561094d5760009161164a575b50156115ec576001600160a81b0319163360081b610100600160a81b0316176001179055600e8401879055600f8401859055600b5461146d9061214a565b600b558060055416888260018701541660a460088801549160006040519586948593630e5d443b60e21b85528d6004860152338b8601528b85015260648401528c60848401525af190811561094d576000916115bf575b5015611568576004818154169160038601541694015493813b156101f157600060849281956040519788968795632723c81760e11b8752600487015285015233908401528860648401525af1801561094d57611559575b50604051928352838301527fc797b2d051b6a232d2042bb4ea4c73217736afaeb25b4c279fa9aae587aa92de60403393a36001805560405160018152f35b61156290611fb6565b8461151b565b60405162461bcd60e51b815260048101899052602b818401527f496e74656e7452656769737472793a207061796d656e74207665726966696361818501526a1d1a5bdb8819985a5b195960aa1b6064820152608490fd5b6115df9150893d8b116115e5575b6115d78183612000565b810190612132565b896114c4565b503d6115cd565b60405162461bcd60e51b8152600481018b90526032818601527f496e74656e7452656769737472793a20736f6c76657220646f6573206e6f7420818701527139bab83837b93a103232b9ba1031b430b4b760711b6064820152608490fd5b61166191508b3d8d116115e5576115d78183612000565b8b61142f565b60405162461bcd60e51b8152600481018c90526025818701527f496e74656e7452656769737472793a20736f6c766572206e6f7420726567697381880152641d195c995960da1b6064820152608490fd5b6116cf91508c8d3d106115e5576115d78183612000565b8c6113f6565b60405162461bcd60e51b8152600481018a90526022818501527f496e74656e7452656769737472793a20736f6c766572206e6f7420616c6c6f778186015261195960f21b6064820152608490fd5b6117379150611731906120d6565b33612579565b8a6113b7565b60405162461bcd60e51b8152600481018a9052601f818501527f496e74656e7452656769737472793a206d696e206465737420616d6f756e740081860152606490fd5b60405162461bcd60e51b8152600481018a90526017818501527f496e74656e7452656769737472793a206578706972656400000000000000000081860152606490fd5b83634e487b7160e01b60005260216004526000fd5b346101f15760203660031901126101f1576117f1611e7c565b6117f96122c0565b6001600160a01b031661180d81151561202e565b6001600160601b0360a01b6004541617600455600080f35b346101f15760203660031901126101f15760043560005260076020526040600020805490600160a01b6001900360018201541691600282015491600160a01b6001900360038201541690600481015492600582015490600160a01b6001900360068401541660078401546008850154600986015491600a87015493604051968780600b8b01906118b491611f20565b036118bf9089612000565b600d8901549a600e8a015499600f01549a6040519e8f9e8f916102009b8352602083015260408201526060015260808d015260a08c015260c08b015260e08a015261010089015261012088015261014087015280610160870152850161192491611ea6565b92611936610180860160ff8316612021565b60081c6001600160a01b03166101a08501526101c08401526101e08301520390f35b346101f15760003660031901126101f1576000546040516001600160a01b039091168152602090f35b346101f15760003660031901126101f1576119bb7f00000000000000000000000000000000000000000000000000000000000000006123b5565b6119e47f00000000000000000000000000000000000000000000000000000000000000006124b9565b6040516020808201928284106001600160401b0385111761096f57916020611a3e8594611a30979660405260008452604051978897600f60f81b895260e0858a015260e0890190611ea6565b908782036040890152611ea6565b91466060870152306080870152600060a087015285830360c0870152519182815201929160005b828110611a7457505050500390f35b835185528695509381019392810192600101611a65565b346101f15760003660031901126101f157611aa46122c0565b611aac61236e565b6000805460ff60a01b1916600160a01b1790556040513381527f62e78cea01bee320cd4e420270b5ea74000d11b0c9f74754ebdbfc544b05a25890602090a1005b346101f15760003660031901126101f157611b066122c0565b600080546001600160a01b0319811682556001600160a01b03167f8be0079c531659141344cd1fd0a4f28419497f9722a3daafe3b4186f6b6457e08280a3005b346101f15760003660031901126101f1576006546040516001600160a01b039091168152602090f35b346101f1576020806003193601126101f157600435906001600160401b03908183116101f157366023840112156101f15782600401359182116101f1576024926024810190602436918560051b0101116101f157611bcb612318565b611bd361236e565b60005b838110611be35760018055005b611bee81858461207a565b3560005260078352604060002090600d8201805460ff81166003811015611cda57611ccf576009840154421115611ccf5760ff191660021790556004546001600160a01b039081169290611c4383888761207a565b35843b156101f157600094898692604051978893849262872f9560e71b845260048401525af193841561094d57600194611cc0575b507fcbf61d8d419107de8b179cae045fc16da88896c5cdc3cba69fde869c26931f73866004611ca8868b8a61207a565b35938786015416940154604051908152a35b01611bd6565b611cc990611fb6565b88611c78565b505060019150611cba565b88634e487b7160e01b60005260216004526000fd5b346101f15760203660031901126101f1576001600160a01b03611d10611e7c565b1660005260086020526020604060002054604051908152f35b346101f15760003660031901126101f157602060ff60005460a01c166040519015158152f35b346101f15760003660031901126101f157611d686122c0565b60005460ff8160a01c1615611daf5760ff60a01b19166000556040513381527f5db9ee0a495bf2e6ff9c91a7834c1ba4fdd244a5e8aa4e537bd38aeae4b073aa90602090a1005b60405162461bcd60e51b815260206004820152601460248201527314185d5cd8589b194e881b9bdd081c185d5cd95960621b6044820152606490fd5b346101f15760203660031901126101f157611e04611e7c565b611e0c6122c0565b6001600160a01b0316611e2081151561202e565b6001600160601b0360a01b6006541617600655600080f35b346101f15760003660031901126101f1576005546040516001600160a01b039091168152602090f35b346101f15760003660031901126101f157602090600a548152f35b600435906001600160a01b03821682036101f157565b35906001600160a01b03821682036101f157565b919082519283825260005b848110611ed2575050826000602080949584010152601f8019910116010190565b602081830181015184830182015201611eb1565b90600182811c92168015611f16575b6020831014611f0057565b634e487b7160e01b600052602260045260246000fd5b91607f1691611ef5565b805460009392611f2f82611ee6565b91828252602093600191600181169081600014611f975750600114611f56575b5050505050565b90939495506000929192528360002092846000945b838610611f8357505050500101903880808080611f4f565b805485870183015294019385908201611f6b565b60ff19168685015250505090151560051b010191503880808080611f4f565b6001600160401b03811161096f57604052565b61022081019081106001600160401b0382111761096f57604052565b604081019081106001600160401b0382111761096f57604052565b90601f801991011681019081106001600160401b0382111761096f57604052565b906003821015610c6c5752565b1561203557565b60405162461bcd60e51b815260206004820152601c60248201527f496e74656e7452656769737472793a207a65726f2061646472657373000000006044820152606490fd5b91908110156109595760051b0190565b1561209157565b60405162461bcd60e51b815260206004820152601860248201527f496e74656e7452656769737472793a206e6f74206f70656e00000000000000006044820152606490fd5b90604051918281549182825260209260208301916000526020600020936000905b82821061210f5750505061210d92500383612000565b565b85546001600160a01b0316845260019586019588955093810193909101906120f7565b908160209103126101f1575180151581036101f15790565b6000198114610d1b5760010190565b356001600160a01b03811681036101f15790565b9190916101409081818503126101f1576040516001600160401b039281018381118282101761096f576040528094823582526020906121ad828501611e92565b8284015260408401356040840152606084013560608401526121d160808501611e92565b608084015260a084013560a084015260c084013560c084015260e084013560e084015261010080850135908401526101209384810135908682116101f1570181601f820112156101f157803595861161096f578560051b906040519661223985840189612000565b875283808801928201019283116101f1578301905b82821061225d57505050500152565b83809161226984611e92565b81520191019061224e565b903590601e19813603018212156101f157018035906001600160401b0382116101f157602001918160051b360383136101f157565b8181106122b4575050565b600081556001016122a9565b6000546001600160a01b031633036122d457565b606460405162461bcd60e51b815260206004820152602060248201527f4f776e61626c653a2063616c6c6572206973206e6f7420746865206f776e65726044820152fd5b600260015414612329576002600155565b60405162461bcd60e51b815260206004820152601f60248201527f5265656e7472616e637947756172643a207265656e7472616e742063616c6c006044820152606490fd5b60ff60005460a01c1661237d57565b60405162461bcd60e51b815260206004820152601060248201526f14185d5cd8589b194e881c185d5cd95960821b6044820152606490fd5b60ff81146123f35760ff811690601f82116123e157604051916123d783611fe5565b8252602082015290565b604051632cd44ac360e21b8152600490fd5b5060405160025481600061240683611ee6565b808352926020906001908181169081156124955750600114612434575b505061243192500382612000565b90565b91509260026000527f405787fa12a823e0f2b7631cc41b3ba8828b3321ca811111fa75cd3aa3bb5ace936000925b82841061247d57506124319450505081016020013880612423565b85548785018301529485019486945092810192612462565b9150506020925061243194915060ff191682840152151560051b8201013880612423565b60ff81146124db5760ff811690601f82116123e157604051916123d783611fe5565b506040516003548160006124ee83611ee6565b80835292602090600190818116908115612495575060011461251857505061243192500382612000565b91509260036000527fc2575a0e9e593c00f959f8c92f12db2869c3395a3b0502d05e2516446f71f85b936000925b82841061256157506124319450505081016020013880612423565b85548785018301529485019486945092810192612546565b60005b82518110156125b257600581901b8301602001516001600160a01b038381169116146125aa5760010161257c565b505050600190565b505050600090565b307f00000000000000000000000000000000000000000000000000000000000000006001600160a01b031614806126bb575b15612615577f000000000000000000000000000000000000000000000000000000000000000090565b60405160208101907f8b73c3c69bb8fe3d512ecc4cf759cc79239f7b179b0ffacaa9a75d522b39400f82527f000000000000000000000000000000000000000000000000000000000000000060408201527f000000000000000000000000000000000000000000000000000000000000000060608201524660808201523060a082015260a0815260c081018181106001600160401b0382111761096f5760405251902090565b507f000000000000000000000000000000000000000000000000000000000000000046146125ec565b9060418151146000146127125761270e916020820151906060604084015193015160001a90612820565b9091565b5050600090600290565b6005811015610c6c578061272d5750565b6001810361277a5760405162461bcd60e51b815260206004820152601860248201527f45434453413a20696e76616c6964207369676e617475726500000000000000006044820152606490fd5b600281036127c75760405162461bcd60e51b815260206004820152601f60248201527f45434453413a20696e76616c6964207369676e6174757265206c656e677468006044820152606490fd5b6003146127d057565b60405162461bcd60e51b815260206004820152602260248201527f45434453413a20696e76616c6964207369676e6174757265202773272076616c604482015261756560f01b6064820152608490fd5b9291907f7fffffffffffffffffffffffffffffff5d576e7357a4501ddfe92f46681b20a083116128a35791608094939160ff602094604051948552168484015260408301526060820152600093849182805260015afa156128965781516001600160a01b03811615612890579190565b50600190565b50604051903d90823e3d90fd5b5050505060009060039056fea2646970667358221220c6103286b2f5366b3407da83030b1e5f704ca7e448b7bc97cbd65d0cdddb073164736f6c63430008180033",
  "linkReferences": {},
  "deployedLinkReferences": {}
}