{
  "_format": "hh-sol-artifact-1",
  "contractName": "IntentRegistry",
  "sourceName": "contracts/IntentRegistry.sol",
  "abi": [
    {
      "inputs": [
        {
          "internalType": "address",
          "name": "_escrow",
          "type": "address"
        },
        {
          "internalType": "address",
          "name": "_paymentVerifier",
          "type": "address"
        },
        {
          "internalType": "address",
          "name": "_priceOracle",
          "type": "address"
        }
      ],
      "stateMutability": "nonpayable",
      "type": "constructor"
    },
    {
      "anonymous": false,
      "inputs": [
        {
          "indexed": true,
          "internalType": "address",
          "name": "newEscrow",
          "type": "address"
        }
      ],
      "name": "EscrowUpdated",
      "type": "event"
    },
    {
      "anonymous": false,
      "inputs": [
        {
          "indexed": true,
          "internalType": "bytes32",
          "name": "intentId",
          "type": "bytes32"
        },
        {
          "indexed": true,
          "internalType": "address",
          "name": "user",
          "type": "address"
        },
        {
          "indexed": false,
          "internalType": "uint256",
          "name": "refundedAmount",
          "type": "uint256"
        },
        {
          "indexed": false,
          "internalType": "uint256",
          "name": "cancelledAt",
          "type": "uint256"
        }
      ],
      "name": "IntentCancelled",
      "type": "event"
    },
    {
      "anonymous": false,
      "inputs": [
        {
          "indexed": true,
          "internalType": "bytes32",
          "name": "intentId",
          "type": "bytes32"
        },
        {
          "indexed": true,
          "internalType": "address",
          "name": "user",
          "type": "address"
        },
        {
          "indexed": true,
          "internalType": "address",
          "name": "token",
          "type": "address"
        },
        {
          "indexed": false,
          "internalType": "uint256",
          "name": "amount",
          "type": "uint256"
        },
        {
          "indexed": false,
          "internalType": "uint256",
          "name": "protocolFee",
          "type": "uint256"
        },
        {
          "indexed": false,
          "internalType": "uint256",
          "name": "expiryTimestamp",
          "type": "uint256"
        }
      ],
      "name": "IntentCreated",
      "type": "event"
    },
    {
      "anonymous": false,
      "inputs": [
        {
          "indexed": true,
          "internalType": "bytes32",
          "name": "intentId",
          "type": "bytes32"
        },
        {
          "indexed": true,
          "internalType": "address",
          "name": "user",
          "type": "address"
        },
        {
          "indexed": false,
          "internalType": "uint256",
          "name": "refundedAmount",
          "type": "uint256"
        },
        {
          "indexed": false,
          "internalType": "uint256",
          "name": "expiredAt",
          "type": "uint256"
        }
      ],
      "name": "IntentExpired",
      "type": "event"
    },
    {
      "anonymous": false,
      "inputs": [
        {
          "indexed": true,
          "internalType": "bytes32",
          "name": "intentId",
          "type": "bytes32"
        },
        {
          "indexed": true,
          "internalType": "address",
          "name": "solver",
          "type": "address"
        },
        {
          "indexed": false,
          "internalType": "uint256",
          "name": "amount",
          "type": "uint256"
        },
        {
          "indexed": false,
          "internalType": "uint256",
          "name": "protocolFee",
          "type": "uint256"
        },
        {
          "indexed": false,
          "internalType": "uint256",
          "name": "fulfilledAt",
          "type": "uint256"
        }
      ],
      "name": "IntentFulfilled",
      "type": "event"
    },
    {
      "anonymous": false,
      "inputs": [
        {
          "indexed": true,
          "internalType": "address",
          "name": "previousOwner",
          "type": "address"
        },
        {
          "indexed": true,
          "internalType": "address",
          "name": "newOwner",
          "type": "address"
        }
      ],
      "name": "OwnershipTransferred",
      "type": "event"
    },
    {
      "anonymous": false,
      "inputs": [
        {
          "indexed": false,
          "internalType": "address",
          "name": "account",
          "type": "address"
        }
      ],
      "name": "Paused",
      "type": "event"
    },
    {
      "anonymous": false,
      "inputs": [
        {
          "indexed": true,
          "internalType": "address",
          "name": "newPaymentVerifier",
          "type": "address"
        }
      ],
      "name": "PaymentVerifierUpdated",
      "type": "event"
    },
    {
      "anonymous": false,
      "inputs": [
        {
          "indexed": true,
          "internalType": "address",
          "name": "newPriceOracle",
          "type": "address"
        }
      ],
      "name": "PriceOracleUpdated",
      "type": "event"
    },
    {
      "anonymous": false,
      "inputs": [
        {
          "indexed": true,
          "internalType": "bytes32",
          "name": "intentId",
          "type": "bytes32"
        },
        {
          "indexed": true,
          "internalType": "address",
          "name": "solver",
          "type": "address"
        }
      ],
      "name": "SolverAssigned",
      "type": "event"
    },
    {
      "anonymous": false,
      "inputs": [
        {
          "indexed": true,
          "internalType": "address",
          "name": "newSolverRegistry",
          "type": "address"
        }
      ],
      "name": "SolverRegistryUpdated",
      "type": "event"
    },
    {
      "anonymous": false,
      "inputs": [
        {
          "indexed": false,
          "internalType": "address",
          "name": "account",
          "type": "address"
        }
      ],
      "name": "Unpaused",
      "type": "event"
    },
    {
      "inputs": [],
      "name": "MAX_EXPIRY",
      "outputs": [
        {
          "internalType": "uint256",
          "name": "",
          "type": "uint256"
        }
      ],
      "stateMutability": "view",
      "type": "function"
    },
    {
      "inputs": [],
      "name": "MIN_AMOUNT",
      "outputs": [
        {
          "internalType": "uint256",
          "name": "",
          "type": "uint256"
        }
      ],
      "stateMutability": "view",
      "type": "function"
    },
    {
      "inputs": [
        {
          "internalType": "bytes32",
          "name": "intentId",
          "type": "bytes32"
        }
      ],
      "name": "cancelIntent",
      "outputs": [],
      "stateMutability": "nonpayable",
      "type": "function"
    },
    {
      "inputs": [
        {
          "internalType": "bytes32",
          "name": "intentId",
          "type": "bytes32"
        },
        {
          "internalType": "address",
          "name": "token",
          "type": "address"
        },
        {
          "internalType": "uint256",
          "name": "amount",
          "type": "uint256"
        },
        {
          "internalType": "uint256",
          "name": "expiryTimestamp",
          "type": "uint256"
        }
      ],
      "name": "createIntent",
      "outputs": [
        {
          "internalType": "bool",
          "name": "",
          "type": "bool"
        }
      ],
      "stateMutability": "nonpayable",
      "type": "function"
    },
    {
      "inputs": [],
      "name": "escrow",
      "outputs": [
        {
          "internalType": "contract Escrow",
          "name": "",
          "type": "address"
        }
      ],
      "stateMutability": "view",
      "type": "function"
    },
    {
      "inputs": [
        {
          "internalType": "bytes32",
          "name": "intentId",
          "type": "bytes32"
        }
      ],
      "name": "expireIntent",
      "outputs": [],
      "stateMutability": "nonpayable",
      "type": "function"
    },
    {
      "inputs": [
        {
          "internalType": "bytes32",
          "name": "intentId",
          "type": "bytes32"
        },
        {
          "internalType": "address",
          "name": "solver",
          "type": "address"
        },
        {
          "internalType": "bytes",
          "name": "paymentProofBytes",
          "type": "bytes"
        }
      ],
      "name": "fulfillIntentWithBytes",
      "outputs": [],
      "stateMutability": "nonpayable",
      "type": "function"
    },
    {
      "inputs": [
        {
          "internalType": "bytes32",
          "name": "intentId",
          "type": "bytes32"
        },
        {
          "internalType": "address",
          "name": "solver",
          "type": "address"
        },
        {
          "internalType": "bytes",
          "name": "paymentProofBytes",
          "type": "bytes"
        },
        {
          "internalType": "address",
          "name": "pair",
          "type": "address"
        },
        {
          "internalType": "address",
          "name": "tokenOut",
          "type": "address"
        },
        {
          "internalType": "uint256",
          "name": "expectedAmountOut",
          "type": "uint256"
        },
        {
          "internalType": "uint256",
          "name": "actualAmountOut",
          "type": "uint256"
        }
      ],
      "name": "fulfillIntentWithPriceCheck",
      "outputs": [],
      "stateMutability": "nonpayable",
      "type": "function"
    },
    {
      "inputs": [
        {
          "internalType": "bytes32",
          "name": "intentId",
          "type": "bytes32"
        }
      ],
      "name": "getIntent",
      "outputs": [
        {
          "components": [
            {
              "internalType": "bytes32",
              "name": "id",
              "type": "bytes32"
            },
            {
              "internalType": "address",
              "name": "user",
              "type": "address"
            },
            {
              "internalType": "address",
              "name": "solver",
              "type": "address"
            },
            {
              "internalType": "address",
              "name": "token",
              "type": "address"
            },
            {
              "internalType": "uint256",
              "name": "amount",
              "type": "uint256"
            },
            {
              "internalType": "uint256",
              "name": "protocolFee",
              "type": "uint256"
            },
            {
              "internalType": "uint256",
              "name": "expiryTimestamp",
              "type": "uint256"
            },
            {
              "internalType": "enum IntentRegistry.IntentStatus",
              "name": "status",
              "type": "uint8"
            },
            {
              "internalType": "bytes32",
              "name": "paymentProofHash",
              "type": "bytes32"
            },
            {
              "internalType": "uint256",
              "name": "createdAt",
              "type": "uint256"
            },
            {
              "internalType": "uint256",
              "name": "fulfilledAt",
              "type": "uint256"
            }
          ],
          "internalType": "struct IntentRegistry.Intent",
          "name": "",
          "type": "tuple"
        }
      ],
      "stateMutability": "view",
      "type": "function"
    },
    {
      "inputs": [
        {
          "internalType": "bytes32",
          "name": "intentId",
          "type": "bytes32"
        }
      ],
      "name": "getIntentTuple",
      "outputs": [
        {
          "internalType": "address",
          "name": "creator",
          "type": "address"
        },
        {
          "internalType": "address",
          "name": "token",
          "type": "address"
        },
        {
          "internalType": "uint256",
          "name": "amount",
          "type": "uint256"
        },
        {
          "internalType": "uint256",
          "name": "minOutput",
          "type": "uint256"
        },
        {
          "internalType": "uint256",
          "name": "expiry",
          "type": "uint256"
        },
        {
          "internalType": "uint8",
          "name": "status",
          "type": "uint8"
        }
      ],
      "stateMutability": "view",
      "type": "function"
    },
    {
      "inputs": [
        {
          "internalType": "address",
          "name": "solver",
          "type": "address"
        }
      ],
      "name": "getSolverIntents",
      "outputs": [
        {
          "internalType": "bytes32[]",
          "name": "",
          "type": "bytes32[]"
        }
      ],
      "stateMutability": "view",
      "type": "function"
    },
    {
      "inputs": [],
      "name": "getTotalIntents",
      "outputs": [
        {
          "internalType": "uint256",
          "name": "",
          "type": "uint256"
        }
      ],
      "stateMutability": "view",
      "type": "function"
    },
    {
      "inputs": [],
      "name": "getTotalIntentsFulfilled",
      "outputs": [
        {
          "internalType": "uint256",
          "name": "",
          "type": "uint256"
        }
      ],
      "stateMutability": "view",
      "type": "function"
    },
    {
      "inputs": [],
      "name": "getTotalProtocolFees",
      "outputs": [
        {
          "internalType": "uint256",
          "name": "",
          "type": "uint256"
        }
      ],
      "stateMutability": "view",
      "type": "function"
    },
    {
      "inputs": [
        {
          "internalType": "address",
          "name": "user",
          "type": "address"
        }
      ],
      "name": "getUserIntents",
      "outputs": [
        {
          "internalType": "bytes32[]",
          "name": "",
          "type": "bytes32[]"
        }
      ],
      "stateMutability": "view",
      "type": "function"
    },
    {
      "inputs": [
        {
          "internalType": "bytes32",
          "name": "",
          "type": "bytes32"
        }
      ],
      "name": "intents",
      "outputs": [
        {
          "internalType": "bytes32",
          "name": "id",
          "type": "bytes32"
        },
        {
          "internalType": "address",
          "name": "user",
          "type": "address"
        },
        {
          "internalType": "address",
          "name": "solver",
          "type": "address"
        },
        {
          "internalType": "address",
          "name": "token",
          "type": "address"
        },
        {
          "internalType": "uint256",
          "name": "amount",
          "type": "uint256"
        },
        {
          "internalType": "uint256",
          "name": "protocolFee",
          "type": "uint256"
        },
        {
          "internalType": "uint256",
          "name": "expiryTimestamp",
          "type": "uint256"
        },
        {
          "internalType": "enum IntentRegistry.IntentStatus",
          "name": "status",
          "type": "uint8"
        },
        {
          "internalType": "bytes32",
          "name": "paymentProofHash",
          "type": "bytes32"
        },
        {
          "internalType": "uint256",
          "name": "createdAt",
          "type": "uint256"
        },
        {
          "internalType": "uint256",
          "name": "fulfilledAt",
          "type": "uint256"
        }
      ],
      "stateMutability": "view",
      "type": "function"
    },
    {
      "inputs": [
        {
          "internalType": "bytes32",
          "name": "intentId",
          "type": "bytes32"
        }
      ],
      "name": "isIntentFulfilled",
      "outputs": [
        {
          "internalType": "bool",
          "name": "",
          "type": "bool"
        }
      ],
      "stateMutability": "view",
      "type": "function"
    },
    {
      "inputs": [
        {
          "internalType": "bytes32",
          "name": "intentId",
          "type": "bytes32"
        }
      ],
      "name": "isIntentPending",
      "outputs": [
        {
          "internalType": "bool",
          "name": "",
          "type": "bool"
        }
      ],
      "stateMutability": "view",
      "type": "function"
    },
    {
      "inputs": [],
      "name": "owner",
      "outputs": [
        {
          "internalType": "address",
          "name": "",
          "type": "address"
        }
      ],
      "stateMutability": "view",
      "type": "function"
    },
    {
      "inputs": [],
      "name": "pause",
      "outputs": [],
      "stateMutability": "nonpayable",
      "type": "function"
    },
    {
      "inputs": [],
      "name": "paused",
      "outputs": [
        {
          "internalType": "bool",
          "name": "",
          "type": "bool"
        }
      ],
      "stateMutability": "view",
      "type": "function"
    },
    {
      "inputs": [],
      "name": "paymentVerifier",
      "outputs": [
        {
          "internalType": "contract PaymentVerifier",
          "name": "",
          "type": "address"
        }
      ],
      "stateMutability": "view",
      "type": "function"
    },
    {
      "inputs": [],
      "name": "priceOracle",
      "outputs": [
        {
          "internalType": "contract PriceOracle",
          "name": "",
          "type": "address"
        }
      ],
      "stateMutability": "view",
      "type": "function"
    },
    {
      "inputs": [],
      "name": "renounceOwnership",
      "outputs": [],
      "stateMutability": "nonpayable",
      "type": "function"
    },
    {
      "inputs": [
        {
          "internalType": "address",
          "name": "newEscrow",
          "type": "address"
        }
      ],
      "name": "setEscrow",
      "outputs": [],
      "stateMutability": "nonpayable",
      "type": "function"
    },
    {
      "inputs": [
        {
          "internalType": "address",
          "name": "newPaymentVerifier",
          "type": "address"
        }
      ],
      "name": "setPaymentVerifier",
      "outputs": [],
      "stateMutability": "nonpayable",
      "type": "function"
    },
    {
      "inputs": [
        {
          "internalType": "address",
          "name": "newPriceOracle",
          "type": "address"
        }
      ],
      "name": "setPriceOracle",
      "outputs": [],
      "stateMutability": "nonpayable",
      "type": "function"
    },
    {
      "inputs": [
        {
          "internalType": "address",
          "name": "newSolverRegistry",
          "type": "address"
        }
      ],
      "name": "setSolverRegistry",
      "outputs": [],
      "stateMutability": "nonpayable",
      "type": "function"
    },
    {
      "inputs": [
        {
          "internalType": "address",
          "name": "",
          "type": "address"
        },
        {
          "internalType": "uint256",
          "name": "",
          "type": "uint256"
        }
      ],
      "name": "solverIntents",
      "outputs": [
        {
          "internalType": "bytes32",
          "name": "",
          "type": "bytes32"
        }
      ],
      "stateMutability": "view",
      "type": "function"
    },
    {
      "inputs": [],
      "name": "solverRegistry",
      "outputs": [
        {
          "internalType": "contract SolverRegistry",
          "name": "",
          "type": "address"
        }
      ],
      "stateMutability": "view",
      "type": "function"
    },
    {
      "inputs": [],
      "name": "totalIntents",
      "outputs": [
        {
          "internalType": "uint256",
          "name": "",
          "type": "uint256"
        }
      ],
      "stateMutability": "view",
      "type": "function"
    },
    {
      "inputs": [],
      "name": "totalIntentsFulfilled",
      "outputs": [
        {
          "internalType": "uint256",
          "name": "",
          "type": "uint256"
        }
      ],
      "stateMutability": "view",
      "type": "function"
    },
    {
      "inputs": [],
      "name": "totalProtocolFees",
      "outputs": [
        {
          "internalType": "uint256",
          "name": "",
          "type": "uint256"
        }
      ],
      "stateMutability": "view",
      "type": "function"
    },
    {
      "inputs": [
        {
          "internalType": "address",
          "name": "newOwner",
          "type": "address"
        }
      ],
      "name": "transferOwnership",
      "outputs": [],
      "stateMutability": "nonpayable",
      "type": "function"
    },
    {
      "inputs": [],
      "name": "unpause",
      "outputs": [],
      "stateMutability": "nonpayable",
      "type": "function"
    },
    {
      "inputs": [
        {
          "internalType": "address",
          "name": "",
          "type": "address"
        },
        {
          "internalType": "uint256",
          "name": "",
          "type": "uint256"
        }
      ],
      "name": "userIntents",
      "outputs": [
        {
          "internalType": "bytes32",
          "name": "",
          "type": "bytes32"
        }
      ],
      "stateMutability": "view",
      "type": "function"
    }
  ],
  "bytecode": "0x608034620001f257601f6200221638819003918201601f191683019291906001600160401b03841183851017620001f7578160609284926040968752833981010312620001f25762000051816200020d565b906200006d8362000065602084016200020d565b92016200020d565b916000549184519260018060a01b03928391338382167f8be0079c531659141344cd1fd0a4f28419497f9722a3daafe3b4186f6b6457e0600080a36001600160a81b0319163360ff60a01b1916176000556001805516928315620001b0575081169283156200015e5716918215620001105760018060a01b031991826002541617600255816003541617600355600554161760055551611ff39081620002238239f35b835162461bcd60e51b815260206004820152602160248201527f496e74656e7452656769737472793a207a65726f207072696365206f7261636c6044820152606560f81b6064820152608490fd5b845162461bcd60e51b815260206004820152602560248201527f496e74656e7452656769737472793a207a65726f207061796d656e742076657260448201526434b334b2b960d91b6064820152608490fd5b62461bcd60e51b815260206004820152601b60248201527f496e74656e7452656769737472793a207a65726f20657363726f7700000000006044820152606490fd5b600080fd5b634e487b7160e01b600052604160045260246000fd5b51906001600160a01b0382168203620001f25756fe608080604052600436101561001357600080fd5b600090813560e01c90816316dbac5b1461189c57508063200020fc146117545780632630c12f1461172b57806328ff879f146117025780632c37b525146116935780633f4ba83a146115f8578063530e784f146115895780635c975abb1461156457806365fa4347146113a75780636ca876cc1461118a5780636f4c58e214611161578063715018a6146111075780637e4be11914610b615780638456cb5914610b0057806389c9c3ae14610ab85780638b52737414610a795780638da5cb5b14610a525780638ff500ca146109df5780639021578a1461092c578063923e22fe1461057d5780639c54563914610236578063a56c189e1461089f578063b967169014610881578063c10c354614610812578063c2a3e13c146107bc578063ce6caa711461077f578063d06a54f414610761578063d55f960d1461059b578063d6abb2d71461057d578063d95f27591461050e578063ddbcb5fa146104f0578063e2fdcc17146104c7578063f13c46aa1461031a578063f2fde38b14610254578063f526e39a146102365763fa3209b2146101ad57600080fd5b346102335760208060031936011261022f576001600160a01b036101cf6118ce565b1682526007815260408220916040518092808554928381520194835280832092905b828210610218576102148561020881890382611a27565b60405191829182611940565b0390f35b8354865294850194600193840193909101906101f1565b5080fd5b80fd5b50346102335780600319360112610233576020600b54604051908152f35b50346102335760203660031901126102335761026e6118ce565b61027661199e565b6001600160a01b039081169081156102c657600054826001600160601b0360a01b821617600055167f8be0079c531659141344cd1fd0a4f28419497f9722a3daafe3b4186f6b6457e0600080a380f35b60405162461bcd60e51b815260206004820152602660248201527f4f776e61626c653a206e6577206f776e657220697320746865207a65726f206160448201526564647265737360d01b6064820152608490fd5b5034610233576020366003190112610233578061014060405161033c81611a0a565b8281528260208201528260408201528260608201528260808201528260a08201528260c08201528260e0820152826101008201528261012082015201526004358152600660205260408120906040519061039582611a0a565b8254825260018301546001600160a01b03908116602084015260028401548116604084015260038401541660608301526004808401546080840152600584015460a0840152600684015460c0840152600784015460ff1691908210156104b3575061016092600a9160e0840152600881015461010084015260098101546101208401520154610140820152610140604051918051835260018060a01b03602082015116602084015260018060a01b03604082015116604084015260018060a01b0360608201511660608401526080810151608084015260a081015160a084015260c081015160c084015261049160e082015160e085019061197b565b6101008101516101008401526101208101516101208401520151610140820152f35b634e487b7160e01b81526021600452602490fd5b50346102335780600319360112610233576002546040516001600160a01b039091168152602090f35b50346102335780600319360112610233576020604051620f42408152f35b5034610233576020366003190112610233576105286118ce565b61053061199e565b6001600160a01b0316610544811515611f71565b600380546001600160a01b031916821790557fc141915a52984dec25d66842b2a3c5e3b94af1293828467893055b381d0d29de8280a280f35b50346102335780600319360112610233576020600a54604051908152f35b50346102335760208060031936011261022f576004356105b9611aef565b6105c1611aa8565b808352600682526105da60096040852001541515611c4d565b8083526006825260ff600760408520015416600481101561074d576105ff9015611c98565b8083526006825260408320600101546001600160a01b03908116330361070a5781845260068352836040812060078101600260ff1982541617905582600254169260048160038401541691600184015416920193845490803b15610706576040516360a517e760e01b81526001600160a01b03938416600482015293909216602484015260448301526064820185905282908290608490829084905af180156106fb576106e3575b5050549160405192835242908301527f657cc165bb8bd5b4fa7dfe3ff71ec8e9e86a5c0c48f57dac4d2bbff348e763ad60403393a36001805580f35b6106ec906119f6565b6106f75783386106a7565b8380fd5b6040513d84823e3d90fd5b8480fd5b6064836040519062461bcd60e51b825280600483015260248201527f496e74656e7452656769737472793a206e6f7420696e74656e74206f776e65726044820152fd5b634e487b7160e01b84526021600452602484fd5b50346102335780600319360112610233576020600954604051908152f35b5034610233576020366003190112610233576004358152600660205260ff6007604083200154169060048210156104b35760208260405190158152f35b5034610233576040366003190112610233576107d66118ce565b6001600160a01b03168152600860205260408120805460243592908310156102335760206108048484611912565b90546040519160031b1c8152f35b50346102335760203660031901126102335761082c6118ce565b61083461199e565b6001600160a01b0316610848811515611f71565b600280546001600160a01b031916821790557f43ab431641dd45dd0661cad4b820e826d7c526af92e3121e1242d721f82ab3ad8280a280f35b5034610233578060031936011261023357602060405162278d008152f35b503461023357602036600319011261023357600435815260066020526040812060018060a01b0390816001820154169160038201541690600481015460ff60076006840154930154169260048410156109185760c0955060405194855260208501528060408501526060840152608083015260a0820152f35b634e487b7160e01b86526021600452602486fd5b503461023357602036600319011261023357604061016091600435815260066020522080549060018060a01b039081600182015416916109cb81600284015416916003840154166004840154600585015460068601549160ff60078801541693600888015496600a60098a0154990154996040519b8c5260208c015260408b015260608a0152608089015260a088015260c087015260e086019061197b565b610100840152610120830152610140820152f35b50346102335760208060031936011261022f576001600160a01b03610a026118ce565b1682526008815260408220916040518092808554928381520194835280832092905b828210610a3b576102148561020881890382611a27565b835486529485019460019384019390910190610a24565b5034610233578060031936011261023357546040516001600160a01b039091168152602090f35b5034610233576020366003190112610233576004358152600660205260ff6007604083200154169060048210156104b357602082600160405191148152f35b503461023357604036600319011261023357610ad26118ce565b6001600160a01b03168152600760205260408120805460243592908310156102335760206108048484611912565b5034610233578060031936011261023357610b1961199e565b610b21611aa8565b805460ff60a01b1916600160a01b1781556040513381527f62e78cea01bee320cd4e420270b5ea74000d11b0c9f74754ebdbfc544b05a25890602090a180f35b503461023357608036600319011261023357610b7b6118b8565b610b83611aef565b610b8b611aa8565b600435156110c2576001600160a01b0381161561107d57620f42406044351061103957426064351115610ff45762278d004201804211610fe05760643511610f9b57600435825260066020526009604083200154610f565760025460405163271f09c360e21b815260443560048201529290602090849060249082906001600160a01b03165afa928315610f49578193610f11575b5060043581526006602052604081206004358155600181016001600160601b0360a01b903382825416179055600382019060018060a01b03851690825416179055604435600482015583600582015560643560068201556007810160ff1981541690556009429101553381526007602052610ca060043560408320611a49565b60018060a01b0360025416604051906323b872dd60e01b6020830152336024830152604482015260443560648201526064815267ffffffffffffffff8160a08101108160a084011117610efb5760a0820160e08301109060e083011117610efb578060e0610d8a9201604052602060a08201527f5361666545524332303a206c6f772d6c6576656c2063616c6c206661696c656460c082015282808251602084018260018060a01b0389165af1903d15610ef15760a03d91610d6183611b45565b92610d6f6040519485611a27565b83523d86602085013e5b01916001600160a01b038616611b79565b8051908115918215610ed7575b505015610e7f576002546001600160a01b0316803b1561022f57604051630693548560e11b81526001600160a01b03841660048083019190915233602483015260448035908301523560648201529082908290608490829084905af180156106fb57610e6b575b5050610e0b600954611a83565b6009556040805160443581526020810193909352606435908301526001600160a01b0316903390600435907fd40e7194b5f545c40a921075f3e668a63b188bccabe349b90984e2d06b131a8190606090a460018055602060405160018152f35b610e7582916119f6565b6102335780610dfe565b60405162461bcd60e51b815260206004820152602a60248201527f5361666545524332303a204552433230206f7065726174696f6e20646964206e6044820152691bdd081cdd58d8d9595960b21b6064820152608490fd5b610eea9250602080918301019101611b61565b3880610d97565b60a0606091610d79565b634e487b7160e01b600052604160045260246000fd5b9092506020813d602011610f41575b81610f2d60209383611a27565b81010312610f3d57519138610c20565b8280fd5b3d9150610f20565b50604051903d90823e3d90fd5b60405162461bcd60e51b815260206004820152601d60248201527f496e74656e7452656769737472793a20696e74656e74206578697374730000006044820152606490fd5b60405162461bcd60e51b815260206004820152601e60248201527f496e74656e7452656769737472793a2065787069727920746f6f2066617200006044820152606490fd5b634e487b7160e01b83526011600452602483fd5b60405162461bcd60e51b815260206004820152601e60248201527f496e74656e7452656769737472793a2065787069727920696e207061737400006044820152606490fd5b606460405162461bcd60e51b815260206004820152602060248201527f496e74656e7452656769737472793a20616d6f756e7420746f6f20736d616c6c6044820152fd5b60405162461bcd60e51b815260206004820152601a60248201527f496e74656e7452656769737472793a207a65726f20746f6b656e0000000000006044820152606490fd5b60405162461bcd60e51b815260206004820152601e60248201527f496e74656e7452656769737472793a207a65726f20696e74656e7420696400006044820152606490fd5b503461023357806003193601126102335761112061199e565b600080546001600160a01b0319811682556001600160a01b03167f8be0079c531659141344cd1fd0a4f28419497f9722a3daafe3b4186f6b6457e08280a380f35b50346102335780600319360112610233576004546040516001600160a01b039091168152602090f35b50346102335760e0366003190112610233576004356111a76118b8565b60443567ffffffffffffffff81116106f7576111c79036906004016118e4565b916064359360018060a01b038086168096036113a2576084358181168091036113a2576111f2611aef565b6111fa611aa8565b82885260209160068352611216600960408b2001541515611c4d565b8389526006835260ff600760408b20015416600481101561138e5761123b9015611c98565b808516611249811515611ce4565b848a5260068452611263600660408c200154421115611d30565b838260045416918261132d575b50505080600554169081611294575b5050505061128d9450611dd6565b6001805580f35b83929160a491868c5260068552600360408d20015416906040519a8b94859363b088bdd360e01b85526004850152602484015260448301528235606483015260c43560848301525afa9586156113225761128d966112f4575b808061127f565b8161131392903d1061131b575b61130b8183611a27565b810190611b61565b5038806112ed565b503d611301565b6040513d89823e3d90fd5b60246040518094819363c3c5a54760e01b835260048301525afa80156113835761135e918b91611366575b50611d7c565b388381611270565b61137d9150853d871161131b5761130b8183611a27565b38611358565b6040513d8c823e3d90fd5b634e487b7160e01b8a52602160045260248afd5b600080fd5b50346102335760208060031936011261022f576004356113c5611aef565b6113cd611aa8565b808352600682526113e660096040852001541515611c4d565b8083526006825260ff600760408520015416600481101561074d5761140b9015611c98565b80835260068252604083209160068301544211156115205760078301600360ff1982541617905560018060a01b0380600254169381600382015416866001830192600485855416910197885491813b156106f7576040516360a517e760e01b81526001600160a01b039586166004820152941660248501526044840191909152606483018790528290608490829084905af18015611322576114e6575b50916040917f3a33bc51e67ddf0cd3356f149c08bd73473e9b8bdf103c0bd34aa28b482cccf793541694549082519182524290820152a36001805580f35b917f3a33bc51e67ddf0cd3356f149c08bd73473e9b8bdf103c0bd34aa28b482cccf79391966115166040946119f6565b96919350916114a8565b6064906040519062461bcd60e51b82526004820152601f60248201527f496e74656e7452656769737472793a206e6f74206578706972656420796574006044820152fd5b503461023357806003193601126102335760ff6020915460a01c166040519015158152f35b5034610233576020366003190112610233576115a36118ce565b6115ab61199e565b6001600160a01b03166115bf811515611f71565b600580546001600160a01b031916821790557fefe8ab924ca486283a79dc604baa67add51afb82af1db8ac386ebbba643cdffd8280a280f35b503461023357806003193601126102335761161161199e565b805460ff8160a01c16156116575760ff60a01b191681556040513381527f5db9ee0a495bf2e6ff9c91a7834c1ba4fdd244a5e8aa4e537bd38aeae4b073aa90602090a180f35b60405162461bcd60e51b815260206004820152601460248201527314185d5cd8589b194e881b9bdd081c185d5cd95960621b6044820152606490fd5b5034610233576020366003190112610233576116ad6118ce565b6116b561199e565b6001600160a01b03166116c9811515611f71565b600480546001600160a01b031916821790557f6fe5a41e40c65c96997d4c7fa32369b325af1cb7c8494716121a9cce6004b13a8280a280f35b50346102335780600319360112610233576003546040516001600160a01b039091168152602090f35b50346102335780600319360112610233576005546040516001600160a01b039091168152602090f35b5034610233576060366003190112610233576004356117716118b8565b60443567ffffffffffffffff81116106f7576117919036906004016118e4565b9161179a611aef565b6117a2611aa8565b838552602093600685526117be60096040882001541515611c4d565b8086526006855260ff6007604088200154166004811015611888576117e39015611c98565b6001600160a01b0382811695906117fb871515611ce4565b82885260068252611815600660408a200154421115611d30565b60045416958661182c575b505061128d9450611dd6565b819060246040518099819363c3c5a54760e01b835260048301525afa80156113225761128d9661186492899261186b575b5050611d7c565b3880611820565b6118819250803d1061131b5761130b8183611a27565b388061185d565b634e487b7160e01b87526021600452602487fd5b90503461022f578160031936011261022f576020906009548152f35b602435906001600160a01b03821682036113a257565b600435906001600160a01b03821682036113a257565b9181601f840112156113a25782359167ffffffffffffffff83116113a257602083818601950101116113a257565b805482101561192a5760005260206000200190600090565b634e487b7160e01b600052603260045260246000fd5b6020908160408183019282815285518094520193019160005b828110611967575050505090565b835185529381019392810192600101611959565b9060048210156119885752565b634e487b7160e01b600052602160045260246000fd5b6000546001600160a01b031633036119b257565b606460405162461bcd60e51b815260206004820152602060248201527f4f776e61626c653a2063616c6c6572206973206e6f7420746865206f776e65726044820152fd5b67ffffffffffffffff8111610efb57604052565b610160810190811067ffffffffffffffff821117610efb57604052565b90601f8019910116810190811067ffffffffffffffff821117610efb57604052565b805468010000000000000000811015610efb57611a6b91600182018155611912565b819291549060031b91821b91600019901b1916179055565b6000198114611a925760010190565b634e487b7160e01b600052601160045260246000fd5b60ff60005460a01c16611ab757565b60405162461bcd60e51b815260206004820152601060248201526f14185d5cd8589b194e881c185d5cd95960821b6044820152606490fd5b600260015414611b00576002600155565b60405162461bcd60e51b815260206004820152601f60248201527f5265656e7472616e637947756172643a207265656e7472616e742063616c6c006044820152606490fd5b67ffffffffffffffff8111610efb57601f01601f191660200190565b908160209103126113a2575180151581036113a25790565b91929015611bdb5750815115611b8d575090565b3b15611b965790565b60405162461bcd60e51b815260206004820152601d60248201527f416464726573733a2063616c6c20746f206e6f6e2d636f6e74726163740000006044820152606490fd5b825190915015611bee5750805190602001fd5b6040519062461bcd60e51b82528160208060048301528251908160248401526000935b828510611c34575050604492506000838284010152601f80199101168101030190fd5b8481018201518686016044015293810193859350611c11565b15611c5457565b606460405162461bcd60e51b815260206004820152602060248201527f496e74656e7452656769737472793a20696e74656e74206e6f7420666f756e646044820152fd5b15611c9f57565b60405162461bcd60e51b815260206004820152601b60248201527f496e74656e7452656769737472793a206e6f742070656e64696e6700000000006044820152606490fd5b15611ceb57565b60405162461bcd60e51b815260206004820152601b60248201527f496e74656e7452656769737472793a207a65726f20736f6c76657200000000006044820152606490fd5b15611d3757565b60405162461bcd60e51b815260206004820152601e60248201527f496e74656e7452656769737472793a20696e74656e74206578706972656400006044820152606490fd5b15611d8357565b60405162461bcd60e51b815260206004820152602560248201527f496e74656e7452656769737472793a20736f6c766572206e6f742072656769736044820152641d195c995960da1b6064820152608490fd5b9192600091838352600660205260409182842090600282019660018060a01b039182851698896001600160601b0360a01b82541617905560078401600160ff19825416179055611e2581611b45565b90611e3287519283611a27565b80825260208201923682820111611f6d57818992602092863783010152519020600883015542600a8301558685526008602052611e7186858720611a49565b806002541690600383015416906004830193845492823b15611f69578651630bb7df5f60e11b81526001600160a01b0391821660048201529116602482015260448101929092526064820187905285908290608490829084905af18015611f5f579060059291611f50575b50611ee8600a54611a83565b600a550192835490600b54918201809211611f3c5750600b55549154905191825260208201524260408201527f7211da5fbb29b12bb1346188de7df83166a26ca5a4da05212ef476b81c76252190606090a3565b634e487b7160e01b81526011600452602490fd5b611f59906119f6565b38611edc565b84513d87823e3d90fd5b8780fd5b8880fd5b15611f7857565b60405162461bcd60e51b815260206004820152601c60248201527f496e74656e7452656769737472793a207a65726f2061646472657373000000006044820152606490fdfea2646970667358221220918b565286bf0321744dd4e344480f3ac9f4c806533918010a52a7aa18a4e11464736f6c63430008130033",
  "linkReferences": {},
  "deployedLinkReferences": {}
}