{
  "_format": "hh-sol-artifact-1",
  "contractName": "SolverRegistry",
  "sourceName": "contracts/SolverRegistry.sol",
  "abi": [
    {
      "inputs": [],
      "stateMutability": "nonpayable",
      "type": "constructor"
    },
    {
      "anonymous": false,
      "inputs": [
        {
          "indexed": true,
          "internalType": "address",
          "name": "previousOwner",
          "type": "address"
        },
        {
          "indexed": true,
          "internalType": "address",
          "name": "newOwner",
          "type": "address"
        }
      ],
      "name": "OwnershipTransferred",
      "type": "event"
    },
    {
      "anonymous": false,
      "inputs": [
        {
          "indexed": true,
          "internalType": "uint256",
          "name": "solverId",
          "type": "uint256"
        },
        {
          "indexed": true,
          "internalType": "address",
          "name": "solverAddress",
          "type": "address"
        }
      ],
      "name": "SolverDeactivated",
      "type": "event"
    },
    {
      "anonymous": false,
      "inputs": [
        {
          "indexed": true,
          "internalType": "uint256",
          "name": "solverId",
          "type": "uint256"
        },
        {
          "indexed": true,
          "internalType": "address",
          "name": "solverAddress",
          "type": "address"
        }
      ],
      "name": "SolverReactivated",
      "type": "event"
    },
    {
      "anonymous": false,
      "inputs": [
        {
          "indexed": true,
          "internalType": "uint256",
          "name": "solverId",
          "type": "uint256"
        },
        {
          "indexed": true,
          "internalType": "address",
          "name": "solverAddress",
          "type": "address"
        },
        {
          "indexed": false,
          "internalType": "string",
          "name": "name",
          "type": "string"
        },
        {
          "indexed": false,
          "internalType": "uint256",
          "name": "feeBps",
          "type": "uint256"
        },
        {
          "indexed": false,
          "internalType": "uint256[]",
          "name": "supportedChains",
          "type": "uint256[]"
        }
      ],
      "name": "SolverRegistered",
      "type": "event"
    },
    {
      "anonymous": false,
      "inputs": [
        {
          "indexed": true,
          "internalType": "address",
          "name": "solverAddress",
          "type": "address"
        },
        {
          "indexed": false,
          "internalType": "uint256[]",
          "name": "supportedChains",
          "type": "uint256[]"
        }
      ],
      "name": "SupportedChainsUpdated",
      "type": "event"
    },
    {
      "inputs": [
        {
          "internalType": "uint256",
          "name": "solverId",
          "type": "uint256"
        }
      ],
      "name": "deactivateSolver",
      "outputs": [],
      "stateMutability": "nonpayable",
      "type": "function"
    },
    {
      "inputs": [
        {
          "internalType": "uint256",
          "name": "solverId",
          "type": "uint256"
        }
      ],
      "name": "getSolver",
      "outputs": [
        {
          "components": [
            {
              "internalType": "address",
              "name": "solverAddress",
              "type": "address"
            },
            {
              "internalType": "string",
              "name": "name",
              "type": "string"
            },
            {
              "internalType": "uint256",
              "name": "feeBps",
              "type": "uint256"
            },
            {
              "internalType": "bool",
              "name": "active",
              "type": "bool"
            },
            {
              "internalType": "uint256",
              "name": "registeredAt",
              "type": "uint256"
            },
            {
              "internalType": "uint256[]",
              "name": "supportedChains",
              "type": "uint256[]"
            }
          ],
          "internalType": "struct ISolverRegistry.Solver",
          "name": "",
          "type": "tuple"
        }
      ],
      "stateMutability": "view",
      "type": "function"
    },
    {
      "inputs": [
        {
          "internalType": "address",
          "name": "solver",
          "type": "address"
        }
      ],
      "name": "getSolverByAddress",
      "outputs": [
        {
          "components": [
            {
              "internalType": "address",
              "name": "solverAddress",
              "type": "address"
            },
            {
              "internalType": "string",
              "name": "name",
              "type": "string"
            },
            {
              "internalType": "uint256",
              "name": "feeBps",
              "type": "uint256"
            },
            {
              "internalType": "bool",
              "name": "active",
              "type": "bool"
            },
            {
              "internalType": "uint256",
              "name": "registeredAt",
              "type": "uint256"
            },
            {
              "internalType": "uint256[]",
              "name": "supportedChains",
              "type": "uint256[]"
            }
          ],
          "internalType": "struct ISolverRegistry.Solver",
          "name": "",
          "type": "tuple"
        }
      ],
      "stateMutability": "view",
      "type": "function"
    },
    {
      "inputs": [],
      "name": "getSolverCount",
      "outputs": [
        {
          "internalType": "uint256",
          "name": "",
          "type": "uint256"
        }
      ],
      "stateMutability": "view",
      "type": "function"
    },
    {
      "inputs": [
        {
          "internalType": "address",
          "name": "solver",
          "type": "address"
        }
      ],
      "name": "isRegistered",
      "outputs": [
        {
          "internalType": "bool",
          "name": "",
          "type": "bool"
        }
      ],
      "stateMutability": "view",
      "type": "function"
    },
    {
      "inputs": [],
      "name": "owner",
      "outputs": [
        {
          "internalType": "address",
          "name": "",
          "type": "address"
        }
      ],
      "stateMutability": "view",
      "type": "function"
    },
    {
      "inputs": [
        {
          "internalType": "uint256",
          "name": "solverId",
          "type": "uint256"
        }
      ],
      "name": "reactivateSolver",
      "outputs": [],
      "stateMutability": "nonpayable",
      "type": "function"
    },
    {
      "inputs": [
        {
          "internalType": "string",
          "name": "name",
          "type": "string"
        },
        {
          "internalType": "uint256",
          "name": "feeBps",
          "type": "uint256"
        },
        {
          "internalType": "uint256[]",
          "name": "supportedChains",
          "type": "uint256[]"
        }
      ],
      "name": "registerSolver",
      "outputs": [
        {
          "internalType": "uint256",
          "name": "solverId",
          "type": "uint256"
        }
      ],
      "stateMutability": "nonpayable",
      "type": "function"
    },
    {
      "inputs": [],
      "name": "renounceOwnership",
      "outputs": [],
      "stateMutability": "nonpayable",
      "type": "function"
    },
    {
      "inputs": [
        {
          "internalType": "address",
          "name": "",
          "type": "address"
        }
      ],
      "name": "solverIdByAddress",
      "outputs": [
        {
          "internalType": "uint256",
          "name": "",
          "type": "uint256"
        }
      ],
      "stateMutability": "view",
      "type": "function"
    },
    {
      "inputs": [
        {
          "internalType": "uint256",
          "name": "",
          "type": "uint256"
        }
      ],
      "name": "solvers",
      "outputs": [
        {
          "internalType": "address",
          "name": "solverAddress",
          "type": "address"
        },
        {
          "internalType": "string",
          "name": "name",
          "type": "string"
        },
        {
          "internalType": "uint256",
          "name": "feeBps",
          "type": "uint256"
        },
        {
          "internalType": "bool",
          "name": "active",
          "type": "bool"
        },
        {
          "internalType": "uint256",
          "name": "registeredAt",
          "type": "uint256"
        }
      ],
      "stateMutability": "view",
      "type": "function"
    },
    {
      "inputs": [
        {
          "internalType": "address",
          "name": "solver",
          "type": "address"
        },
        {
          "internalType": "uint256",
          "name": "chainId",
          "type": "uint256"
        }
      ],
      "name": "supportsChain",
      "outputs": [
        {
          "internalType": "bool",
          "name": "",
          "type": "bool"
        }
      ],
      "stateMutability": "view",
      "type": "function"
    },
    {
      "inputs": [
        {
          "internalType": "address",
          "name": "newOwner",
          "type": "address"
        }
      ],
      "name": "transferOwnership",
      "outputs": [],
      "stateMutability": "nonpayable",
      "type": "function"
    },
    {
      "inputs": [
        {
          "internalType": "uint256[]",
          "name": "supportedChains",
          "type": "uint256[]"
        }
      ],
      "name": "updateSupportedChains",
      "outputs": [],
      "stateMutability": "nonpayable",
      "type": "function"
    }
  ],
  "bytecode": "0x6080806040523461005b5760008054336001600160a01b0319821681178355916001600160a01b03909116907f8be0079c531659141344cd1fd0a4f28419497f9722a3daafe3b4186f6b6457e09080a36111c790816100618239f35b600080fdfe6080604052600436101561001257600080fd5b60003560e01c80630b0697de14610ab75780631f2d310514610a7d5780632addeab614610a42578063536d1ae814610564578063715018a61461050b5780638da5cb5b146104e257806392ce765e1461045c5780639b971f791461037e5780639fea737714610282578063bdaa4e3b1461025b578063c3c5a5471461022e578063d5d8f4ef146101a2578063dcf893c5146101845763f2fde38b146100b657600080fd5b3461017f57602036600319011261017f576100cf610b92565b6100d7611139565b6001600160a01b0390811690811561012b57600054826bffffffffffffffffffffffff60a01b821617600055167f8be0079c531659141344cd1fd0a4f28419497f9722a3daafe3b4186f6b6457e0600080a3005b60405162461bcd60e51b815260206004820152602660248201527f4f776e61626c653a206e6577206f776e657220697320746865207a65726f206160448201526564647265737360d01b6064820152608490fd5b600080fd5b3461017f57600036600319011261017f576020600154604051908152f35b3461017f57602036600319011261017f576101bb610b92565b6101c3610e61565b506001600160a01b03166000908152600260205260409020546101e781151561100c565b60001981019081116102185761020861020261021492610ca8565b50610e95565b60405191829182610be8565b0390f35b634e487b7160e01b600052601160045260246000fd5b3461017f57602036600319011261017f57602061025161024c610b92565b6110f5565b6040519015158152f35b3461017f57604036600319011261017f576020610251610279610b92565b60243590611058565b3461017f5760208060031936011261017f5767ffffffffffffffff60043581811161017f576102b5903690600401610c77565b90916102c2821515610f45565b33600052600284526040600020546102db81151561100c565b6000198101908111610218576102f2600591610ca8565b5001908211610368576103058282610fb4565b8290600052836000209060005b8381106103565760405186815233907fdfe926006600c8ef0fbf8d2082d38cc8e2712ae45bc48122b1b8eb1b8c7b5d629080610351818b01898b610fe8565b0390a2005b81358382015590850190600101610312565b634e487b7160e01b600052604160045260246000fd5b3461017f57602036600319011261017f5760043561039a611139565b80151580610450575b6103ac90610e16565b6000198101818111610218576103c190610ca8565b5060038101805460ff811661040b5760ff19166001179055546001600160a01b0316907f06edcef17c6422d4225d71d9b2fd648fb7d62db0e0ebe7d43f61d6bc6599dae8600080a3005b60405162461bcd60e51b815260206004820152601e60248201527f536f6c76657252656769737472793a20616c72656164792061637469766500006044820152606490fd5b506001548111156103a3565b3461017f57602036600319011261017f5760043560015481101561017f5761048390610ca8565b5080546001600160a01b031661049b60018301610d71565b91600281015490600460ff600383015416910154906104cc604051958695865260a0602087015260a0860190610ba8565b9260408501521515606084015260808301520390f35b3461017f57600036600319011261017f576000546040516001600160a01b039091168152602090f35b3461017f57600036600319011261017f57610524611139565b600080546001600160a01b0319811682556001600160a01b03167f8be0079c531659141344cd1fd0a4f28419497f9722a3daafe3b4186f6b6457e08280a3005b3461017f57606036600319011261017f5760043567ffffffffffffffff811161017f573660238201121561017f5767ffffffffffffffff81600401351161017f5736602482600401358301011161017f5760443567ffffffffffffffff811161017f576105d5903690600401610c77565b8260040135156109fd57612710602435116109b9576105f5811515610f45565b3360005260026020526040600020546109695760015491600183018311610218576040519361062385610d33565b3385526040516106416004830135601f01601f191660200182610d4f565b600482013580825260248301602083013760006020836004013583010152602086015260243560408601526001606086015242608086015267ffffffffffffffff8311610368578260051b6040519061069d6020820183610d4f565b84825260208201368286011161017f5784905b82860182106109595750505060a0860152600160401b84101561036857600184016001556106dd84610ca8565b61094357855181546001600160a01b0319166001600160a01b0391909116178155602086015180519067ffffffffffffffff8211610368576107226001840154610cf9565b601f8111610903575b50602090601f831160011461088e57918060a09492600594600092610883575b50508160011b916000199060031b1c19161760018201555b60408801516002820155600381016060890151151560ff80198354169116179055608088015160048201550195015180519067ffffffffffffffff8211610368576020906107b18389610fb4565b019560005260206000209560005b82811061086f5760208787877f770de46320122662aaef4881ec615466736b8e611c11d94c3be7d9da7d6aca05610861893360005260028752600186016040600020556040519182916060835280600401356060840152806004013560248201608085013760006080826004013585010152601f8019916004013501168201946024358984015260808387030160408401523396608060018a01970191610fe8565b0390a3600160405191018152f35b60019060208351930192818a0155016107bf565b015190508a8061074b565b906001840160005260206000209160005b601f19851681106108eb57509260a0949260019260059583601f198116106108d2575b505050811b016001820155610763565b015160001960f88460031b161c191690558a80806108c2565b9192602060018192868501518155019401920161089f565b61093390600185016000526020600020601f850160051c81019160208610610939575b601f0160051c0190610f9d565b8861072b565b9091508190610926565b634e487b7160e01b600052600060045260246000fd5b81358152602091820191016106b0565b60405162461bcd60e51b815260206004820152602260248201527f536f6c76657252656769737472793a20616c7265616479207265676973746572604482015261195960f21b6064820152608490fd5b606460405162461bcd60e51b815260206004820152602060248201527f536f6c76657252656769737472793a20666565206578636565647320313030256044820152fd5b60405162461bcd60e51b815260206004820152601a60248201527f536f6c76657252656769737472793a20656d707479206e616d650000000000006044820152606490fd5b3461017f57602036600319011261017f57600435610a5e610e61565b5080151580610a71575b6101e790610e16565b50600154811115610a68565b3461017f57602036600319011261017f576001600160a01b03610a9e610b92565b1660005260026020526020604060002054604051908152f35b3461017f57602036600319011261017f57600435610ad3611139565b80151580610b86575b610ae590610e16565b600019810181811161021857610afa90610ca8565b5060038101805460ff811615610b425760ff19169055546001600160a01b0316907f07d7ec1830162eb2854cfecf02268966a30d0f44b69ed4999835b0629a0190e2600080a3005b606460405162461bcd60e51b815260206004820152602060248201527f536f6c76657252656769737472793a20616c726561647920696e6163746976656044820152fd5b50600154811115610adc565b600435906001600160a01b038216820361017f57565b919082519283825260005b848110610bd4575050826000602080949584010152601f8019910116010190565b602081830181015184830182015201610bb3565b9060209081835260018060a01b038151168284015260a0610c178383015160c0604087015260e0860190610ba8565b916040810151606086015260608101511515608086015260808101518286015201519260c0601f198284030191015281808451928381520193019160005b828110610c63575050505090565b835185529381019392810192600101610c55565b9181601f8401121561017f5782359167ffffffffffffffff831161017f576020808501948460051b01011161017f57565b600154811015610ce3576006906001600052027fb10e2d527612073b26eecdfd717e6a320cf44b4afac2b0732d9fcbe2b7fa0cf60190600090565b634e487b7160e01b600052603260045260246000fd5b90600182811c92168015610d29575b6020831014610d1357565b634e487b7160e01b600052602260045260246000fd5b91607f1691610d08565b60c0810190811067ffffffffffffffff82111761036857604052565b90601f8019910116810190811067ffffffffffffffff82111761036857604052565b90604051918260008254610d8481610cf9565b90818452602094600191600181169081600014610df45750600114610db5575b505050610db392500383610d4f565b565b600090815285812095935091905b818310610ddc575050610db39350820101388080610da4565b85548884018501529485019487945091830191610dc3565b92505050610db394925060ff191682840152151560051b820101388080610da4565b15610e1d57565b606460405162461bcd60e51b815260206004820152602060248201527f536f6c76657252656769737472793a20696e76616c696420736f6c76657249646044820152fd5b60405190610e6e82610d33565b606060a0836000815282602082015260006040820152600083820152600060808201520152565b9060405191610ea383610d33565b80546001600160a01b0316835260019083906005610ec2828501610d71565b9160209260208501526002810154604085015260ff6003820154161515606085015260048101546080850152016040519182948593602084549182815201936000526020600020926000905b828210610f2d57505050505060a09291610f29910384610d4f565b0152565b84548652889650948501949383019390830190610f0e565b15610f4c57565b60405162461bcd60e51b815260206004820152602360248201527f536f6c76657252656769737472793a206e6f20737570706f7274656420636861604482015262696e7360e81b6064820152608490fd5b818110610fa8575050565b60008155600101610f9d565b90600160401b811161036857815490808355818110610fd257505050565b610db39260005260206000209182019101610f9d565b81835290916001600160fb1b03831161017f5760209260051b809284830137010190565b1561101357565b60405162461bcd60e51b815260206004820152601e60248201527f536f6c76657252656769737472793a206e6f74207265676973746572656400006044820152606490fd5b6001600160a01b0316600090815260026020908152604082205490929080156110da5760001981019081116110e15761109090610ca8565b509260ff600385015416156110da5760058394018054945b8581106110b85750505050905090565b81855283818487200154146110cf576001016110a8565b505050505050600190565b5050905090565b634e487b7160e01b83526011600452602483fd5b6001600160a01b0316600090815260026020526040902054801561113357600019810190811161021857600361112c60ff92610ca8565b5001541690565b50600090565b6000546001600160a01b0316330361114d57565b606460405162461bcd60e51b815260206004820152602060248201527f4f776e61626c653a2063616c6c6572206973206e6f7420746865206f776e65726044820152fdfea2646970667358221220749aa130fd504b2b90005fe3b0f2846c78c7e4445c0570c3822b048b97c9d52764736f6c63430008180033",
  "linkReferences": {},
  "deployedLinkReferences": {}
}