{
  "_format": "hh-sol-artifact-1",
  "contractName": "SolverRegistry",
  "sourceName": "contracts/SolverRegistry.sol",
  "abi": [
    {
      "inputs": [],
      "stateMutability": "nonpayable",
      "type": "constructor"
    },
    {
      "anonymous": false,
      "inputs": [
        {
          "indexed": true,
          "internalType": "address",
          "name": "previousOwner",
          "type": "address"
        },
        {
          "indexed": true,
          "internalType": "address",
          "name": "newOwner",
          "type": "address"
        }
      ],
      "name": "OwnershipTransferred",
      "type": "event"
    },
    {
      "anonymous": false,
      "inputs": [
        {
          "indexed": true,
          "internalType": "uint256",
          "name": "solverId",
          "type": "uint256"
        },
        {
          "indexed": true,
          "internalType": "address",
          "name": "solverAddress",
          "type": "address"
        }
      ],
      "name": "SolverDeactivated",
      "type": "event"
    },
    {
      "anonymous": false,
      "inputs": [
        {
          "indexed": true,
          "internalType": "uint256",
          "name": "solverId",
          "type": "uint256"
        },
        {
          "indexed": true,
          "internalType": "address",
          "name": "solverAddress",
          "type": "address"
        }
      ],
      "name": "SolverReactivated",
      "type": "event"
    },
    {
      "anonymous": false,
      "inputs": [
        {
          "indexed": true,
          "internalType": "uint256",
          "name": "solverId",
          "type": "uint256"
        },
        {
          "indexed": true,
          "internalType": "address",
          "name": "solverAddress",
          "type": "address"
        },
        {
          "indexed": false,
          "internalType": "string",
          "name": "name",
          "type": "string"
        },
        {
          "indexed": false,
          "internalType": "uint256",
          "name": "feeBps",
          "type": "uint256"
        },
        {
          "indexed": false,
          "internalType": "uint256[]",
          "name": "supportedChains",
          "type": "uint256[]"
        }
      ],
      "name": "SolverRegistered",
      "type": "event"
    },
    {
      "anonymous": false,
      "inputs": [
        {
          "indexed": true,
          "internalType": "address",
          "name": "solver",
          "type": "address"
        },
        {
          "indexed": false,
          "internalType": "uint256",
          "name": "amount",
          "type": "uint256"
        },
        {
          "indexed": true,
          "internalType": "address",
          "name": "treasury",
          "type": "address"
        }
      ],
      "name": "SolverSlashed",
      "type": "event"
    },
    {
      "anonymous": false,
      "inputs": [
        {
          "indexed": true,
          "internalType": "address",
          "name": "solver",
          "type": "address"
        },
        {
          "indexed": false,
          "internalType": "uint256",
          "name": "amount",
          "type": "uint256"
        }
      ],
      "name": "SolverStaked",
      "type": "event"
    },
    {
      "anonymous": false,
      "inputs": [
        {
          "indexed": true,
          "internalType": "address",
          "name": "solver",
          "type": "address"
        },
        {
          "indexed": false,
          "internalType": "uint256",
          "name": "amount",
          "type": "uint256"
        }
      ],
      "name": "StakeWithdrawn",
      "type": "event"
    },
    {
      "anonymous": false,
      "inputs": [
        {
          "indexed": true,
          "internalType": "address",
          "name": "solverAddress",
          "type": "address"
        },
        {
          "indexed": false,
          "internalType": "uint256[]",
          "name": "supportedChains",
          "type": "uint256[]"
        }
      ],
      "name": "SupportedChainsUpdated",
      "type": "event"
    },
    {
      "inputs": [],
      "name": "WITHDRAW_COOLDOWN",
      "outputs": [
        {
          "internalType": "uint256",
          "name": "",
          "type": "uint256"
        }
      ],
      "stateMutability": "view",
      "type": "function"
    },
    {
      "inputs": [
        {
          "internalType": "uint256",
          "name": "solverId",
          "type": "uint256"
        }
      ],
      "name": "deactivateSolver",
      "outputs": [],
      "stateMutability": "nonpayable",
      "type": "function"
    },
    {
      "inputs": [
        {
          "internalType": "uint256",
          "name": "solverId",
          "type": "uint256"
        }
      ],
      "name": "getSolver",
      "outputs": [
        {
          "components": [
            {
              "internalType": "address",
              "name": "solverAddress",
              "type": "address"
            },
            {
              "internalType": "string",
              "name": "name",
              "type": "string"
            },
            {
              "internalType": "uint256",
              "name": "feeBps",
              "type": "uint256"
            },
            {
              "internalType": "bool",
              "name": "active",
              "type": "bool"
            },
            {
              "internalType": "uint256",
              "name": "registeredAt",
              "type": "uint256"
            },
            {
              "internalType": "uint256[]",
              "name": "supportedChains",
              "type": "uint256[]"
            }
          ],
          "internalType": "struct ISolverRegistry.Solver",
          "name": "",
          "type": "tuple"
        }
      ],
      "stateMutability": "view",
      "type": "function"
    },
    {
      "inputs": [
        {
          "internalType": "address",
          "name": "solver",
          "type": "address"
        }
      ],
      "name": "getSolverByAddress",
      "outputs": [
        {
          "components": [
            {
              "internalType": "address",
              "name": "solverAddress",
              "type": "address"
            },
            {
              "internalType": "string",
              "name": "name",
              "type": "string"
            },
            {
              "internalType": "uint256",
              "name": "feeBps",
              "type": "uint256"
            },
            {
              "internalType": "bool",
              "name": "active",
              "type": "bool"
            },
            {
              "internalType": "uint256",
              "name": "registeredAt",
              "type": "uint256"
            },
            {
              "internalType": "uint256[]",
              "name": "supportedChains",
              "type": "uint256[]"
            }
          ],
          "internalType": "struct ISolverRegistry.Solver",
          "name": "",
          "type": "tuple"
        }
      ],
      "stateMutability": "view",
      "type": "function"
    },
    {
      "inputs": [],
      "name": "getSolverCount",
      "outputs": [
        {
          "internalType": "uint256",
          "name": "",
          "type": "uint256"
        }
      ],
      "stateMutability": "view",
      "type": "function"
    },
    {
      "inputs": [
        {
          "internalType": "address",
          "name": "solver",
          "type": "address"
        }
      ],
      "name": "getStake",
      "outputs": [
        {
          "internalType": "uint256",
          "name": "",
          "type": "uint256"
        }
      ],
      "stateMutability": "view",
      "type": "function"
    },
    {
      "inputs": [
        {
          "internalType": "address",
          "name": "solver",
          "type": "address"
        }
      ],
      "name": "getWithdrawUnlockTime",
      "outputs": [
        {
          "internalType": "uint256",
          "name": "",
          "type": "uint256"
        }
      ],
      "stateMutability": "view",
      "type": "function"
    },
    {
      "inputs": [
        {
          "internalType": "address",
          "name": "solver",
          "type": "address"
        }
      ],
      "name": "getWithdrawableStake",
      "outputs": [
        {
          "internalType": "uint256",
          "name": "",
          "type": "uint256"
        }
      ],
      "stateMutability": "view",
      "type": "function"
    },
    {
      "inputs": [
        {
          "internalType": "address",
          "name": "solver",
          "type": "address"
        }
      ],
      "name": "isRegistered",
      "outputs": [
        {
          "internalType": "bool",
          "name": "",
          "type": "bool"
        }
      ],
      "stateMutability": "view",
      "type": "function"
    },
    {
      "inputs": [],
      "name": "owner",
      "outputs": [
        {
          "internalType": "address",
          "name": "",
          "type": "address"
        }
      ],
      "stateMutability": "view",
      "type": "function"
    },
    {
      "inputs": [
        {
          "internalType": "uint256",
          "name": "solverId",
          "type": "uint256"
        }
      ],
      "name": "reactivateSolver",
      "outputs": [],
      "stateMutability": "nonpayable",
      "type": "function"
    },
    {
      "inputs": [
        {
          "internalType": "string",
          "name": "name",
          "type": "string"
        },
        {
          "internalType": "uint256",
          "name": "feeBps",
          "type": "uint256"
        },
        {
          "internalType": "uint256[]",
          "name": "supportedChains",
          "type": "uint256[]"
        }
      ],
      "name": "registerSolver",
      "outputs": [
        {
          "internalType": "uint256",
          "name": "solverId",
          "type": "uint256"
        }
      ],
      "stateMutability": "payable",
      "type": "function"
    },
    {
      "inputs": [],
      "name": "renounceOwnership",
      "outputs": [],
      "stateMutability": "nonpayable",
      "type": "function"
    },
    {
      "inputs": [],
      "name": "requiredBond",
      "outputs": [
        {
          "internalType": "uint256",
          "name": "",
          "type": "uint256"
        }
      ],
      "stateMutability": "view",
      "type": "function"
    },
    {
      "inputs": [
        {
          "internalType": "uint256",
          "name": "amount",
          "type": "uint256"
        }
      ],
      "name": "setRequiredBond",
      "outputs": [],
      "stateMutability": "nonpayable",
      "type": "function"
    },
    {
      "inputs": [
        {
          "internalType": "address",
          "name": "_treasury",
          "type": "address"
        }
      ],
      "name": "setTreasury",
      "outputs": [],
      "stateMutability": "nonpayable",
      "type": "function"
    },
    {
      "inputs": [
        {
          "internalType": "address",
          "name": "solver",
          "type": "address"
        },
        {
          "internalType": "uint256",
          "name": "amount",
          "type": "uint256"
        }
      ],
      "name": "slashSolver",
      "outputs": [],
      "stateMutability": "nonpayable",
      "type": "function"
    },
    {
      "inputs": [
        {
          "internalType": "address",
          "name": "",
          "type": "address"
        }
      ],
      "name": "solverIdByAddress",
      "outputs": [
        {
          "internalType": "uint256",
          "name": "",
          "type": "uint256"
        }
      ],
      "stateMutability": "view",
      "type": "function"
    },
    {
      "inputs": [
        {
          "internalType": "uint256",
          "name": "",
          "type": "uint256"
        }
      ],
      "name": "solvers",
      "outputs": [
        {
          "internalType": "address",
          "name": "solverAddress",
          "type": "address"
        },
        {
          "internalType": "string",
          "name": "name",
          "type": "string"
        },
        {
          "internalType": "uint256",
          "name": "feeBps",
          "type": "uint256"
        },
        {
          "internalType": "bool",
          "name": "active",
          "type": "bool"
        },
        {
          "internalType": "uint256",
          "name": "registeredAt",
          "type": "uint256"
        }
      ],
      "stateMutability": "view",
      "type": "function"
    },
    {
      "inputs": [
        {
          "internalType": "address",
          "name": "",
          "type": "address"
        }
      ],
      "name": "stakes",
      "outputs": [
        {
          "internalType": "uint256",
          "name": "",
          "type": "uint256"
        }
      ],
      "stateMutability": "view",
      "type": "function"
    },
    {
      "inputs": [
        {
          "internalType": "address",
          "name": "solver",
          "type": "address"
        },
        {
          "internalType": "uint256",
          "name": "chainId",
          "type": "uint256"
        }
      ],
      "name": "supportsChain",
      "outputs": [
        {
          "internalType": "bool",
          "name": "",
          "type": "bool"
        }
      ],
      "stateMutability": "view",
      "type": "function"
    },
    {
      "inputs": [
        {
          "internalType": "address",
          "name": "newOwner",
          "type": "address"
        }
      ],
      "name": "transferOwnership",
      "outputs": [],
      "stateMutability": "nonpayable",
      "type": "function"
    },
    {
      "inputs": [],
      "name": "treasury",
      "outputs": [
        {
          "internalType": "address",
          "name": "",
          "type": "address"
        }
      ],
      "stateMutability": "view",
      "type": "function"
    },
    {
      "inputs": [
        {
          "internalType": "uint256",
          "name": "amount",
          "type": "uint256"
        }
      ],
      "name": "unstake",
      "outputs": [],
      "stateMutability": "nonpayable",
      "type": "function"
    },
    {
      "inputs": [
        {
          "internalType": "uint256[]",
          "name": "supportedChains",
          "type": "uint256[]"
        }
      ],
      "name": "updateSupportedChains",
      "outputs": [],
      "stateMutability": "nonpayable",
      "type": "function"
    },
    {
      "inputs": [],
      "name": "withdrawStake",
      "outputs": [],
      "stateMutability": "nonpayable",
      "type": "function"
    },
    {
      "inputs": [
        {
          "internalType": "address",
          "name": "",
          "type": "address"
        }
      ],
      "name": "withdrawUnlockTime",
      "outputs": [
        {
          "internalType": "uint256",
          "name": "",
          "type": "uint256"
        }
      ],
      "stateMutability": "view",
      "type": "function"
    },
    {
      "inputs": [
        {
          "internalType": "address",
          "name": "",
          "type": "address"
        }
      ],
      "name": "withdrawableAmount",
      "outputs": [
        {
          "internalType": "uint256",
          "name": "",
          "type": "uint256"
        }
      ],
      "stateMutability": "view",
      "type": "function"
    },
    {
      "stateMutability": "payable",
      "type": "receive"
    }
  ],
  "bytecode": "0x608080604052346100665760008054336001600160a01b0319808316821784559290916001600160a01b0316907f8be0079c531659141344cd1fd0a4f28419497f9722a3daafe3b4186f6b6457e09080a333906007541617600755611a16908161006c8239f35b600080fdfe60806040526004361015610036575b361561001957600080fd5b336000526003602052604060002061003234825461173b565b9055005b60003560e01c80630b0697de146112a05780630cc635261461122c57806316934fc4146108175780631f1d60611461050f5780631f2d310514611266578063256c4d001461122c5780632addeab6146111f15780632e17de78146110a75780633ff8bbf614611089578063536d1ae814610b1857806356bded8a14610af757806361d027b314610ace578063637ea707146108aa578063715018a6146108515780637a766460146108175780638da5cb5b146107ee57806392ce765e14610768578063950d91e91461074a5780639b971f791461066c5780639fea737714610570578063bdaa4e3b14610549578063be7ab51b1461050f578063bed9d861146103a6578063c3c5a54714610379578063d5d8f4ef146102ed578063dcf893c5146102cf578063f0f442601461023d5763f2fde38b0361000e57346102385760203660031901126102385761018861137b565b610190611988565b6001600160a01b039081169081156101e457600054826bffffffffffffffffffffffff60a01b821617600055167f8be0079c531659141344cd1fd0a4f28419497f9722a3daafe3b4186f6b6457e0600080a3005b60405162461bcd60e51b815260206004820152602660248201527f4f776e61626c653a206e6577206f776e657220697320746865207a65726f206160448201526564647265737360d01b6064820152608490fd5b600080fd5b346102385760203660031901126102385761025661137b565b61025e611988565b6001600160a01b0316801561028a576bffffffffffffffffffffffff60a01b6007541617600755600080f35b60405162461bcd60e51b815260206004820152601d60248201527f536f6c76657252656769737472793a207a65726f2074726561737572790000006044820152606490fd5b34610238576000366003190112610238576020600154604051908152f35b346102385760203660031901126102385761030661137b565b61030e611657565b506001600160a01b031660009081526002602052604090205461033281151561182b565b60001981019081116103635761035361034d61035f92611491565b5061168b565b604051918291826113d1565b0390f35b634e487b7160e01b600052601160045260246000fd5b3461023857602036600319011261023857602061039c61039761137b565b611944565b6040519015158152f35b3461023857600036600319011261023857336000526020600481526040600020549081156104bd573360005260058152604060002054421061047957336000526004815260006040812055600080808085335af1610402611877565b5015610435577f8108595eb6bad3acefa9da467d90cc2217686d5c5ac85460f8b7849c840645fc906040519283523392a2005b6064906040519062461bcd60e51b82526004820152601f60248201527f536f6c76657252656769737472793a207769746864726177206661696c6564006044820152fd5b6064906040519062461bcd60e51b82526004820152601c60248201527f536f6c76657252656769737472793a207374616b65206c6f636b6564000000006044820152fd5b6084906040519062461bcd60e51b82526004820152602560248201527f536f6c76657252656769737472793a206e6f20776974686472617761626c65206044820152647374616b6560d81b6064820152fd5b34610238576020366003190112610238576001600160a01b0361053061137b565b1660005260046020526020604060002054604051908152f35b3461023857604036600319011261023857602061039c61056761137b565b602435906118a7565b34610238576020806003193601126102385767ffffffffffffffff600435818111610238576105a3903690600401611460565b90916105b0821515611748565b33600052600284526040600020546105c981151561182b565b6000198101908111610363576105e0600591611491565b5001908211610656576105f382826117d3565b8290600052836000209060005b8381106106445760405186815233907fdfe926006600c8ef0fbf8d2082d38cc8e2712ae45bc48122b1b8eb1b8c7b5d62908061063f818b01898b611807565b0390a2005b81358382015590850190600101610600565b634e487b7160e01b600052604160045260246000fd5b3461023857602036600319011261023857600435610688611988565b8015158061073e575b61069a906115ff565b6000198101818111610363576106af90611491565b5060038101805460ff81166106f95760ff19166001179055546001600160a01b0316907f06edcef17c6422d4225d71d9b2fd648fb7d62db0e0ebe7d43f61d6bc6599dae8600080a3005b60405162461bcd60e51b815260206004820152601e60248201527f536f6c76657252656769737472793a20616c72656164792061637469766500006044820152606490fd5b50600154811115610691565b3461023857600036600319011261023857602060405162093a808152f35b34610238576020366003190112610238576004356001548110156102385761078f90611491565b5080546001600160a01b03166107a76001830161155a565b91600281015490600460ff600383015416910154906107d8604051958695865260a0602087015260a0860190611391565b9260408501521515606084015260808301520390f35b34610238576000366003190112610238576000546040516001600160a01b039091168152602090f35b34610238576020366003190112610238576001600160a01b0361083861137b565b1660005260036020526020604060002054604051908152f35b346102385760003660031901126102385761086a611988565b600080546001600160a01b0319811682556001600160a01b03167f8be0079c531659141344cd1fd0a4f28419497f9722a3daafe3b4186f6b6457e08280a3005b34610238576040366003190112610238576108c361137b565b602435906108cf611988565b60018060a01b03809116908160005260209060028252604060002054936108f785151561182b565b8360005260038352610918604060002054600485526040600020549061173b565b9081811115610ac65750935b8415610a83576000848152600384526040902054808611610a7e5750845b61094c818761164a565b908560005260038552610965604060002091825461164a565b9055846000526004845261097f604060002091825461164a565b905560001981019080821161036357600361099a8693611491565b5001805460ff8116610a4a575b5050505060008080808785600754165af16109c0611877565b50156109f757907f886868e5d9ccaa1e1c7e072f1d610bac769dbf9dd7308b8651044d146c1e0524916007541693604051908152a3005b60405162461bcd60e51b815260048101839052602560248201527f536f6c76657252656769737472793a20736c617368207472616e736665722066604482015264185a5b195960da1b6064820152608490fd5b60ff191690557f07d7ec1830162eb2854cfecf02268966a30d0f44b69ed4999835b0629a0190e2600080a3828580806109a7565b610942565b6064836040519062461bcd60e51b825280600483015260248201527f536f6c76657252656769737472793a206e6f7468696e6720746f20736c6173686044820152fd5b905093610924565b34610238576000366003190112610238576007546040516001600160a01b039091168152602090f35b3461023857602036600319011261023857610b10611988565b600435600655005b60603660031901126102385760043567ffffffffffffffff811161023857366023820112156102385767ffffffffffffffff816004013511610238573660248260040135830101116102385760443567ffffffffffffffff811161023857610b84903690600401611460565b826004013515611044576127106024351161100057610ba4811515611748565b336000526002602052604060002054610fb0576006543410610f6157600154916001830183116103635760405193610bdb8561151c565b338552610beb81600401356117a0565b610bf86040519182611538565b600482013580825260248301602083013760006020836004013583010152602086015260243560408601526001606086015242608086015267ffffffffffffffff8311610656578260051b60405190610c546020820183611538565b8482526020820136828601116102385784905b8286018210610f515750505060a0860152600160401b8410156106565760018401600155610c9484611491565b610f3b57855181546001600160a01b0319166001600160a01b0391909116178155602086015180519067ffffffffffffffff821161065657610cd960018401546114e2565b601f8111610efb575b50602090601f8311600114610e8657918060a09492600594600092610e7b575b50508160011b916000199060031b1c19161760018201555b60408801516002820155600381016060890151151560ff80198354169116179055608088015160048201550195015180519067ffffffffffffffff821161065657602090610d6883896117d3565b019560005260206000209560005b828110610e675760208787877f770de46320122662aaef4881ec615466736b8e611c11d94c3be7d9da7d6aca05610e2e89336000526002875260018601604060002055600387526040600020610dcd34825461173b565b90556040519182916060835280600401356060840152806004013560248201608085013760006080826004013585010152601f8019916004013501168201946024358984015260808387030160408401523396608060018a01970191611807565b0390a36040513481527f1249055e6f6c4d3a03a92b1a019075d6bac618bc69910d19b29da02512ec531e833392a2600160405191018152f35b60019060208351930192818a015501610d76565b015190508a80610d02565b906001840160005260206000209160005b601f1985168110610ee357509260a0949260019260059583601f19811610610eca575b505050811b016001820155610d1a565b015160001960f88460031b161c191690558a8080610eba565b91926020600181928685015181550194019201610e97565b610f2b90600185016000526020600020601f850160051c81019160208610610f31575b601f0160051c01906117bc565b88610ce2565b9091508190610f1e565b634e487b7160e01b600052600060045260246000fd5b8135815260209182019101610c67565b60405162461bcd60e51b815260206004820152602160248201527f536f6c76657252656769737472793a20696e73756666696369656e7420626f6e6044820152601960fa1b6064820152608490fd5b60405162461bcd60e51b815260206004820152602260248201527f536f6c76657252656769737472793a20616c7265616479207265676973746572604482015261195960f21b6064820152608490fd5b606460405162461bcd60e51b815260206004820152602060248201527f536f6c76657252656769737472793a20666565206578636565647320313030256044820152fd5b60405162461bcd60e51b815260206004820152601a60248201527f536f6c76657252656769737472793a20656d707479206e616d650000000000006044820152606490fd5b34610238576000366003190112610238576020600654604051908152f35b34610238576020806003193601126102385760043580156111ac573360005260038252604060002054811161115c57336000526003825260406000206110ee82825461164a565b90553360005260048252611108604060002091825461173b565b905562093a804201804211610363573360005260058252604060002055600381527f1249055e6f6c4d3a03a92b1a019075d6bac618bc69910d19b29da02512ec531e604060002054916040519283523392a2005b60405162461bcd60e51b815260048101839052602260248201527f536f6c76657252656769737472793a20696e73756666696369656e74207374616044820152616b6560f01b6064820152608490fd5b60405162461bcd60e51b815260048101839052601c60248201527f536f6c76657252656769737472793a207a65726f20756e7374616b65000000006044820152606490fd5b346102385760203660031901126102385760043561120d611657565b5080151580611220575b610332906115ff565b50600154811115611217565b34610238576020366003190112610238576001600160a01b0361124d61137b565b1660005260056020526020604060002054604051908152f35b34610238576020366003190112610238576001600160a01b0361128761137b565b1660005260026020526020604060002054604051908152f35b34610238576020366003190112610238576004356112bc611988565b8015158061136f575b6112ce906115ff565b6000198101818111610363576112e390611491565b5060038101805460ff81161561132b5760ff19169055546001600160a01b0316907f07d7ec1830162eb2854cfecf02268966a30d0f44b69ed4999835b0629a0190e2600080a3005b606460405162461bcd60e51b815260206004820152602060248201527f536f6c76657252656769737472793a20616c726561647920696e6163746976656044820152fd5b506001548111156112c5565b600435906001600160a01b038216820361023857565b919082519283825260005b8481106113bd575050826000602080949584010152601f8019910116010190565b60208183018101518483018201520161139c565b9060209081835260018060a01b038151168284015260a06114008383015160c0604087015260e0860190611391565b916040810151606086015260608101511515608086015260808101518286015201519260c0601f198284030191015281808451928381520193019160005b82811061144c575050505090565b83518552938101939281019260010161143e565b9181601f840112156102385782359167ffffffffffffffff8311610238576020808501948460051b01011161023857565b6001548110156114cc576006906001600052027fb10e2d527612073b26eecdfd717e6a320cf44b4afac2b0732d9fcbe2b7fa0cf60190600090565b634e487b7160e01b600052603260045260246000fd5b90600182811c92168015611512575b60208310146114fc57565b634e487b7160e01b600052602260045260246000fd5b91607f16916114f1565b60c0810190811067ffffffffffffffff82111761065657604052565b90601f8019910116810190811067ffffffffffffffff82111761065657604052565b9060405191826000825461156d816114e2565b908184526020946001916001811690816000146115dd575060011461159e575b50505061159c92500383611538565b565b600090815285812095935091905b8183106115c557505061159c935082010138808061158d565b855488840185015294850194879450918301916115ac565b9250505061159c94925060ff191682840152151560051b82010138808061158d565b1561160657565b606460405162461bcd60e51b815260206004820152602060248201527f536f6c76657252656769737472793a20696e76616c696420736f6c76657249646044820152fd5b9190820391821161036357565b604051906116648261151c565b606060a0836000815282602082015260006040820152600083820152600060808201520152565b90604051916116998361151c565b80546001600160a01b03168352600190839060056116b882850161155a565b9160209260208501526002810154604085015260ff6003820154161515606085015260048101546080850152016040519182948593602084549182815201936000526020600020926000905b82821061172357505050505060a0929161171f910384611538565b0152565b84548652889650948501949383019390830190611704565b9190820180921161036357565b1561174f57565b60405162461bcd60e51b815260206004820152602360248201527f536f6c76657252656769737472793a206e6f20737570706f7274656420636861604482015262696e7360e81b6064820152608490fd5b67ffffffffffffffff811161065657601f01601f191660200190565b8181106117c7575050565b600081556001016117bc565b90600160401b8111610656578154908083558181106117f157505050565b61159c92600052602060002091820191016117bc565b81835290916001600160fb1b0383116102385760209260051b809284830137010190565b1561183257565b60405162461bcd60e51b815260206004820152601e60248201527f536f6c76657252656769737472793a206e6f74207265676973746572656400006044820152606490fd5b3d156118a2573d90611888826117a0565b916118966040519384611538565b82523d6000602084013e565b606090565b6001600160a01b031660009081526002602090815260408220549092908015611929576000198101908111611930576118df90611491565b509260ff600385015416156119295760058394018054945b8581106119075750505050905090565b818552838184872001541461191e576001016118f7565b505050505050600190565b5050905090565b634e487b7160e01b83526011600452602483fd5b6001600160a01b0316600090815260026020526040902054801561198257600019810190811161036357600361197b60ff92611491565b5001541690565b50600090565b6000546001600160a01b0316330361199c57565b606460405162461bcd60e51b815260206004820152602060248201527f4f776e61626c653a2063616c6c6572206973206e6f7420746865206f776e65726044820152fdfea26469706673582212209e761f351ed08a7e51b5b63032ca2c9b4df78f731e554f810ac190484592373364736f6c63430008180033",
  "linkReferences": {},
  "deployedLinkReferences": {}
}