{
  "_format": "hh-sol-artifact-1",
  "contractName": "SolverRegistry",
  "sourceName": "contracts/SolverRegistry.sol",
  "abi": [
    {
      "inputs": [
        {
          "internalType": "uint256",
          "name": "_minStake",
          "type": "uint256"
        }
      ],
      "stateMutability": "nonpayable",
      "type": "constructor"
    },
    {
      "anonymous": false,
      "inputs": [
        {
          "indexed": true,
          "internalType": "bytes32",
          "name": "intentId",
          "type": "bytes32"
        },
        {
          "indexed": true,
          "internalType": "address",
          "name": "solver",
          "type": "address"
        },
        {
          "indexed": false,
          "internalType": "uint256",
          "name": "amount",
          "type": "uint256"
        },
        {
          "indexed": false,
          "internalType": "uint256",
          "name": "fee",
          "type": "uint256"
        }
      ],
      "name": "BidSubmitted",
      "type": "event"
    },
    {
      "anonymous": false,
      "inputs": [
        {
          "indexed": true,
          "internalType": "address",
          "name": "previousOwner",
          "type": "address"
        },
        {
          "indexed": true,
          "internalType": "address",
          "name": "newOwner",
          "type": "address"
        }
      ],
      "name": "OwnershipTransferred",
      "type": "event"
    },
    {
      "anonymous": false,
      "inputs": [
        {
          "indexed": true,
          "internalType": "address",
          "name": "solver",
          "type": "address"
        },
        {
          "indexed": false,
          "internalType": "uint256",
          "name": "newScore",
          "type": "uint256"
        }
      ],
      "name": "ReputationUpdated",
      "type": "event"
    },
    {
      "anonymous": false,
      "inputs": [
        {
          "indexed": true,
          "internalType": "address",
          "name": "solver",
          "type": "address"
        },
        {
          "indexed": false,
          "internalType": "uint256",
          "name": "stake",
          "type": "uint256"
        }
      ],
      "name": "SolverRegistered",
      "type": "event"
    },
    {
      "anonymous": false,
      "inputs": [
        {
          "indexed": true,
          "internalType": "address",
          "name": "solver",
          "type": "address"
        },
        {
          "indexed": false,
          "internalType": "uint256",
          "name": "amount",
          "type": "uint256"
        }
      ],
      "name": "SolverSlashed",
      "type": "event"
    },
    {
      "anonymous": false,
      "inputs": [
        {
          "indexed": true,
          "internalType": "address",
          "name": "solver",
          "type": "address"
        },
        {
          "indexed": false,
          "internalType": "uint256",
          "name": "stakeReturned",
          "type": "uint256"
        }
      ],
      "name": "SolverUnregistered",
      "type": "event"
    },
    {
      "anonymous": false,
      "inputs": [
        {
          "indexed": true,
          "internalType": "bytes32",
          "name": "intentId",
          "type": "bytes32"
        },
        {
          "indexed": true,
          "internalType": "address",
          "name": "solver",
          "type": "address"
        },
        {
          "indexed": false,
          "internalType": "uint256",
          "name": "amount",
          "type": "uint256"
        },
        {
          "indexed": false,
          "internalType": "uint256",
          "name": "fee",
          "type": "uint256"
        }
      ],
      "name": "WinnerSelected",
      "type": "event"
    },
    {
      "inputs": [],
      "name": "FAILURE_PENALTY",
      "outputs": [
        {
          "internalType": "uint256",
          "name": "",
          "type": "uint256"
        }
      ],
      "stateMutability": "view",
      "type": "function"
    },
    {
      "inputs": [],
      "name": "MAX_REPUTATION",
      "outputs": [
        {
          "internalType": "uint256",
          "name": "",
          "type": "uint256"
        }
      ],
      "stateMutability": "view",
      "type": "function"
    },
    {
      "inputs": [],
      "name": "REPUTATION_DECAY",
      "outputs": [
        {
          "internalType": "uint256",
          "name": "",
          "type": "uint256"
        }
      ],
      "stateMutability": "view",
      "type": "function"
    },
    {
      "inputs": [],
      "name": "SUCCESS_BONUS",
      "outputs": [
        {
          "internalType": "uint256",
          "name": "",
          "type": "uint256"
        }
      ],
      "stateMutability": "view",
      "type": "function"
    },
    {
      "inputs": [],
      "name": "getActiveSolversCount",
      "outputs": [
        {
          "internalType": "uint256",
          "name": "",
          "type": "uint256"
        }
      ],
      "stateMutability": "view",
      "type": "function"
    },
    {
      "inputs": [],
      "name": "getAllSolvers",
      "outputs": [
        {
          "internalType": "address[]",
          "name": "",
          "type": "address[]"
        }
      ],
      "stateMutability": "view",
      "type": "function"
    },
    {
      "inputs": [
        {
          "internalType": "bytes32",
          "name": "intentId",
          "type": "bytes32"
        }
      ],
      "name": "getBids",
      "outputs": [
        {
          "components": [
            {
              "internalType": "address",
              "name": "solver",
              "type": "address"
            },
            {
              "internalType": "uint256",
              "name": "amount",
              "type": "uint256"
            },
            {
              "internalType": "uint256",
              "name": "fee",
              "type": "uint256"
            },
            {
              "internalType": "uint256",
              "name": "timestamp",
              "type": "uint256"
            },
            {
              "internalType": "bool",
              "name": "isWinner",
              "type": "bool"
            }
          ],
          "internalType": "struct SolverRegistry.Bid[]",
          "name": "",
          "type": "tuple[]"
        }
      ],
      "stateMutability": "view",
      "type": "function"
    },
    {
      "inputs": [
        {
          "internalType": "address",
          "name": "solver",
          "type": "address"
        }
      ],
      "name": "getSolverInfo",
      "outputs": [
        {
          "components": [
            {
              "internalType": "address",
              "name": "solverAddress",
              "type": "address"
            },
            {
              "internalType": "uint256",
              "name": "stake",
              "type": "uint256"
            },
            {
              "internalType": "uint256",
              "name": "totalFulfilled",
              "type": "uint256"
            },
            {
              "internalType": "uint256",
              "name": "totalFailed",
              "type": "uint256"
            },
            {
              "internalType": "uint256",
              "name": "totalProfit",
              "type": "uint256"
            },
            {
              "internalType": "uint256",
              "name": "reputationScore",
              "type": "uint256"
            },
            {
              "internalType": "bool",
              "name": "isActive",
              "type": "bool"
            },
            {
              "internalType": "uint256",
              "name": "registeredAt",
              "type": "uint256"
            },
            {
              "internalType": "uint256",
              "name": "lastActivity",
              "type": "uint256"
            }
          ],
          "internalType": "struct SolverRegistry.Solver",
          "name": "",
          "type": "tuple"
        }
      ],
      "stateMutability": "view",
      "type": "function"
    },
    {
      "inputs": [],
      "name": "getSolverList",
      "outputs": [
        {
          "internalType": "address[]",
          "name": "",
          "type": "address[]"
        }
      ],
      "stateMutability": "view",
      "type": "function"
    },
    {
      "inputs": [
        {
          "internalType": "bytes32",
          "name": "intentId",
          "type": "bytes32"
        }
      ],
      "name": "getWinner",
      "outputs": [
        {
          "internalType": "address",
          "name": "",
          "type": "address"
        }
      ],
      "stateMutability": "view",
      "type": "function"
    },
    {
      "inputs": [
        {
          "internalType": "bytes32",
          "name": "",
          "type": "bytes32"
        },
        {
          "internalType": "uint256",
          "name": "",
          "type": "uint256"
        }
      ],
      "name": "intentBids",
      "outputs": [
        {
          "internalType": "address",
          "name": "solver",
          "type": "address"
        },
        {
          "internalType": "uint256",
          "name": "amount",
          "type": "uint256"
        },
        {
          "internalType": "uint256",
          "name": "fee",
          "type": "uint256"
        },
        {
          "internalType": "uint256",
          "name": "timestamp",
          "type": "uint256"
        },
        {
          "internalType": "bool",
          "name": "isWinner",
          "type": "bool"
        }
      ],
      "stateMutability": "view",
      "type": "function"
    },
    {
      "inputs": [
        {
          "internalType": "bytes32",
          "name": "",
          "type": "bytes32"
        }
      ],
      "name": "intentWinner",
      "outputs": [
        {
          "internalType": "address",
          "name": "",
          "type": "address"
        }
      ],
      "stateMutability": "view",
      "type": "function"
    },
    {
      "inputs": [
        {
          "internalType": "address",
          "name": "_solver",
          "type": "address"
        }
      ],
      "name": "isRegistered",
      "outputs": [
        {
          "internalType": "bool",
          "name": "",
          "type": "bool"
        }
      ],
      "stateMutability": "view",
      "type": "function"
    },
    {
      "inputs": [
        {
          "internalType": "address",
          "name": "addr",
          "type": "address"
        }
      ],
      "name": "isSolver",
      "outputs": [
        {
          "internalType": "bool",
          "name": "",
          "type": "bool"
        }
      ],
      "stateMutability": "view",
      "type": "function"
    },
    {
      "inputs": [],
      "name": "minStake",
      "outputs": [
        {
          "internalType": "uint256",
          "name": "",
          "type": "uint256"
        }
      ],
      "stateMutability": "view",
      "type": "function"
    },
    {
      "inputs": [],
      "name": "owner",
      "outputs": [
        {
          "internalType": "address",
          "name": "",
          "type": "address"
        }
      ],
      "stateMutability": "view",
      "type": "function"
    },
    {
      "inputs": [],
      "name": "register",
      "outputs": [],
      "stateMutability": "payable",
      "type": "function"
    },
    {
      "inputs": [],
      "name": "renounceOwnership",
      "outputs": [],
      "stateMutability": "nonpayable",
      "type": "function"
    },
    {
      "inputs": [
        {
          "internalType": "bytes32",
          "name": "intentId",
          "type": "bytes32"
        }
      ],
      "name": "selectWinner",
      "outputs": [
        {
          "internalType": "address",
          "name": "winner",
          "type": "address"
        }
      ],
      "stateMutability": "nonpayable",
      "type": "function"
    },
    {
      "inputs": [
        {
          "internalType": "address",
          "name": "solver",
          "type": "address"
        },
        {
          "internalType": "uint256",
          "name": "amount",
          "type": "uint256"
        }
      ],
      "name": "slashSolver",
      "outputs": [],
      "stateMutability": "nonpayable",
      "type": "function"
    },
    {
      "inputs": [
        {
          "internalType": "uint256",
          "name": "",
          "type": "uint256"
        }
      ],
      "name": "solverList",
      "outputs": [
        {
          "internalType": "address",
          "name": "",
          "type": "address"
        }
      ],
      "stateMutability": "view",
      "type": "function"
    },
    {
      "inputs": [
        {
          "internalType": "address",
          "name": "",
          "type": "address"
        }
      ],
      "name": "solvers",
      "outputs": [
        {
          "internalType": "address",
          "name": "solverAddress",
          "type": "address"
        },
        {
          "internalType": "uint256",
          "name": "stake",
          "type": "uint256"
        },
        {
          "internalType": "uint256",
          "name": "totalFulfilled",
          "type": "uint256"
        },
        {
          "internalType": "uint256",
          "name": "totalFailed",
          "type": "uint256"
        },
        {
          "internalType": "uint256",
          "name": "totalProfit",
          "type": "uint256"
        },
        {
          "internalType": "uint256",
          "name": "reputationScore",
          "type": "uint256"
        },
        {
          "internalType": "bool",
          "name": "isActive",
          "type": "bool"
        },
        {
          "internalType": "uint256",
          "name": "registeredAt",
          "type": "uint256"
        },
        {
          "internalType": "uint256",
          "name": "lastActivity",
          "type": "uint256"
        }
      ],
      "stateMutability": "view",
      "type": "function"
    },
    {
      "inputs": [
        {
          "internalType": "bytes32",
          "name": "intentId",
          "type": "bytes32"
        },
        {
          "internalType": "uint256",
          "name": "amount",
          "type": "uint256"
        },
        {
          "internalType": "uint256",
          "name": "fee",
          "type": "uint256"
        }
      ],
      "name": "submitBid",
      "outputs": [],
      "stateMutability": "nonpayable",
      "type": "function"
    },
    {
      "inputs": [
        {
          "internalType": "address",
          "name": "newOwner",
          "type": "address"
        }
      ],
      "name": "transferOwnership",
      "outputs": [],
      "stateMutability": "nonpayable",
      "type": "function"
    },
    {
      "inputs": [],
      "name": "unregister",
      "outputs": [],
      "stateMutability": "nonpayable",
      "type": "function"
    },
    {
      "inputs": [
        {
          "internalType": "address",
          "name": "solver",
          "type": "address"
        },
        {
          "internalType": "bool",
          "name": "success",
          "type": "bool"
        },
        {
          "internalType": "uint256",
          "name": "profit",
          "type": "uint256"
        }
      ],
      "name": "updateReputation",
      "outputs": [],
      "stateMutability": "nonpayable",
      "type": "function"
    }
  ],
  "bytecode": "0x60803461009e57601f61160b38819003918201601f19168301916001600160401b038311848410176100a35780849260209460405283398101031261009e5751600160008181558154336001600160a01b0319821681179093556040519392916001600160a01b03909116907f8be0079c531659141344cd1fd0a4f28419497f9722a3daafe3b4186f6b6457e09080a360025561155190816100ba8239f35b600080fd5b634e487b7160e01b600052604160045260246000fdfe60406080815260048036101561001457600080fd5b600091823560e01c806302cc250d14610685578063060586741461115a5780630dcd1dca14610ffc5780631aa3a008146110205780631e5f914914610652578063375b3c0a146110015780634924207814610ffc57806357f58d9814610f63578063637ea70714610e005780636856630f14610d8a5780636be505f514610b2d578063715018a614610ad05780637eb312b114610ab35780638da5cb5b14610a8a5780639d4f988b1461094b578063a529bdee14610826578063b9a4770814610808578063be0b42311461068a578063c3c5a54714610685578063cf040e3114610652578063cff5820b14610635578063d213c0f214610618578063e79a198f14610418578063f2fde38b14610351578063fe7f43da1461030e5763ff370a401461013e57600080fd5b3461030a57606036600319011261030a57610157611176565b6024359081151582036103065760018060a01b03169283855260036020528285209160ff600684015416156102cf571561023d57600282016101998154611407565b9055808201805490604435820180921161022a575560058201908154906101f4820180921161021757506020927ffc577563f1b9a0461e24abef1e1fcc0d33d3d881f20b5df6dda59de4aae2c821949260059261271080821060001461020f5750905b555b42600882015501549051908152a280f35b9050906101fc565b634e487b7160e01b875260119052602486fd5b634e487b7160e01b875260118352602487fd5b6003820161024b8154611407565b905560058201805490916103e882111561029e576103e719820191821161021757506020927ffc577563f1b9a0461e24abef1e1fcc0d33d3d881f20b5df6dda59de4aae2c8219492600592905b556101fe565b50509160056020927ffc577563f1b9a0461e24abef1e1fcc0d33d3d881f20b5df6dda59de4aae2c821948790610298565b835162461bcd60e51b815260208184015260116024820152702737ba1030b1ba34bb329039b7b63b32b960791b6044820152606490fd5b8480fd5b8280fd5b50823461034e57602036600319011261034e578235925483101561034e57506103386020926112e1565b905491519160018060a01b039160031b1c168152f35b80fd5b50903461030a57602036600319011261030a5761036c611176565b90610375611318565b6001600160a01b039182169283156103c6575050600154826001600160601b0360a01b821617600155167f8be0079c531659141344cd1fd0a4f28419497f9722a3daafe3b4186f6b6457e08380a380f35b906020608492519162461bcd60e51b8352820152602660248201527f4f776e61626c653a206e6577206f776e657220697320746865207a65726f206160448201526564647265737360d01b6064820152fd5b508290346106145781600319360112610614576104336113b1565b3382526003928360205281832091600683019485549260ff8416156105e057600180950180549485156105a65790879887989260ff19169055558487905b6104c2575b878686866104938480808086335af161048d61149d565b506114dd565b519081527ffe9863396ff2a1d8caed82230bb456a83f62e08be79ae7133baef8c9f5522a8760203392a2815580f35b8154808210156105a0576104d5826112e1565b90546001600160a01b039291861b1c821633146104fd5750506104f790611407565b85610471565b91909293949596506000199182810190811161058d579061053184610524610550946112e1565b905490891b1c16916112e1565b90919082549060031b9160018060a01b03809116831b921b1916179055565b8254801561057a570192610563846112e1565b81939154921b1b1916905555908291858080610476565b634e487b7160e01b895260318452602489fd5b634e487b7160e01b8a526011855260248afd5b50610476565b845162461bcd60e51b815260208185015260146024820152734e6f207374616b6520746f20776974686472617760601b6044820152606490fd5b606490602084519162461bcd60e51b8352820152600e60248201526d139bdd081c9959da5cdd195c995960921b6044820152fd5b5080fd5b838234610614578160031936011261061457602090516127108152f35b838234610614578160031936011261061457602090516103e88152f35b50903461030a57602036600319011261030a5735825260066020908152918190205490516001600160a01b039091168152f35b611191565b5082903461061457606036600319011261061457823560243591604435338552600360205281852060ff600682015416156107cd576106d160018201546002541115611370565b8251966106dd8861142c565b33885260208801908682528489019184835260608a0142815260808b01938a8552888b526005602052878b20805490600160401b8210156107ba5790610728916001820181556112c5565b9390936107a8577fd7065d9f36ddac2c4ac04341301746ec2eb20c41fc3fd7c41c360fc70233d273999a9b9c60018060a01b039051166001600160601b0360a01b855416178455516001840155516002830155516003820155019051151560ff80198354169116179055600842910155815194855260208501523393a380f35b634e487b7160e01b8c528b855260248cfd5b634e487b7160e01b8d526041865260248dfd5b825162461bcd60e51b815260208189015260156024820152742737ba103932b3b4b9ba32b932b21039b7b63b32b960591b6044820152606490fd5b50903461030a578260031936011261030a5760209250549051908152f35b503461030a57602036600319011261030a579161012092610845611176565b90808051936108538561145e565b80855280602086015280828601528060608601528060808601528060a08601528060c08601528060e0860152806101008096015260018060a01b038094168152600360205220908051926108a68461145e565b825416948584526001830154916020850192835260028401549181860192835260038501549060608701918252850154916080870192835260058601549360a0880194855260ff6006880154169560c08901961515875289600860078a01549960e08c019a8b520154990198895282519a8b525160208b015251908901525160608801525160808701525160a086015251151560c08501525160e08401525190820152f35b50919034610614576020908160031936011261030a57803583526005918281528484209283549067ffffffffffffffff8211610a7757865192959361099483831b88018561147b565b82845286840190819686528786209086925b858410610a1b57505050505050845193808501918186525180925285850193925b8281106109d45785850386f35b835180516001600160a01b03168652808301518684015287810151888701526060808201519087015260809081015115159086015260a090940193928101926001016109c7565b848a6001928d809d9a9b9d5190610a318261142c565b858060a01b03885416825285880154848301526002880154908201526003870154606082015260ff868801541615156080820152815201930193019291989695986109a6565b634e487b7160e01b865260418452602486fd5b83823461061457816003193601126106145760015490516001600160a01b039091168152602090f35b838234610614578160031936011261061457602090516101f48152f35b833461034e578060031936011261034e57610ae9611318565b600180546001600160a01b0319811690915581906001600160a01b03167f8be0079c531659141344cd1fd0a4f28419497f9722a3daafe3b4186f6b6457e08280a380f35b50919034610614576020908160031936011261030a5780358084526005938484528581209081548015610d5d57818297835b838110610c9957506001600160a01b039889169692505085159050610c6457815b8354811015610c33578588610b9583876112c5565b50541614610bab57610ba690611407565b610b80565b85975097809698928492610be183957fea8c2bcaf76e0f2df4295b1441e5ba1420d2b35ec0e45c137ad0a5621a004849976112c5565b5001805460ff191660011790555b85815260068a522080546001600160a01b031916861790556002610c206001610c178461129a565b5001549261129a565b500154825191825288820152a351908152f35b5050839550957fea8c2bcaf76e0f2df4295b1441e5ba1420d2b35ec0e45c137ad0a5621a0048499181809698610bef565b875162461bcd60e51b8152908101869052600f60248201526e2737903b30b634b2103bb4b73732b960891b6044820152606490fd5b610ca381876112c5565b50546001600160a01b03908116865260038a528b8620610cc383896112c5565b50908460018093015491015490818102918183041490151715610d4a576002610cec858b6112c5565b500154918201809211610d4a578115610d375704848111610d18575b5050610d1390611407565b610b5f565b909350610d13919a5092610d2c8b886112c5565b505416999038610d08565b634e487b7160e01b885260128b52602488fd5b634e487b7160e01b885260118b52602488fd5b875162461bcd60e51b815280860187905260076024820152664e6f206269647360c81b6044820152606490fd5b503461030a578060031936011261030a576024359282358152600560205281812090815485101561034e575060a093610dc2916112c5565b50600180851b038154169260018201549260ff6002840154926003850154940154169381519586526020860152840152606083015215156080820152f35b503461030a578060031936011261030a57610e19611176565b9060243591610e26611318565b6001600160a01b039081168086526003602052828620600681015491959160ff1615610f335760018101805490610e5f87831015611370565b868203918211610f20575560050180549091876107d0831115610ee757506107cf198201918211610ed4575086808080887f5ec3b52db8b6d5abde3c843bde372becb07b8a924641e231c549d8522a7ecbd8999760209997610ecc97905b55600154165af161048d61149d565b51908152a280f35b634e487b7160e01b885260119052602487fd5b610ecc92508080809350887f5ec3b52db8b6d5abde3c843bde372becb07b8a924641e231c549d8522a7ecbd89997602099978390610ebd565b634e487b7160e01b895260118452602489fd5b835162461bcd60e51b8152602081840152600a6024820152694e6f742061637469766560b01b6044820152606490fd5b50903461030a57602036600319011261030a57610120926001600160a01b0390839082610f8e611176565b16815260036020522090815416926001820154926002830154906003840154908401549060058501549260ff6006870154169460086007880154970154978151998a5260208a01528801526060870152608086015260a0850152151560c084015260e0830152610100820152f35b6111d3565b8382346106145781600319360112610614576020906002549051908152f35b50908260031936011261030a576110356113b1565b611043600254341015611370565b338352600360205260ff6006838520015416611123573383526003602052818320336001600160601b0360a01b825416178155346001820155611388600582015560068101600160ff19825416179055426007820155600842910155805490600160401b82101561111057816110c19160016110df940190556112e1565b81546001600160a01b0360039290921b91821b19163390911b179055565b513481527f271189a01893de7d6e2393bddba4f8a3774c2e566989750f1b19ff02ac4c790f60203392a26001815580f35b634e487b7160e01b845260419052602483fd5b6020606492519162461bcd60e51b83528201526012602482015271105b1c9958591e481c9959da5cdd195c995960721b6044820152fd5b8382346106145781600319360112610614576020905160648152f35b600435906001600160a01b038216820361118c57565b600080fd5b3461118c57602036600319011261118c576001600160a01b036111b2611176565b166000526003602052602060ff600660406000200154166040519015158152f35b3461118c5760008060031936011261034e5760405180916004549081835260208093018092600483527f8a35acfbc15ff81a39ae7d344fd709f28e8600b4aa8c65c6b64bfe7fe36bd19b90835b81811061127d575050508461123691038561147b565b60405193838594850191818652518092526040850193925b82811061125d57505050500390f35b83516001600160a01b03168552869550938101939281019260010161124e565b82546001600160a01b031684529286019260019283019201611220565b8054156112af57600052602060002090600090565b634e487b7160e01b600052603260045260246000fd5b80548210156112af576000526005602060002091020190600090565b6004548110156112af5760046000527f8a35acfbc15ff81a39ae7d344fd709f28e8600b4aa8c65c6b64bfe7fe36bd19b0190600090565b6001546001600160a01b0316330361132c57565b606460405162461bcd60e51b815260206004820152602060248201527f4f776e61626c653a2063616c6c6572206973206e6f7420746865206f776e65726044820152fd5b1561137757565b60405162461bcd60e51b8152602060048201526012602482015271496e73756666696369656e74207374616b6560701b6044820152606490fd5b6002600054146113c2576002600055565b60405162461bcd60e51b815260206004820152601f60248201527f5265656e7472616e637947756172643a207265656e7472616e742063616c6c006044820152606490fd5b60001981146114165760010190565b634e487b7160e01b600052601160045260246000fd5b60a0810190811067ffffffffffffffff82111761144857604052565b634e487b7160e01b600052604160045260246000fd5b610120810190811067ffffffffffffffff82111761144857604052565b90601f8019910116810190811067ffffffffffffffff82111761144857604052565b3d156114d8573d9067ffffffffffffffff821161144857604051916114cc601f8201601f19166020018461147b565b82523d6000602084013e565b606090565b156114e457565b60405162461bcd60e51b815260206004820152600f60248201526e151c985b9cd9995c8819985a5b1959608a1b6044820152606490fdfea26469706673582212204ecc0f494e3b58f53872814a062e7961169f2f6e0df47366dd54b1b0cc49c71c64736f6c63430008140033",
  "linkReferences": {},
  "deployedLinkReferences": {}
}